{
  "address": "0x4F69163C3E052dD3bEeb5fab1CfC0fDBe736D255",
  "abi": [
    {
      "inputs": [
        {
          "internalType": "string",
          "name": "name",
          "type": "string"
        },
        {
          "internalType": "string",
          "name": "symbol",
          "type": "string"
        },
        {
          "internalType": "uint256",
          "name": "_initialSupply",
          "type": "uint256"
        },
        {
          "internalType": "address",
          "name": "_owner",
          "type": "address"
        },
        {
          "internalType": "address",
          "name": "_initialHolder",
          "type": "address"
        }
      ],
      "stateMutability": "nonpayable",
      "type": "constructor"
    },
    {
      "anonymous": false,
      "inputs": [
        {
          "indexed": true,
          "internalType": "address",
          "name": "owner",
          "type": "address"
        },
        {
          "indexed": true,
          "internalType": "address",
          "name": "spender",
          "type": "address"
        },
        {
          "indexed": false,
          "internalType": "uint256",
          "name": "value",
          "type": "uint256"
        }
      ],
      "name": "Approval",
      "type": "event"
    },
    {
      "anonymous": false,
      "inputs": [
        {
          "indexed": false,
          "internalType": "address",
          "name": "oldOwner",
          "type": "address"
        },
        {
          "indexed": false,
          "internalType": "address",
          "name": "newOwner",
          "type": "address"
        }
      ],
      "name": "OwnerChanged",
      "type": "event"
    },
    {
      "anonymous": false,
      "inputs": [
        {
          "indexed": false,
          "internalType": "address",
          "name": "newOwner",
          "type": "address"
        }
      ],
      "name": "OwnerNominated",
      "type": "event"
    },
    {
      "anonymous": false,
      "inputs": [
        {
          "indexed": true,
          "internalType": "address",
          "name": "from",
          "type": "address"
        },
        {
          "indexed": true,
          "internalType": "address",
          "name": "to",
          "type": "address"
        },
        {
          "indexed": false,
          "internalType": "uint256",
          "name": "value",
          "type": "uint256"
        }
      ],
      "name": "Transfer",
      "type": "event"
    },
    {
      "inputs": [],
      "name": "acceptOwnership",
      "outputs": [],
      "stateMutability": "nonpayable",
      "type": "function"
    },
    {
      "inputs": [
        {
          "internalType": "address",
          "name": "owner",
          "type": "address"
        },
        {
          "internalType": "address",
          "name": "spender",
          "type": "address"
        }
      ],
      "name": "allowance",
      "outputs": [
        {
          "internalType": "uint256",
          "name": "",
          "type": "uint256"
        }
      ],
      "stateMutability": "view",
      "type": "function"
    },
    {
      "inputs": [
        {
          "internalType": "address",
          "name": "spender",
          "type": "address"
        },
        {
          "internalType": "uint256",
          "name": "amount",
          "type": "uint256"
        }
      ],
      "name": "approve",
      "outputs": [
        {
          "internalType": "bool",
          "name": "",
          "type": "bool"
        }
      ],
      "stateMutability": "nonpayable",
      "type": "function"
    },
    {
      "inputs": [
        {
          "internalType": "address",
          "name": "account",
          "type": "address"
        }
      ],
      "name": "balanceOf",
      "outputs": [
        {
          "internalType": "uint256",
          "name": "",
          "type": "uint256"
        }
      ],
      "stateMutability": "view",
      "type": "function"
    },
    {
      "inputs": [
        {
          "internalType": "uint256",
          "name": "amount",
          "type": "uint256"
        }
      ],
      "name": "burn",
      "outputs": [],
      "stateMutability": "nonpayable",
      "type": "function"
    },
    {
      "inputs": [],
      "name": "decimals",
      "outputs": [
        {
          "internalType": "uint8",
          "name": "",
          "type": "uint8"
        }
      ],
      "stateMutability": "view",
      "type": "function"
    },
    {
      "inputs": [
        {
          "internalType": "address",
          "name": "spender",
          "type": "address"
        },
        {
          "internalType": "uint256",
          "name": "subtractedValue",
          "type": "uint256"
        }
      ],
      "name": "decreaseAllowance",
      "outputs": [
        {
          "internalType": "bool",
          "name": "",
          "type": "bool"
        }
      ],
      "stateMutability": "nonpayable",
      "type": "function"
    },
    {
      "inputs": [
        {
          "internalType": "address",
          "name": "spender",
          "type": "address"
        },
        {
          "internalType": "uint256",
          "name": "addedValue",
          "type": "uint256"
        }
      ],
      "name": "increaseAllowance",
      "outputs": [
        {
          "internalType": "bool",
          "name": "",
          "type": "bool"
        }
      ],
      "stateMutability": "nonpayable",
      "type": "function"
    },
    {
      "inputs": [
        {
          "internalType": "address",
          "name": "account",
          "type": "address"
        },
        {
          "internalType": "uint256",
          "name": "amount",
          "type": "uint256"
        }
      ],
      "name": "mint",
      "outputs": [],
      "stateMutability": "nonpayable",
      "type": "function"
    },
    {
      "inputs": [],
      "name": "name",
      "outputs": [
        {
          "internalType": "string",
          "name": "",
          "type": "string"
        }
      ],
      "stateMutability": "view",
      "type": "function"
    },
    {
      "inputs": [
        {
          "internalType": "address",
          "name": "_owner",
          "type": "address"
        }
      ],
      "name": "nominateNewOwner",
      "outputs": [],
      "stateMutability": "nonpayable",
      "type": "function"
    },
    {
      "inputs": [],
      "name": "nominatedOwner",
      "outputs": [
        {
          "internalType": "address",
          "name": "",
          "type": "address"
        }
      ],
      "stateMutability": "view",
      "type": "function"
    },
    {
      "inputs": [],
      "name": "owner",
      "outputs": [
        {
          "internalType": "address",
          "name": "",
          "type": "address"
        }
      ],
      "stateMutability": "view",
      "type": "function"
    },
    {
      "inputs": [
        {
          "internalType": "address",
          "name": "_supplySchedule",
          "type": "address"
        }
      ],
      "name": "setSupplySchedule",
      "outputs": [],
      "stateMutability": "nonpayable",
      "type": "function"
    },
    {
      "inputs": [],
      "name": "supplySchedule",
      "outputs": [
        {
          "internalType": "contract ISupplySchedule",
          "name": "",
          "type": "address"
        }
      ],
      "stateMutability": "view",
      "type": "function"
    },
    {
      "inputs": [],
      "name": "symbol",
      "outputs": [
        {
          "internalType": "string",
          "name": "",
          "type": "string"
        }
      ],
      "stateMutability": "view",
      "type": "function"
    },
    {
      "inputs": [],
      "name": "totalSupply",
      "outputs": [
        {
          "internalType": "uint256",
          "name": "",
          "type": "uint256"
        }
      ],
      "stateMutability": "view",
      "type": "function"
    },
    {
      "inputs": [
        {
          "internalType": "address",
          "name": "recipient",
          "type": "address"
        },
        {
          "internalType": "uint256",
          "name": "amount",
          "type": "uint256"
        }
      ],
      "name": "transfer",
      "outputs": [
        {
          "internalType": "bool",
          "name": "",
          "type": "bool"
        }
      ],
      "stateMutability": "nonpayable",
      "type": "function"
    },
    {
      "inputs": [
        {
          "internalType": "address",
          "name": "sender",
          "type": "address"
        },
        {
          "internalType": "address",
          "name": "recipient",
          "type": "address"
        },
        {
          "internalType": "uint256",
          "name": "amount",
          "type": "uint256"
        }
      ],
      "name": "transferFrom",
      "outputs": [
        {
          "internalType": "bool",
          "name": "",
          "type": "bool"
        }
      ],
      "stateMutability": "nonpayable",
      "type": "function"
    }
  ],
  "numDeployments": 1,
  "solcInputHash": "6f79d3733b7e9dcc5d3a8e37b3ee8002",
  "bytecode": "0x60806040523480156200001157600080fd5b5060405162002c6738038062002c67833981810160405281019062000037919062000522565b81858581600390816200004b919062000829565b5080600490816200005d919062000829565b505050600073ffffffffffffffffffffffffffffffffffffffff168173ffffffffffffffffffffffffffffffffffffffff1603620000d2576040517f08c379a0000000000000000000000000000000000000000000000000000000008152600401620000c99062000971565b60405180910390fd5b80600560006101000a81548173ffffffffffffffffffffffffffffffffffffffff021916908373ffffffffffffffffffffffffffffffffffffffff1602179055507fb532073b38c83145e3e5135377a08bf9aab55bc0fd7c1179cd4fb995d2a5159c60008260405162000147929190620009a4565b60405180910390a1506200016281846200016d60201b60201c565b505050505062000adb565b600073ffffffffffffffffffffffffffffffffffffffff168273ffffffffffffffffffffffffffffffffffffffff1603620001df576040517f08c379a0000000000000000000000000000000000000000000000000000000008152600401620001d69062000a21565b60405180910390fd5b620001f360008383620002e560201b60201c565b806002600082825462000207919062000a72565b92505081905550806000808473ffffffffffffffffffffffffffffffffffffffff1673ffffffffffffffffffffffffffffffffffffffff16815260200190815260200160002060008282546200025e919062000a72565b925050819055508173ffffffffffffffffffffffffffffffffffffffff16600073ffffffffffffffffffffffffffffffffffffffff167fddf252ad1be2c89b69c2b068fc378daa952ba7f163c4a11628f55a4df523b3ef83604051620002c5919062000abe565b60405180910390a3620002e160008383620002ea60201b60201c565b5050565b505050565b505050565b6000604051905090565b600080fd5b600080fd5b600080fd5b600080fd5b6000601f19601f8301169050919050565b7f4e487b7100000000000000000000000000000000000000000000000000000000600052604160045260246000fd5b62000358826200030d565b810181811067ffffffffffffffff821117156200037a57620003796200031e565b5b80604052505050565b60006200038f620002ef565b90506200039d82826200034d565b919050565b600067ffffffffffffffff821115620003c057620003bf6200031e565b5b620003cb826200030d565b9050602081019050919050565b60005b83811015620003f8578082015181840152602081019050620003db565b60008484015250505050565b60006200041b6200041584620003a2565b62000383565b9050828152602081018484840111156200043a576200043962000308565b5b62000447848285620003d8565b509392505050565b600082601f83011262000467576200046662000303565b5b81516200047984826020860162000404565b91505092915050565b6000819050919050565b620004978162000482565b8114620004a357600080fd5b50565b600081519050620004b7816200048c565b92915050565b600073ffffffffffffffffffffffffffffffffffffffff82169050919050565b6000620004ea82620004bd565b9050919050565b620004fc81620004dd565b81146200050857600080fd5b50565b6000815190506200051c81620004f1565b92915050565b600080600080600060a08688031215620005415762000540620002f9565b5b600086015167ffffffffffffffff811115620005625762000561620002fe565b5b62000570888289016200044f565b955050602086015167ffffffffffffffff811115620005945762000593620002fe565b5b620005a2888289016200044f565b9450506040620005b588828901620004a6565b9350506060620005c8888289016200050b565b9250506080620005db888289016200050b565b9150509295509295909350565b600081519050919050565b7f4e487b7100000000000000000000000000000000000000000000000000000000600052602260045260246000fd5b600060028204905060018216806200063b57607f821691505b602082108103620006515762000650620005f3565b5b50919050565b60008190508160005260206000209050919050565b60006020601f8301049050919050565b600082821b905092915050565b600060088302620006bb7fffffffffffffffffffffffffffffffffffffffffffffffffffffffffffffffff826200067c565b620006c786836200067c565b95508019841693508086168417925050509392505050565b6000819050919050565b60006200070a62000704620006fe8462000482565b620006df565b62000482565b9050919050565b6000819050919050565b6200072683620006e9565b6200073e620007358262000711565b84845462000689565b825550505050565b600090565b6200075562000746565b620007628184846200071b565b505050565b5b818110156200078a576200077e6000826200074b565b60018101905062000768565b5050565b601f821115620007d957620007a38162000657565b620007ae846200066c565b81016020851015620007be578190505b620007d6620007cd856200066c565b83018262000767565b50505b505050565b600082821c905092915050565b6000620007fe60001984600802620007de565b1980831691505092915050565b6000620008198383620007eb565b9150826002028217905092915050565b6200083482620005e8565b67ffffffffffffffff81111562000850576200084f6200031e565b5b6200085c825462000622565b620008698282856200078e565b600060209050601f831160018114620008a157600084156200088c578287015190505b6200089885826200080b565b86555062000908565b601f198416620008b18662000657565b60005b82811015620008db57848901518255600182019150602085019450602081019050620008b4565b86831015620008fb5784890151620008f7601f891682620007eb565b8355505b6001600288020188555050505b505050505050565b600082825260208201905092915050565b7f4f776e657220616464726573732063616e6e6f74206265203000000000000000600082015250565b60006200095960198362000910565b9150620009668262000921565b602082019050919050565b600060208201905081810360008301526200098c816200094a565b9050919050565b6200099e81620004dd565b82525050565b6000604082019050620009bb600083018562000993565b620009ca602083018462000993565b9392505050565b7f45524332303a206d696e7420746f20746865207a65726f206164647265737300600082015250565b600062000a09601f8362000910565b915062000a1682620009d1565b602082019050919050565b6000602082019050818103600083015262000a3c81620009fa565b9050919050565b7f4e487b7100000000000000000000000000000000000000000000000000000000600052601160045260246000fd5b600062000a7f8262000482565b915062000a8c8362000482565b925082820190508082111562000aa75762000aa662000a43565b5b92915050565b62000ab88162000482565b82525050565b600060208201905062000ad5600083018462000aad565b92915050565b61217c8062000aeb6000396000f3fe608060405234801561001057600080fd5b50600436106101215760003560e01c806342966c68116100ad57806395d89b411161007157806395d89b41146102f6578063a457c2d714610314578063a9059cbb14610344578063c40dd66f14610374578063dd62ed3e1461039257610121565b806342966c681461026457806353a47bb71461028057806370a082311461029e57806379ba5097146102ce5780638da5cb5b146102d857610121565b806323b872dd116100f457806323b872dd146101ae578063313ce567146101de578063332f3256146101fc578063395093511461021857806340c10f191461024857610121565b806306fdde0314610126578063095ea7b3146101445780631627540c1461017457806318160ddd14610190575b600080fd5b61012e6103c2565b60405161013b9190611553565b60405180910390f35b61015e6004803603810190610159919061160e565b610454565b60405161016b9190611669565b60405180910390f35b61018e60048036038101906101899190611684565b610472565b005b6101986104f5565b6040516101a591906116c0565b60405180910390f35b6101c860048036038101906101c391906116db565b6104ff565b6040516101d59190611669565b60405180910390f35b6101e66105f7565b6040516101f3919061174a565b60405180910390f35b61021660048036038101906102119190611684565b610600565b005b610232600480360381019061022d919061160e565b6106bb565b60405161023f9190611669565b60405180910390f35b610262600480360381019061025d919061160e565b610767565b005b61027e60048036038101906102799190611765565b610805565b005b610288610812565b60405161029591906117a1565b60405180910390f35b6102b860048036038101906102b39190611684565b610838565b6040516102c591906116c0565b60405180910390f35b6102d6610880565b005b6102e0610a34565b6040516102ed91906117a1565b60405180910390f35b6102fe610a5a565b60405161030b9190611553565b60405180910390f35b61032e6004803603810190610329919061160e565b610aec565b60405161033b9190611669565b60405180910390f35b61035e6004803603810190610359919061160e565b610bd7565b60405161036b9190611669565b60405180910390f35b61037c610bf5565b604051610389919061181b565b60405180910390f35b6103ac60048036038101906103a79190611836565b610c1b565b6040516103b991906116c0565b60405180910390f35b6060600380546103d1906118a5565b80601f01602080910402602001604051908101604052809291908181526020018280546103fd906118a5565b801561044a5780601f1061041f5761010080835404028352916020019161044a565b820191906000526020600020905b81548152906001019060200180831161042d57829003601f168201915b5050505050905090565b6000610468610461610ca2565b8484610caa565b6001905092915050565b61047a610e73565b80600660006101000a81548173ffffffffffffffffffffffffffffffffffffffff021916908373ffffffffffffffffffffffffffffffffffffffff1602179055507f906a1c6bd7e3091ea86693dd029a831c19049ce77f1dce2ce0bab1cacbabce22816040516104ea91906117a1565b60405180910390a150565b6000600254905090565b600061050c848484610f05565b6000600160008673ffffffffffffffffffffffffffffffffffffffff1673ffffffffffffffffffffffffffffffffffffffff1681526020019081526020016000206000610557610ca2565b73ffffffffffffffffffffffffffffffffffffffff1673ffffffffffffffffffffffffffffffffffffffff168152602001908152602001600020549050828110156105d7576040517f08c379a00000000000000000000000000000000000000000000000000000000081526004016105ce90611948565b60405180910390fd5b6105eb856105e3610ca2565b858403610caa565b60019150509392505050565b60006012905090565b610608610e73565b600073ffffffffffffffffffffffffffffffffffffffff168173ffffffffffffffffffffffffffffffffffffffff1603610677576040517f08c379a000000000000000000000000000000000000000000000000000000000815260040161066e906119b4565b60405180910390fd5b80600760006101000a81548173ffffffffffffffffffffffffffffffffffffffff021916908373ffffffffffffffffffffffffffffffffffffffff16021790555050565b600061075d6106c8610ca2565b8484600160006106d6610ca2565b73ffffffffffffffffffffffffffffffffffffffff1673ffffffffffffffffffffffffffffffffffffffff16815260200190815260200160002060008873ffffffffffffffffffffffffffffffffffffffff1673ffffffffffffffffffffffffffffffffffffffff168152602001908152602001600020546107589190611a03565b610caa565b6001905092915050565b600760009054906101000a900473ffffffffffffffffffffffffffffffffffffffff1673ffffffffffffffffffffffffffffffffffffffff163373ffffffffffffffffffffffffffffffffffffffff16146107f7576040517f08c379a00000000000000000000000000000000000000000000000000000000081526004016107ee90611aa9565b60405180910390fd5b6108018282611184565b5050565b61080f33826112e3565b50565b600660009054906101000a900473ffffffffffffffffffffffffffffffffffffffff1681565b60008060008373ffffffffffffffffffffffffffffffffffffffff1673ffffffffffffffffffffffffffffffffffffffff168152602001908152602001600020549050919050565b600660009054906101000a900473ffffffffffffffffffffffffffffffffffffffff1673ffffffffffffffffffffffffffffffffffffffff163373ffffffffffffffffffffffffffffffffffffffff1614610910576040517f08c379a000000000000000000000000000000000000000000000000000000000815260040161090790611b3b565b60405180910390fd5b7fb532073b38c83145e3e5135377a08bf9aab55bc0fd7c1179cd4fb995d2a5159c600560009054906101000a900473ffffffffffffffffffffffffffffffffffffffff16600660009054906101000a900473ffffffffffffffffffffffffffffffffffffffff16604051610985929190611b5b565b60405180910390a1600660009054906101000a900473ffffffffffffffffffffffffffffffffffffffff16600560006101000a81548173ffffffffffffffffffffffffffffffffffffffff021916908373ffffffffffffffffffffffffffffffffffffffff1602179055506000600660006101000a81548173ffffffffffffffffffffffffffffffffffffffff021916908373ffffffffffffffffffffffffffffffffffffffff160217905550565b600560009054906101000a900473ffffffffffffffffffffffffffffffffffffffff1681565b606060048054610a69906118a5565b80601f0160208091040260200160405190810160405280929190818152602001828054610a95906118a5565b8015610ae25780601f10610ab757610100808354040283529160200191610ae2565b820191906000526020600020905b815481529060010190602001808311610ac557829003601f168201915b5050505050905090565b60008060016000610afb610ca2565b73ffffffffffffffffffffffffffffffffffffffff1673ffffffffffffffffffffffffffffffffffffffff16815260200190815260200160002060008573ffffffffffffffffffffffffffffffffffffffff1673ffffffffffffffffffffffffffffffffffffffff16815260200190815260200160002054905082811015610bb8576040517f08c379a0000000000000000000000000000000000000000000000000000000008152600401610baf90611bf6565b60405180910390fd5b610bcc610bc3610ca2565b85858403610caa565b600191505092915050565b6000610beb610be4610ca2565b8484610f05565b6001905092915050565b600760009054906101000a900473ffffffffffffffffffffffffffffffffffffffff1681565b6000600160008473ffffffffffffffffffffffffffffffffffffffff1673ffffffffffffffffffffffffffffffffffffffff16815260200190815260200160002060008373ffffffffffffffffffffffffffffffffffffffff1673ffffffffffffffffffffffffffffffffffffffff16815260200190815260200160002054905092915050565b600033905090565b600073ffffffffffffffffffffffffffffffffffffffff168373ffffffffffffffffffffffffffffffffffffffff1603610d19576040517f08c379a0000000000000000000000000000000000000000000000000000000008152600401610d1090611c88565b60405180910390fd5b600073ffffffffffffffffffffffffffffffffffffffff168273ffffffffffffffffffffffffffffffffffffffff1603610d88576040517f08c379a0000000000000000000000000000000000000000000000000000000008152600401610d7f90611d1a565b60405180910390fd5b80600160008573ffffffffffffffffffffffffffffffffffffffff1673ffffffffffffffffffffffffffffffffffffffff16815260200190815260200160002060008473ffffffffffffffffffffffffffffffffffffffff1673ffffffffffffffffffffffffffffffffffffffff168152602001908152602001600020819055508173ffffffffffffffffffffffffffffffffffffffff168373ffffffffffffffffffffffffffffffffffffffff167f8c5be1e5ebec7d5bd14f71427d1e84f3dd0314c0f7b2291e5b200ac8c7c3b92583604051610e6691906116c0565b60405180910390a3505050565b600560009054906101000a900473ffffffffffffffffffffffffffffffffffffffff1673ffffffffffffffffffffffffffffffffffffffff163373ffffffffffffffffffffffffffffffffffffffff1614610f03576040517f08c379a0000000000000000000000000000000000000000000000000000000008152600401610efa90611dac565b60405180910390fd5b565b600073ffffffffffffffffffffffffffffffffffffffff168373ffffffffffffffffffffffffffffffffffffffff1603610f74576040517f08c379a0000000000000000000000000000000000000000000000000000000008152600401610f6b90611e3e565b60405180910390fd5b600073ffffffffffffffffffffffffffffffffffffffff168273ffffffffffffffffffffffffffffffffffffffff1603610fe3576040517f08c379a0000000000000000000000000000000000000000000000000000000008152600401610fda90611ed0565b60405180910390fd5b610fee8383836114b9565b60008060008573ffffffffffffffffffffffffffffffffffffffff1673ffffffffffffffffffffffffffffffffffffffff16815260200190815260200160002054905081811015611074576040517f08c379a000000000000000000000000000000000000000000000000000000000815260040161106b90611f62565b60405180910390fd5b8181036000808673ffffffffffffffffffffffffffffffffffffffff1673ffffffffffffffffffffffffffffffffffffffff16815260200190815260200160002081905550816000808573ffffffffffffffffffffffffffffffffffffffff1673ffffffffffffffffffffffffffffffffffffffff16815260200190815260200160002060008282546111079190611a03565b925050819055508273ffffffffffffffffffffffffffffffffffffffff168473ffffffffffffffffffffffffffffffffffffffff167fddf252ad1be2c89b69c2b068fc378daa952ba7f163c4a11628f55a4df523b3ef8460405161116b91906116c0565b60405180910390a361117e8484846114be565b50505050565b600073ffffffffffffffffffffffffffffffffffffffff168273ffffffffffffffffffffffffffffffffffffffff16036111f3576040517f08c379a00000000000000000000000000000000000000000000000000000000081526004016111ea90611fce565b60405180910390fd5b6111ff600083836114b9565b80600260008282546112119190611a03565b92505081905550806000808473ffffffffffffffffffffffffffffffffffffffff1673ffffffffffffffffffffffffffffffffffffffff16815260200190815260200160002060008282546112669190611a03565b925050819055508173ffffffffffffffffffffffffffffffffffffffff16600073ffffffffffffffffffffffffffffffffffffffff167fddf252ad1be2c89b69c2b068fc378daa952ba7f163c4a11628f55a4df523b3ef836040516112cb91906116c0565b60405180910390a36112df600083836114be565b5050565b600073ffffffffffffffffffffffffffffffffffffffff168273ffffffffffffffffffffffffffffffffffffffff1603611352576040517f08c379a000000000000000000000000000000000000000000000000000000000815260040161134990612060565b60405180910390fd5b61135e826000836114b9565b60008060008473ffffffffffffffffffffffffffffffffffffffff1673ffffffffffffffffffffffffffffffffffffffff168152602001908152602001600020549050818110156113e4576040517f08c379a00000000000000000000000000000000000000000000000000000000081526004016113db906120f2565b60405180910390fd5b8181036000808573ffffffffffffffffffffffffffffffffffffffff1673ffffffffffffffffffffffffffffffffffffffff16815260200190815260200160002081905550816002600082825461143b9190612112565b92505081905550600073ffffffffffffffffffffffffffffffffffffffff168373ffffffffffffffffffffffffffffffffffffffff167fddf252ad1be2c89b69c2b068fc378daa952ba7f163c4a11628f55a4df523b3ef846040516114a091906116c0565b60405180910390a36114b4836000846114be565b505050565b505050565b505050565b600081519050919050565b600082825260208201905092915050565b60005b838110156114fd5780820151818401526020810190506114e2565b60008484015250505050565b6000601f19601f8301169050919050565b6000611525826114c3565b61152f81856114ce565b935061153f8185602086016114df565b61154881611509565b840191505092915050565b6000602082019050818103600083015261156d818461151a565b905092915050565b600080fd5b600073ffffffffffffffffffffffffffffffffffffffff82169050919050565b60006115a58261157a565b9050919050565b6115b58161159a565b81146115c057600080fd5b50565b6000813590506115d2816115ac565b92915050565b6000819050919050565b6115eb816115d8565b81146115f657600080fd5b50565b600081359050611608816115e2565b92915050565b6000806040838503121561162557611624611575565b5b6000611633858286016115c3565b9250506020611644858286016115f9565b9150509250929050565b60008115159050919050565b6116638161164e565b82525050565b600060208201905061167e600083018461165a565b92915050565b60006020828403121561169a57611699611575565b5b60006116a8848285016115c3565b91505092915050565b6116ba816115d8565b82525050565b60006020820190506116d560008301846116b1565b92915050565b6000806000606084860312156116f4576116f3611575565b5b6000611702868287016115c3565b9350506020611713868287016115c3565b9250506040611724868287016115f9565b9150509250925092565b600060ff82169050919050565b6117448161172e565b82525050565b600060208201905061175f600083018461173b565b92915050565b60006020828403121561177b5761177a611575565b5b6000611789848285016115f9565b91505092915050565b61179b8161159a565b82525050565b60006020820190506117b66000830184611792565b92915050565b6000819050919050565b60006117e16117dc6117d78461157a565b6117bc565b61157a565b9050919050565b60006117f3826117c6565b9050919050565b6000611805826117e8565b9050919050565b611815816117fa565b82525050565b6000602082019050611830600083018461180c565b92915050565b6000806040838503121561184d5761184c611575565b5b600061185b858286016115c3565b925050602061186c858286016115c3565b9150509250929050565b7f4e487b7100000000000000000000000000000000000000000000000000000000600052602260045260246000fd5b600060028204905060018216806118bd57607f821691505b6020821081036118d0576118cf611876565b5b50919050565b7f45524332303a207472616e7366657220616d6f756e742065786365656473206160008201527f6c6c6f77616e6365000000000000000000000000000000000000000000000000602082015250565b60006119326028836114ce565b915061193d826118d6565b604082019050919050565b6000602082019050818103600083015261196181611925565b9050919050565b7f446578546f726f3a20496e76616c696420416464726573730000000000000000600082015250565b600061199e6018836114ce565b91506119a982611968565b602082019050919050565b600060208201905081810360008301526119cd81611991565b9050919050565b7f4e487b7100000000000000000000000000000000000000000000000000000000600052601160045260246000fd5b6000611a0e826115d8565b9150611a19836115d8565b9250828201905080821115611a3157611a306119d4565b5b92915050565b7f446578546f726f3a204f6e6c7920537570706c795363686564756c652063616e60008201527f20706572666f726d207468697320616374696f6e000000000000000000000000602082015250565b6000611a936034836114ce565b9150611a9e82611a37565b604082019050919050565b60006020820190508181036000830152611ac281611a86565b9050919050565b7f596f75206d757374206265206e6f6d696e61746564206265666f726520796f7560008201527f2063616e20616363657074206f776e6572736869700000000000000000000000602082015250565b6000611b256035836114ce565b9150611b3082611ac9565b604082019050919050565b60006020820190508181036000830152611b5481611b18565b9050919050565b6000604082019050611b706000830185611792565b611b7d6020830184611792565b9392505050565b7f45524332303a2064656372656173656420616c6c6f77616e63652062656c6f7760008201527f207a65726f000000000000000000000000000000000000000000000000000000602082015250565b6000611be06025836114ce565b9150611beb82611b84565b604082019050919050565b60006020820190508181036000830152611c0f81611bd3565b9050919050565b7f45524332303a20617070726f76652066726f6d20746865207a65726f2061646460008201527f7265737300000000000000000000000000000000000000000000000000000000602082015250565b6000611c726024836114ce565b9150611c7d82611c16565b604082019050919050565b60006020820190508181036000830152611ca181611c65565b9050919050565b7f45524332303a20617070726f766520746f20746865207a65726f20616464726560008201527f7373000000000000000000000000000000000000000000000000000000000000602082015250565b6000611d046022836114ce565b9150611d0f82611ca8565b604082019050919050565b60006020820190508181036000830152611d3381611cf7565b9050919050565b7f4f6e6c792074686520636f6e7472616374206f776e6572206d6179207065726660008201527f6f726d207468697320616374696f6e0000000000000000000000000000000000602082015250565b6000611d96602f836114ce565b9150611da182611d3a565b604082019050919050565b60006020820190508181036000830152611dc581611d89565b9050919050565b7f45524332303a207472616e736665722066726f6d20746865207a65726f20616460008201527f6472657373000000000000000000000000000000000000000000000000000000602082015250565b6000611e286025836114ce565b9150611e3382611dcc565b604082019050919050565b60006020820190508181036000830152611e5781611e1b565b9050919050565b7f45524332303a207472616e7366657220746f20746865207a65726f206164647260008201527f6573730000000000000000000000000000000000000000000000000000000000602082015250565b6000611eba6023836114ce565b9150611ec582611e5e565b604082019050919050565b60006020820190508181036000830152611ee981611ead565b9050919050565b7f45524332303a207472616e7366657220616d6f756e742065786365656473206260008201527f616c616e63650000000000000000000000000000000000000000000000000000602082015250565b6000611f4c6026836114ce565b9150611f5782611ef0565b604082019050919050565b60006020820190508181036000830152611f7b81611f3f565b9050919050565b7f45524332303a206d696e7420746f20746865207a65726f206164647265737300600082015250565b6000611fb8601f836114ce565b9150611fc382611f82565b602082019050919050565b60006020820190508181036000830152611fe781611fab565b9050919050565b7f45524332303a206275726e2066726f6d20746865207a65726f2061646472657360008201527f7300000000000000000000000000000000000000000000000000000000000000602082015250565b600061204a6021836114ce565b915061205582611fee565b604082019050919050565b600060208201905081810360008301526120798161203d565b9050919050565b7f45524332303a206275726e20616d6f756e7420657863656564732062616c616e60008201527f6365000000000000000000000000000000000000000000000000000000000000602082015250565b60006120dc6022836114ce565b91506120e782612080565b604082019050919050565b6000602082019050818103600083015261210b816120cf565b9050919050565b600061211d826115d8565b9150612128836115d8565b92508282039050818111156121405761213f6119d4565b5b9291505056fea264697066735822122091577a79904ee0bd3397164e36b71dfa3b593911bd42cf389c9193f96fa7f65964736f6c63430008130033",
  "devdoc": {
    "events": {
      "Approval(address,address,uint256)": {
        "details": "Emitted when the allowance of a `spender` for an `owner` is set by a call to {approve}. `value` is the new allowance."
      },
      "Transfer(address,address,uint256)": {
        "details": "Emitted when `value` tokens are moved from one account (`from`) to another (`to`). Note that `value` may be zero."
      }
    },
    "kind": "dev",
    "methods": {
      "allowance(address,address)": {
        "details": "See {IERC20-allowance}."
      },
      "approve(address,uint256)": {
        "details": "See {IERC20-approve}. Requirements: - `spender` cannot be the zero address."
      },
      "balanceOf(address)": {
        "details": "See {IERC20-balanceOf}."
      },
      "decimals()": {
        "details": "Returns the number of decimals used to get its user representation. For example, if `decimals` equals `2`, a balance of `505` tokens should be displayed to a user as `5.05` (`505 / 10 ** 2`). Tokens usually opt for a value of 18, imitating the relationship between Ether and Wei. This is the value {ERC20} uses, unless this function is overridden; NOTE: This information is only used for _display_ purposes: it in no way affects any of the arithmetic of the contract, including {IERC20-balanceOf} and {IERC20-transfer}."
      },
      "decreaseAllowance(address,uint256)": {
        "details": "Atomically decreases the allowance granted to `spender` by the caller. This is an alternative to {approve} that can be used as a mitigation for problems described in {IERC20-approve}. Emits an {Approval} event indicating the updated allowance. Requirements: - `spender` cannot be the zero address. - `spender` must have allowance for the caller of at least `subtractedValue`."
      },
      "increaseAllowance(address,uint256)": {
        "details": "Atomically increases the allowance granted to `spender` by the caller. This is an alternative to {approve} that can be used as a mitigation for problems described in {IERC20-approve}. Emits an {Approval} event indicating the updated allowance. Requirements: - `spender` cannot be the zero address."
      },
      "name()": {
        "details": "Returns the name of the token."
      },
      "symbol()": {
        "details": "Returns the symbol of the token, usually a shorter version of the name."
      },
      "totalSupply()": {
        "details": "See {IERC20-totalSupply}."
      },
      "transfer(address,uint256)": {
        "details": "See {IERC20-transfer}. Requirements: - `recipient` cannot be the zero address. - the caller must have a balance of at least `amount`."
      },
      "transferFrom(address,address,uint256)": {
        "details": "See {IERC20-transferFrom}. Emits an {Approval} event indicating the updated allowance. This is not required by the EIP. See the note at the beginning of {ERC20}. Requirements: - `sender` and `recipient` cannot be the zero address. - `sender` must have a balance of at least `amount`. - the caller must have allowance for ``sender``'s tokens of at least `amount`."
      }
    },
    "version": 1
  },
  "userdoc": {
    "kind": "user",
    "methods": {
      "supplySchedule()": {
        "notice": "defines inflationary supply schedule, according to which the DTORO inflationary supply is released"
      }
    },
    "version": 1
  },
  "storageLayout": {
    "storage": [
      {
        "astId": 17346,
        "contract": "contracts/DexToro.sol:DexToro",
        "label": "_balances",
        "offset": 0,
        "slot": "0",
        "type": "t_mapping(t_address,t_uint256)"
      },
      {
        "astId": 17352,
        "contract": "contracts/DexToro.sol:DexToro",
        "label": "_allowances",
        "offset": 0,
        "slot": "1",
        "type": "t_mapping(t_address,t_mapping(t_address,t_uint256))"
      },
      {
        "astId": 17354,
        "contract": "contracts/DexToro.sol:DexToro",
        "label": "_totalSupply",
        "offset": 0,
        "slot": "2",
        "type": "t_uint256"
      },
      {
        "astId": 17356,
        "contract": "contracts/DexToro.sol:DexToro",
        "label": "_name",
        "offset": 0,
        "slot": "3",
        "type": "t_string_storage"
      },
      {
        "astId": 17358,
        "contract": "contracts/DexToro.sol:DexToro",
        "label": "_symbol",
        "offset": 0,
        "slot": "4",
        "type": "t_string_storage"
      },
      {
        "astId": 17880,
        "contract": "contracts/DexToro.sol:DexToro",
        "label": "owner",
        "offset": 0,
        "slot": "5",
        "type": "t_address"
      },
      {
        "astId": 17882,
        "contract": "contracts/DexToro.sol:DexToro",
        "label": "nominatedOwner",
        "offset": 0,
        "slot": "6",
        "type": "t_address"
      },
      {
        "astId": 6794,
        "contract": "contracts/DexToro.sol:DexToro",
        "label": "supplySchedule",
        "offset": 0,
        "slot": "7",
        "type": "t_contract(ISupplySchedule)16965"
      }
    ],
    "types": {
      "t_address": {
        "encoding": "inplace",
        "label": "address",
        "numberOfBytes": "20"
      },
      "t_contract(ISupplySchedule)16965": {
        "encoding": "inplace",
        "label": "contract ISupplySchedule",
        "numberOfBytes": "20"
      },
      "t_mapping(t_address,t_mapping(t_address,t_uint256))": {
        "encoding": "mapping",
        "key": "t_address",
        "label": "mapping(address => mapping(address => uint256))",
        "numberOfBytes": "32",
        "value": "t_mapping(t_address,t_uint256)"
      },
      "t_mapping(t_address,t_uint256)": {
        "encoding": "mapping",
        "key": "t_address",
        "label": "mapping(address => uint256)",
        "numberOfBytes": "32",
        "value": "t_uint256"
      },
      "t_string_storage": {
        "encoding": "bytes",
        "label": "string",
        "numberOfBytes": "32"
      },
      "t_uint256": {
        "encoding": "inplace",
        "label": "uint256",
        "numberOfBytes": "32"
      }
    }
  }
}