{
  "address": "0x1D62b68b68E9AA27cDD9Dd12B62eEF09e9EB9386",
  "abi": [
    {
      "inputs": [
        {
          "internalType": "address",
          "name": "_owner",
          "type": "address"
        },
        {
          "internalType": "address",
          "name": "_token",
          "type": "address"
        },
        {
          "internalType": "address",
          "name": "_rewardEscrow",
          "type": "address"
        }
      ],
      "stateMutability": "nonpayable",
      "type": "constructor"
    },
    {
      "anonymous": false,
      "inputs": [
        {
          "indexed": false,
          "internalType": "uint256",
          "name": "index",
          "type": "uint256"
        },
        {
          "indexed": false,
          "internalType": "address",
          "name": "account",
          "type": "address"
        },
        {
          "indexed": false,
          "internalType": "uint256",
          "name": "amount",
          "type": "uint256"
        },
        {
          "indexed": false,
          "internalType": "uint256",
          "name": "epoch",
          "type": "uint256"
        }
      ],
      "name": "Claimed",
      "type": "event"
    },
    {
      "anonymous": false,
      "inputs": [
        {
          "indexed": false,
          "internalType": "uint256",
          "name": "epoch",
          "type": "uint256"
        }
      ],
      "name": "MerkleRootModified",
      "type": "event"
    },
    {
      "anonymous": false,
      "inputs": [
        {
          "indexed": false,
          "internalType": "address",
          "name": "oldOwner",
          "type": "address"
        },
        {
          "indexed": false,
          "internalType": "address",
          "name": "newOwner",
          "type": "address"
        }
      ],
      "name": "OwnerChanged",
      "type": "event"
    },
    {
      "anonymous": false,
      "inputs": [
        {
          "indexed": false,
          "internalType": "address",
          "name": "newOwner",
          "type": "address"
        }
      ],
      "name": "OwnerNominated",
      "type": "event"
    },
    {
      "inputs": [],
      "name": "acceptOwnership",
      "outputs": [],
      "stateMutability": "nonpayable",
      "type": "function"
    },
    {
      "inputs": [
        {
          "internalType": "uint256",
          "name": "index",
          "type": "uint256"
        },
        {
          "internalType": "address",
          "name": "account",
          "type": "address"
        },
        {
          "internalType": "uint256",
          "name": "amount",
          "type": "uint256"
        },
        {
          "internalType": "bytes32[]",
          "name": "merkleProof",
          "type": "bytes32[]"
        },
        {
          "internalType": "uint256",
          "name": "epoch",
          "type": "uint256"
        }
      ],
      "name": "claim",
      "outputs": [],
      "stateMutability": "nonpayable",
      "type": "function"
    },
    {
      "inputs": [
        {
          "components": [
            {
              "internalType": "uint256",
              "name": "index",
              "type": "uint256"
            },
            {
              "internalType": "address",
              "name": "account",
              "type": "address"
            },
            {
              "internalType": "uint256",
              "name": "amount",
              "type": "uint256"
            },
            {
              "internalType": "bytes32[]",
              "name": "merkleProof",
              "type": "bytes32[]"
            },
            {
              "internalType": "uint256",
              "name": "epoch",
              "type": "uint256"
            }
          ],
          "internalType": "struct IEscrowedMultipleMerkleDistributor.Claims[]",
          "name": "claims",
          "type": "tuple[]"
        }
      ],
      "name": "claimMultiple",
      "outputs": [],
      "stateMutability": "nonpayable",
      "type": "function"
    },
    {
      "inputs": [
        {
          "internalType": "uint256",
          "name": "index",
          "type": "uint256"
        },
        {
          "internalType": "uint256",
          "name": "epoch",
          "type": "uint256"
        }
      ],
      "name": "isClaimed",
      "outputs": [
        {
          "internalType": "bool",
          "name": "",
          "type": "bool"
        }
      ],
      "stateMutability": "view",
      "type": "function"
    },
    {
      "inputs": [
        {
          "internalType": "uint256",
          "name": "",
          "type": "uint256"
        }
      ],
      "name": "merkleRoots",
      "outputs": [
        {
          "internalType": "bytes32",
          "name": "",
          "type": "bytes32"
        }
      ],
      "stateMutability": "view",
      "type": "function"
    },
    {
      "inputs": [
        {
          "internalType": "address",
          "name": "_owner",
          "type": "address"
        }
      ],
      "name": "nominateNewOwner",
      "outputs": [],
      "stateMutability": "nonpayable",
      "type": "function"
    },
    {
      "inputs": [],
      "name": "nominatedOwner",
      "outputs": [
        {
          "internalType": "address",
          "name": "",
          "type": "address"
        }
      ],
      "stateMutability": "view",
      "type": "function"
    },
    {
      "inputs": [],
      "name": "owner",
      "outputs": [
        {
          "internalType": "address",
          "name": "",
          "type": "address"
        }
      ],
      "stateMutability": "view",
      "type": "function"
    },
    {
      "inputs": [],
      "name": "rewardEscrow",
      "outputs": [
        {
          "internalType": "address",
          "name": "",
          "type": "address"
        }
      ],
      "stateMutability": "view",
      "type": "function"
    },
    {
      "inputs": [
        {
          "internalType": "bytes32",
          "name": "merkleRoot",
          "type": "bytes32"
        },
        {
          "internalType": "uint256",
          "name": "epoch",
          "type": "uint256"
        }
      ],
      "name": "setMerkleRootForEpoch",
      "outputs": [],
      "stateMutability": "nonpayable",
      "type": "function"
    },
    {
      "inputs": [],
      "name": "token",
      "outputs": [
        {
          "internalType": "address",
          "name": "",
          "type": "address"
        }
      ],
      "stateMutability": "view",
      "type": "function"
    }
  ],
  "numDeployments": 1,
  "solcInputHash": "02850ed804265dc054109db0f6b1fe3b",
  "bytecode": "0x60c060405234801561001057600080fd5b50604051610e0e380380610e0e83398101604081905261002f91610116565b826001600160a01b03811661008a5760405162461bcd60e51b815260206004820152601960248201527f4f776e657220616464726573732063616e6e6f74206265203000000000000000604482015260640160405180910390fd5b600080546001600160a01b0319166001600160a01b03831690811782556040805192835260208301919091527fb532073b38c83145e3e5135377a08bf9aab55bc0fd7c1179cd4fb995d2a5159c910160405180910390a1506001600160a01b0391821660a0521660805250610159565b80516001600160a01b038116811461011157600080fd5b919050565b60008060006060848603121561012b57600080fd5b610134846100fa565b9250610142602085016100fa565b9150610150604085016100fa565b90509250925092565b60805160a051610c7b610193600039600081816101e4015261065f0152600081816101610152818161063001526107160152610c7b6000f3fe608060405234801561001057600080fd5b50600436106100c95760003560e01c8063a430be6c11610081578063d0b55e8c1161005b578063d0b55e8c146101a9578063f364c90c146101bc578063fc0c546a146101df57600080fd5b8063a430be6c1461015c578063ab5943db14610183578063c02bb7ba1461019657600080fd5b806371c5ecb1116100b257806371c5ecb11461011357806379ba5097146101415780638da5cb5b1461014957600080fd5b80631627540c146100ce57806353a47bb7146100e3575b600080fd5b6100e16100dc3660046109ea565b610206565b005b6001546100f6906001600160a01b031681565b6040516001600160a01b0390911681526020015b60405180910390f35b610133610121366004610a05565b60026020526000908152604090205481565b60405190815260200161010a565b6100e161026f565b6000546100f6906001600160a01b031681565b6100f67f000000000000000000000000000000000000000000000000000000000000000081565b6100e1610191366004610a6a565b610373565b6100e16101a4366004610aac565b610471565b6100e16101b7366004610b1c565b6107cc565b6101cf6101ca366004610b1c565b610823565b604051901515815260200161010a565b6100f67f000000000000000000000000000000000000000000000000000000000000000081565b61020e61086e565b6001805473ffffffffffffffffffffffffffffffffffffffff19166001600160a01b0383169081179091556040519081527f906a1c6bd7e3091ea86693dd029a831c19049ce77f1dce2ce0bab1cacbabce229060200160405180910390a150565b6001546001600160a01b031633146102f45760405162461bcd60e51b815260206004820152603560248201527f596f75206d757374206265206e6f6d696e61746564206265666f726520796f7560448201527f2063616e20616363657074206f776e657273686970000000000000000000000060648201526084015b60405180910390fd5b600054600154604080516001600160a01b0393841681529290911660208301527fb532073b38c83145e3e5135377a08bf9aab55bc0fd7c1179cd4fb995d2a5159c910160405180910390a1600180546000805473ffffffffffffffffffffffffffffffffffffffff199081166001600160a01b03841617909155169055565b8060005b8181101561046b5761046384848381811061039457610394610b3e565b90506020028101906103a69190610b54565b358585848181106103b9576103b9610b3e565b90506020028101906103cb9190610b54565b6103dc9060408101906020016109ea565b8686858181106103ee576103ee610b3e565b90506020028101906104009190610b54565b6040013587878681811061041657610416610b3e565b90506020028101906104289190610b54565b610436906060810190610b74565b89898881811061044857610448610b3e565b905060200281019061045a9190610b54565b60800135610471565b600101610377565b50505050565b61047b8682610823565b156104ee5760405162461bcd60e51b815260206004820152603860248201527f457363726f7765644d756c7469706c654d65726b6c654469737472696275746f60448201527f723a2044726f7020616c726561647920636c61696d65642e000000000000000060648201526084016102eb565b60408051602081018890526bffffffffffffffffffffffff19606088901b16918101919091526054810185905260009060740160405160208183030381529060405280519060200120905061058484848080602002602001604051908101604052809392919081815260200183836020028082843760009201829052508781526002602052604090205492508591506108f09050565b6105f65760405162461bcd60e51b815260206004820152603160248201527f457363726f7765644d756c7469706c654d65726b6c654469737472696275746f60448201527f723a20496e76616c69642070726f6f662e00000000000000000000000000000060648201526084016102eb565b6106008783610906565b6040517f095ea7b30000000000000000000000000000000000000000000000000000000081526001600160a01b037f000000000000000000000000000000000000000000000000000000000000000081166004830152602482018790527f0000000000000000000000000000000000000000000000000000000000000000169063095ea7b3906044016020604051808303816000875af11580156106a8573d6000803e3d6000fd5b505050506040513d601f19601f820116820180604052508101906106cc9190610bbe565b506040517fa0416ed30000000000000000000000000000000000000000000000000000000081526001600160a01b038781166004830152602482018790526301dfe20060448301527f0000000000000000000000000000000000000000000000000000000000000000169063a0416ed390606401600060405180830381600087803b15801561075a57600080fd5b505af115801561076e573d6000803e3d6000fd5b5050604080518a81526001600160a01b038a166020820152908101889052606081018590527fd9cb1e2714d65a111c0f20f060176ad657496bd47a3de04ec7c3d4ca232112ac9250608001905060405180910390a150505050505050565b6107d461086e565b60008181526002602052604090819020839055517f7835b531ba83151bc18466c9b0ab4b168056cb422098530a34952b03f87ba519906108179083815260200190565b60405180910390a15050565b60008061083261010085610bf6565b9050600061084261010086610c0a565b60009485526003602090815260408087209487529390529190932054600190911b908116149392505050565b6000546001600160a01b031633146108ee5760405162461bcd60e51b815260206004820152602f60248201527f4f6e6c792074686520636f6e7472616374206f776e6572206d6179207065726660448201527f6f726d207468697320616374696f6e000000000000000000000000000000000060648201526084016102eb565b565b6000826108fd858461094f565b14949350505050565b600061091461010084610bf6565b9050600061092461010085610c0a565b6000938452600360209081526040808620948652939052919092208054600190921b90911790555050565b600081815b8451811015610994576109808286838151811061097357610973610b3e565b602002602001015161099c565b91508061098c81610c1e565b915050610954565b509392505050565b60008183106109b85760008281526020849052604090206109c7565b60008381526020839052604090205b9392505050565b80356001600160a01b03811681146109e557600080fd5b919050565b6000602082840312156109fc57600080fd5b6109c7826109ce565b600060208284031215610a1757600080fd5b5035919050565b60008083601f840112610a3057600080fd5b50813567ffffffffffffffff811115610a4857600080fd5b6020830191508360208260051b8501011115610a6357600080fd5b9250929050565b60008060208385031215610a7d57600080fd5b823567ffffffffffffffff811115610a9457600080fd5b610aa085828601610a1e565b90969095509350505050565b60008060008060008060a08789031215610ac557600080fd5b86359550610ad5602088016109ce565b945060408701359350606087013567ffffffffffffffff811115610af857600080fd5b610b0489828a01610a1e565b979a9699509497949695608090950135949350505050565b60008060408385031215610b2f57600080fd5b50508035926020909101359150565b634e487b7160e01b600052603260045260246000fd5b60008235609e19833603018112610b6a57600080fd5b9190910192915050565b6000808335601e19843603018112610b8b57600080fd5b83018035915067ffffffffffffffff821115610ba657600080fd5b6020019150600581901b3603821315610a6357600080fd5b600060208284031215610bd057600080fd5b815180151581146109c757600080fd5b634e487b7160e01b600052601260045260246000fd5b600082610c0557610c05610be0565b500490565b600082610c1957610c19610be0565b500690565b600060018201610c3e57634e487b7160e01b600052601160045260246000fd5b506001019056fea26469706673582212201559075c2a9b743154640323b7302029be10893eed7d34488aa6e0008c4218b864736f6c63430008130033",
  "devdoc": {
    "kind": "dev",
    "methods": {
      "claim(uint256,address,uint256,bytes32[],uint256)": {
        "params": {
          "account": ": address used for escrow entry",
          "amount": ": $DTORO amount to be escrowed",
          "epoch": ": distribution index number",
          "index": ": used for merkle tree managment and verification",
          "merkleProof": ": off-chain generated proof of merkle tree inclusion"
        }
      },
      "claimMultiple((uint256,address,uint256,bytes32[],uint256)[])": {
        "params": {
          "claims": ": array of valid claims"
        }
      },
      "constructor": {
        "params": {
          "_owner": ": designated owner of this contract",
          "_rewardEscrow": ": address of dextoro escrow for tokens claimed",
          "_token": ": address of erc20 token to be distributed"
        }
      },
      "isClaimed(uint256,uint256)": {
        "params": {
          "epoch": ": distribution index number",
          "index": ": used for claim managment"
        },
        "returns": {
          "_0": "true if indexed claim has been claimed"
        }
      },
      "setMerkleRootForEpoch(bytes32,uint256)": {
        "params": {
          "epoch": ": distribution index number",
          "merkleRoot": ": new merkle root"
        }
      }
    },
    "stateVariables": {
      "rewardEscrow": {
        "return": "escrow for tokens claimed",
        "returns": {
          "_0": "escrow for tokens claimed"
        }
      },
      "token": {
        "return": "token to be distributed (DTORO)",
        "returns": {
          "_0": "token to be distributed (DTORO)"
        }
      }
    },
    "title": "DexToro EscrowedMultipleMerkleDistributor ",
    "version": 1
  },
  "userdoc": {
    "events": {
      "Claimed(uint256,address,uint256,uint256)": {
        "notice": "event is triggered whenever a call to `claim` succeeds"
      },
      "MerkleRootModified(uint256)": {
        "notice": "event is triggered whenever a merkle root is set"
      }
    },
    "kind": "user",
    "methods": {
      "claim(uint256,address,uint256,bytes32[],uint256)": {
        "notice": "attempt to claim as `account` and escrow DTORO for `account`"
      },
      "claimMultiple((uint256,address,uint256,bytes32[],uint256)[])": {
        "notice": "function that aggregates multiple claims"
      },
      "constructor": {
        "notice": "set addresses for deployed rewardEscrow and DTORO. Establish merkle root for verification"
      },
      "isClaimed(uint256,uint256)": {
        "notice": "determine if indexed claim has been claimed"
      },
      "setMerkleRootForEpoch(bytes32,uint256)": {
        "notice": "modify merkle root for existing distribution epoch"
      }
    },
    "notice": "Facilitates trading incentives distribution over multiple periods.",
    "version": 1
  },
  "storageLayout": {
    "storage": [
      {
        "astId": 20822,
        "contract": "contracts/EscrowedMultipleMerkleDistributor.sol:EscrowedMultipleMerkleDistributor",
        "label": "owner",
        "offset": 0,
        "slot": "0",
        "type": "t_address"
      },
      {
        "astId": 20824,
        "contract": "contracts/EscrowedMultipleMerkleDistributor.sol:EscrowedMultipleMerkleDistributor",
        "label": "nominatedOwner",
        "offset": 0,
        "slot": "1",
        "type": "t_address"
      },
      {
        "astId": 11444,
        "contract": "contracts/EscrowedMultipleMerkleDistributor.sol:EscrowedMultipleMerkleDistributor",
        "label": "merkleRoots",
        "offset": 0,
        "slot": "2",
        "type": "t_mapping(t_uint256,t_bytes32)"
      },
      {
        "astId": 11451,
        "contract": "contracts/EscrowedMultipleMerkleDistributor.sol:EscrowedMultipleMerkleDistributor",
        "label": "claimedBitMaps",
        "offset": 0,
        "slot": "3",
        "type": "t_mapping(t_uint256,t_mapping(t_uint256,t_uint256))"
      }
    ],
    "types": {
      "t_address": {
        "encoding": "inplace",
        "label": "address",
        "numberOfBytes": "20"
      },
      "t_bytes32": {
        "encoding": "inplace",
        "label": "bytes32",
        "numberOfBytes": "32"
      },
      "t_mapping(t_uint256,t_bytes32)": {
        "encoding": "mapping",
        "key": "t_uint256",
        "label": "mapping(uint256 => bytes32)",
        "numberOfBytes": "32",
        "value": "t_bytes32"
      },
      "t_mapping(t_uint256,t_mapping(t_uint256,t_uint256))": {
        "encoding": "mapping",
        "key": "t_uint256",
        "label": "mapping(uint256 => mapping(uint256 => uint256))",
        "numberOfBytes": "32",
        "value": "t_mapping(t_uint256,t_uint256)"
      },
      "t_mapping(t_uint256,t_uint256)": {
        "encoding": "mapping",
        "key": "t_uint256",
        "label": "mapping(uint256 => uint256)",
        "numberOfBytes": "32",
        "value": "t_uint256"
      },
      "t_uint256": {
        "encoding": "inplace",
        "label": "uint256",
        "numberOfBytes": "32"
      }
    }
  }
}