{
  "address": "0xb993Ee8e1c5E39C965151213c4e3d80752F9Fdce",
  "abi": [
    {
      "inputs": [
        {
          "internalType": "address",
          "name": "_owner",
          "type": "address"
        },
        {
          "internalType": "address",
          "name": "_token",
          "type": "address"
        }
      ],
      "stateMutability": "nonpayable",
      "type": "constructor"
    },
    {
      "anonymous": false,
      "inputs": [
        {
          "indexed": false,
          "internalType": "uint256",
          "name": "index",
          "type": "uint256"
        },
        {
          "indexed": false,
          "internalType": "address",
          "name": "account",
          "type": "address"
        },
        {
          "indexed": false,
          "internalType": "uint256",
          "name": "amount",
          "type": "uint256"
        },
        {
          "indexed": false,
          "internalType": "uint256",
          "name": "epoch",
          "type": "uint256"
        }
      ],
      "name": "Claimed",
      "type": "event"
    },
    {
      "anonymous": false,
      "inputs": [
        {
          "indexed": false,
          "internalType": "uint256",
          "name": "epoch",
          "type": "uint256"
        }
      ],
      "name": "MerkleRootModified",
      "type": "event"
    },
    {
      "anonymous": false,
      "inputs": [
        {
          "indexed": false,
          "internalType": "address",
          "name": "oldOwner",
          "type": "address"
        },
        {
          "indexed": false,
          "internalType": "address",
          "name": "newOwner",
          "type": "address"
        }
      ],
      "name": "OwnerChanged",
      "type": "event"
    },
    {
      "anonymous": false,
      "inputs": [
        {
          "indexed": false,
          "internalType": "address",
          "name": "newOwner",
          "type": "address"
        }
      ],
      "name": "OwnerNominated",
      "type": "event"
    },
    {
      "inputs": [],
      "name": "acceptOwnership",
      "outputs": [],
      "stateMutability": "nonpayable",
      "type": "function"
    },
    {
      "inputs": [
        {
          "internalType": "uint256",
          "name": "index",
          "type": "uint256"
        },
        {
          "internalType": "address",
          "name": "account",
          "type": "address"
        },
        {
          "internalType": "uint256",
          "name": "amount",
          "type": "uint256"
        },
        {
          "internalType": "bytes32[]",
          "name": "merkleProof",
          "type": "bytes32[]"
        },
        {
          "internalType": "uint256",
          "name": "epoch",
          "type": "uint256"
        }
      ],
      "name": "claim",
      "outputs": [],
      "stateMutability": "nonpayable",
      "type": "function"
    },
    {
      "inputs": [
        {
          "components": [
            {
              "internalType": "uint256",
              "name": "index",
              "type": "uint256"
            },
            {
              "internalType": "address",
              "name": "account",
              "type": "address"
            },
            {
              "internalType": "uint256",
              "name": "amount",
              "type": "uint256"
            },
            {
              "internalType": "bytes32[]",
              "name": "merkleProof",
              "type": "bytes32[]"
            },
            {
              "internalType": "uint256",
              "name": "epoch",
              "type": "uint256"
            }
          ],
          "internalType": "struct IMultipleMerkleDistributor.Claims[]",
          "name": "claims",
          "type": "tuple[]"
        }
      ],
      "name": "claimMultiple",
      "outputs": [],
      "stateMutability": "nonpayable",
      "type": "function"
    },
    {
      "inputs": [
        {
          "internalType": "uint256",
          "name": "index",
          "type": "uint256"
        },
        {
          "internalType": "uint256",
          "name": "epoch",
          "type": "uint256"
        }
      ],
      "name": "isClaimed",
      "outputs": [
        {
          "internalType": "bool",
          "name": "",
          "type": "bool"
        }
      ],
      "stateMutability": "view",
      "type": "function"
    },
    {
      "inputs": [
        {
          "internalType": "uint256",
          "name": "",
          "type": "uint256"
        }
      ],
      "name": "merkleRoots",
      "outputs": [
        {
          "internalType": "bytes32",
          "name": "",
          "type": "bytes32"
        }
      ],
      "stateMutability": "view",
      "type": "function"
    },
    {
      "inputs": [
        {
          "internalType": "address",
          "name": "_owner",
          "type": "address"
        }
      ],
      "name": "nominateNewOwner",
      "outputs": [],
      "stateMutability": "nonpayable",
      "type": "function"
    },
    {
      "inputs": [],
      "name": "nominatedOwner",
      "outputs": [
        {
          "internalType": "address",
          "name": "",
          "type": "address"
        }
      ],
      "stateMutability": "view",
      "type": "function"
    },
    {
      "inputs": [],
      "name": "owner",
      "outputs": [
        {
          "internalType": "address",
          "name": "",
          "type": "address"
        }
      ],
      "stateMutability": "view",
      "type": "function"
    },
    {
      "inputs": [
        {
          "internalType": "bytes32",
          "name": "merkleRoot",
          "type": "bytes32"
        },
        {
          "internalType": "uint256",
          "name": "epoch",
          "type": "uint256"
        }
      ],
      "name": "setMerkleRootForEpoch",
      "outputs": [],
      "stateMutability": "nonpayable",
      "type": "function"
    },
    {
      "inputs": [],
      "name": "token",
      "outputs": [
        {
          "internalType": "address",
          "name": "",
          "type": "address"
        }
      ],
      "stateMutability": "view",
      "type": "function"
    }
  ],
  "numDeployments": 1,
  "solcInputHash": "6f79d3733b7e9dcc5d3a8e37b3ee8002",
  "bytecode": "0x60a06040523480156200001157600080fd5b5060405162001c6f38038062001c6f8339818101604052810190620000379190620001cd565b81600073ffffffffffffffffffffffffffffffffffffffff168173ffffffffffffffffffffffffffffffffffffffff1603620000aa576040517f08c379a0000000000000000000000000000000000000000000000000000000008152600401620000a19062000275565b60405180910390fd5b806000806101000a81548173ffffffffffffffffffffffffffffffffffffffff021916908373ffffffffffffffffffffffffffffffffffffffff1602179055507fb532073b38c83145e3e5135377a08bf9aab55bc0fd7c1179cd4fb995d2a5159c6000826040516200011e929190620002a8565b60405180910390a1508073ffffffffffffffffffffffffffffffffffffffff1660808173ffffffffffffffffffffffffffffffffffffffff16815250505050620002d5565b600080fd5b600073ffffffffffffffffffffffffffffffffffffffff82169050919050565b6000620001958262000168565b9050919050565b620001a78162000188565b8114620001b357600080fd5b50565b600081519050620001c7816200019c565b92915050565b60008060408385031215620001e757620001e662000163565b5b6000620001f785828601620001b6565b92505060206200020a85828601620001b6565b9150509250929050565b600082825260208201905092915050565b7f4f776e657220616464726573732063616e6e6f74206265203000000000000000600082015250565b60006200025d60198362000214565b91506200026a8262000225565b602082019050919050565b6000602082019050818103600083015262000290816200024e565b9050919050565b620002a28162000188565b82525050565b6000604082019050620002bf600083018562000297565b620002ce602083018462000297565b9392505050565b608051611977620002f8600039600081816106a701526107f601526119776000f3fe608060405234801561001057600080fd5b506004361061009e5760003560e01c8063ab5943db11610066578063ab5943db14610135578063c02bb7ba14610151578063d0b55e8c1461016d578063f364c90c14610189578063fc0c546a146101b95761009e565b80631627540c146100a357806353a47bb7146100bf57806371c5ecb1146100dd57806379ba50971461010d5780638da5cb5b14610117575b600080fd5b6100bd60048036038101906100b89190610d56565b6101d7565b005b6100c761025a565b6040516100d49190610d92565b60405180910390f35b6100f760048036038101906100f29190610de3565b610280565b6040516101049190610e29565b60405180910390f35b610115610298565b005b61011f610449565b60405161012c9190610d92565b60405180910390f35b61014f600480360381019061014a9190610ea9565b61046d565b005b61016b60048036038101906101669190610f4c565b61057f565b005b61018760048036038101906101829190611012565b610731565b005b6101a3600480360381019061019e9190611052565b61078c565b6040516101b091906110ad565b60405180910390f35b6101c16107f4565b6040516101ce9190610d92565b60405180910390f35b6101df610818565b80600160006101000a81548173ffffffffffffffffffffffffffffffffffffffff021916908373ffffffffffffffffffffffffffffffffffffffff1602179055507f906a1c6bd7e3091ea86693dd029a831c19049ce77f1dce2ce0bab1cacbabce228160405161024f9190610d92565b60405180910390a150565b600160009054906101000a900473ffffffffffffffffffffffffffffffffffffffff1681565b60026020528060005260406000206000915090505481565b600160009054906101000a900473ffffffffffffffffffffffffffffffffffffffff1673ffffffffffffffffffffffffffffffffffffffff163373ffffffffffffffffffffffffffffffffffffffff1614610328576040517f08c379a000000000000000000000000000000000000000000000000000000000815260040161031f9061114b565b60405180910390fd5b7fb532073b38c83145e3e5135377a08bf9aab55bc0fd7c1179cd4fb995d2a5159c60008054906101000a900473ffffffffffffffffffffffffffffffffffffffff16600160009054906101000a900473ffffffffffffffffffffffffffffffffffffffff1660405161039b92919061116b565b60405180910390a1600160009054906101000a900473ffffffffffffffffffffffffffffffffffffffff166000806101000a81548173ffffffffffffffffffffffffffffffffffffffff021916908373ffffffffffffffffffffffffffffffffffffffff1602179055506000600160006101000a81548173ffffffffffffffffffffffffffffffffffffffff021916908373ffffffffffffffffffffffffffffffffffffffff160217905550565b60008054906101000a900473ffffffffffffffffffffffffffffffffffffffff1681565b600082829050905060005b818110156105795761056e84848381811061049657610495611194565b5b90506020028101906104a891906111d2565b600001358585848181106104bf576104be611194565b5b90506020028101906104d191906111d2565b60200160208101906104e39190610d56565b8686858181106104f6576104f5611194565b5b905060200281019061050891906111d2565b6040013587878681811061051f5761051e611194565b5b905060200281019061053191906111d2565b806060019061054091906111fa565b89898881811061055357610552611194565b5b905060200281019061056591906111d2565b6080013561057f565b806001019050610478565b50505050565b610589868261078c565b156105c9576040517f08c379a00000000000000000000000000000000000000000000000000000000081526004016105c0906112cf565b60405180910390fd5b60008686866040516020016105e093929190611358565b604051602081830303815290604052805190602001209050610657848480806020026020016040519081016040528093929190818152602001838360200280828437600081840152601f19601f820116905080830192505050505050506002600085815260200190815260200160002054836108a8565b610696576040517f08c379a000000000000000000000000000000000000000000000000000000000815260040161068d90611407565b60405180910390fd5b6106a087836108bf565b6106eb86867f000000000000000000000000000000000000000000000000000000000000000073ffffffffffffffffffffffffffffffffffffffff1661093c9092919063ffffffff16565b7fd9cb1e2714d65a111c0f20f060176ad657496bd47a3de04ec7c3d4ca232112ac878787856040516107209493929190611436565b60405180910390a150505050505050565b610739610818565b8160026000838152602001908152602001600020819055507f7835b531ba83151bc18466c9b0ab4b168056cb422098530a34952b03f87ba51981604051610780919061147b565b60405180910390a15050565b6000806101008461079d91906114f4565b90506000610100856107af9190611525565b905060006003600086815260200190815260200160002060008481526020019081526020016000205490506000826001901b9050808183161494505050505092915050565b7f000000000000000000000000000000000000000000000000000000000000000081565b60008054906101000a900473ffffffffffffffffffffffffffffffffffffffff1673ffffffffffffffffffffffffffffffffffffffff163373ffffffffffffffffffffffffffffffffffffffff16146108a6576040517f08c379a000000000000000000000000000000000000000000000000000000000815260040161089d906115c8565b60405180910390fd5b565b6000826108b585846109c2565b1490509392505050565b6000610100836108cf91906114f4565b90506000610100846108e19190611525565b9050806001901b60036000858152602001908152602001600020600084815260200190815260200160002054176003600085815260200190815260200160002060008481526020019081526020016000208190555050505050565b6109bd8363a9059cbb60e01b848460405160240161095b9291906115e8565b604051602081830303815290604052907bffffffffffffffffffffffffffffffffffffffffffffffffffffffff19166020820180517bffffffffffffffffffffffffffffffffffffffffffffffffffffffff8381831617835250505050610a18565b505050565b60008082905060005b8451811015610a0d576109f8828683815181106109eb576109ea611194565b5b6020026020010151610adf565b91508080610a0590611611565b9150506109cb565b508091505092915050565b6000610a7a826040518060400160405280602081526020017f5361666545524332303a206c6f772d6c6576656c2063616c6c206661696c65648152508573ffffffffffffffffffffffffffffffffffffffff16610b0a9092919063ffffffff16565b9050600081511115610ada5780806020019051810190610a9a9190611685565b610ad9576040517f08c379a0000000000000000000000000000000000000000000000000000000008152600401610ad090611724565b60405180910390fd5b5b505050565b6000818310610af757610af28284610b22565b610b02565b610b018383610b22565b5b905092915050565b6060610b198484600085610b39565b90509392505050565b600082600052816020526040600020905092915050565b606082471015610b7e576040517f08c379a0000000000000000000000000000000000000000000000000000000008152600401610b75906117b6565b60405180910390fd5b6000808673ffffffffffffffffffffffffffffffffffffffff168587604051610ba79190611847565b60006040518083038185875af1925050503d8060008114610be4576040519150601f19603f3d011682016040523d82523d6000602084013e610be9565b606091505b5091509150610bfa87838387610c06565b92505050949350505050565b60608315610c68576000835103610c6057610c2085610c7b565b610c5f576040517f08c379a0000000000000000000000000000000000000000000000000000000008152600401610c56906118aa565b60405180910390fd5b5b829050610c73565b610c728383610c9e565b5b949350505050565b6000808273ffffffffffffffffffffffffffffffffffffffff163b119050919050565b600082511115610cb15781518083602001fd5b806040517f08c379a0000000000000000000000000000000000000000000000000000000008152600401610ce5919061191f565b60405180910390fd5b600080fd5b600080fd5b600073ffffffffffffffffffffffffffffffffffffffff82169050919050565b6000610d2382610cf8565b9050919050565b610d3381610d18565b8114610d3e57600080fd5b50565b600081359050610d5081610d2a565b92915050565b600060208284031215610d6c57610d6b610cee565b5b6000610d7a84828501610d41565b91505092915050565b610d8c81610d18565b82525050565b6000602082019050610da76000830184610d83565b92915050565b6000819050919050565b610dc081610dad565b8114610dcb57600080fd5b50565b600081359050610ddd81610db7565b92915050565b600060208284031215610df957610df8610cee565b5b6000610e0784828501610dce565b91505092915050565b6000819050919050565b610e2381610e10565b82525050565b6000602082019050610e3e6000830184610e1a565b92915050565b600080fd5b600080fd5b600080fd5b60008083601f840112610e6957610e68610e44565b5b8235905067ffffffffffffffff811115610e8657610e85610e49565b5b602083019150836020820283011115610ea257610ea1610e4e565b5b9250929050565b60008060208385031215610ec057610ebf610cee565b5b600083013567ffffffffffffffff811115610ede57610edd610cf3565b5b610eea85828601610e53565b92509250509250929050565b60008083601f840112610f0c57610f0b610e44565b5b8235905067ffffffffffffffff811115610f2957610f28610e49565b5b602083019150836020820283011115610f4557610f44610e4e565b5b9250929050565b60008060008060008060a08789031215610f6957610f68610cee565b5b6000610f7789828a01610dce565b9650506020610f8889828a01610d41565b9550506040610f9989828a01610dce565b945050606087013567ffffffffffffffff811115610fba57610fb9610cf3565b5b610fc689828a01610ef6565b93509350506080610fd989828a01610dce565b9150509295509295509295565b610fef81610e10565b8114610ffa57600080fd5b50565b60008135905061100c81610fe6565b92915050565b6000806040838503121561102957611028610cee565b5b600061103785828601610ffd565b925050602061104885828601610dce565b9150509250929050565b6000806040838503121561106957611068610cee565b5b600061107785828601610dce565b925050602061108885828601610dce565b9150509250929050565b60008115159050919050565b6110a781611092565b82525050565b60006020820190506110c2600083018461109e565b92915050565b600082825260208201905092915050565b7f596f75206d757374206265206e6f6d696e61746564206265666f726520796f7560008201527f2063616e20616363657074206f776e6572736869700000000000000000000000602082015250565b60006111356035836110c8565b9150611140826110d9565b604082019050919050565b6000602082019050818103600083015261116481611128565b9050919050565b60006040820190506111806000830185610d83565b61118d6020830184610d83565b9392505050565b7f4e487b7100000000000000000000000000000000000000000000000000000000600052603260045260246000fd5b600080fd5b600080fd5b600080fd5b60008235600160a0038336030381126111ee576111ed6111c3565b5b80830191505092915050565b60008083356001602003843603038112611217576112166111c3565b5b80840192508235915067ffffffffffffffff821115611239576112386111c8565b5b602083019250602082023603831315611255576112546111cd565b5b509250929050565b7f4d756c7469706c654d65726b6c654469737472696275746f723a2044726f702060008201527f616c726561647920636c61696d65642e00000000000000000000000000000000602082015250565b60006112b96030836110c8565b91506112c48261125d565b604082019050919050565b600060208201905081810360008301526112e8816112ac565b9050919050565b6000819050919050565b61130a61130582610dad565b6112ef565b82525050565b60008160601b9050919050565b600061132882611310565b9050919050565b600061133a8261131d565b9050919050565b61135261134d82610d18565b61132f565b82525050565b600061136482866112f9565b6020820191506113748285611341565b60148201915061138482846112f9565b602082019150819050949350505050565b7f4d756c7469706c654d65726b6c654469737472696275746f723a20496e76616c60008201527f69642070726f6f662e0000000000000000000000000000000000000000000000602082015250565b60006113f16029836110c8565b91506113fc82611395565b604082019050919050565b60006020820190508181036000830152611420816113e4565b9050919050565b61143081610dad565b82525050565b600060808201905061144b6000830187611427565b6114586020830186610d83565b6114656040830185611427565b6114726060830184611427565b95945050505050565b60006020820190506114906000830184611427565b92915050565b7f4e487b7100000000000000000000000000000000000000000000000000000000600052601260045260246000fd5b7f4e487b7100000000000000000000000000000000000000000000000000000000600052601160045260246000fd5b60006114ff82610dad565b915061150a83610dad565b92508261151a57611519611496565b5b828204905092915050565b600061153082610dad565b915061153b83610dad565b92508261154b5761154a611496565b5b828206905092915050565b7f4f6e6c792074686520636f6e7472616374206f776e6572206d6179207065726660008201527f6f726d207468697320616374696f6e0000000000000000000000000000000000602082015250565b60006115b2602f836110c8565b91506115bd82611556565b604082019050919050565b600060208201905081810360008301526115e1816115a5565b9050919050565b60006040820190506115fd6000830185610d83565b61160a6020830184611427565b9392505050565b600061161c82610dad565b91507fffffffffffffffffffffffffffffffffffffffffffffffffffffffffffffffff820361164e5761164d6114c5565b5b600182019050919050565b61166281611092565b811461166d57600080fd5b50565b60008151905061167f81611659565b92915050565b60006020828403121561169b5761169a610cee565b5b60006116a984828501611670565b91505092915050565b7f5361666545524332303a204552433230206f7065726174696f6e20646964206e60008201527f6f74207375636365656400000000000000000000000000000000000000000000602082015250565b600061170e602a836110c8565b9150611719826116b2565b604082019050919050565b6000602082019050818103600083015261173d81611701565b9050919050565b7f416464726573733a20696e73756666696369656e742062616c616e636520666f60008201527f722063616c6c0000000000000000000000000000000000000000000000000000602082015250565b60006117a06026836110c8565b91506117ab82611744565b604082019050919050565b600060208201905081810360008301526117cf81611793565b9050919050565b600081519050919050565b600081905092915050565b60005b8381101561180a5780820151818401526020810190506117ef565b60008484015250505050565b6000611821826117d6565b61182b81856117e1565b935061183b8185602086016117ec565b80840191505092915050565b60006118538284611816565b915081905092915050565b7f416464726573733a2063616c6c20746f206e6f6e2d636f6e7472616374000000600082015250565b6000611894601d836110c8565b915061189f8261185e565b602082019050919050565b600060208201905081810360008301526118c381611887565b9050919050565b600081519050919050565b6000601f19601f8301169050919050565b60006118f1826118ca565b6118fb81856110c8565b935061190b8185602086016117ec565b611914816118d5565b840191505092915050565b6000602082019050818103600083015261193981846118e6565b90509291505056fea26469706673582212209e9058673b75d7d96baf16d24f5ef1d93e7a4045d292500f6dd839fd3c16684e64736f6c63430008130033",
  "devdoc": {
    "kind": "dev",
    "methods": {
      "claim(uint256,address,uint256,bytes32[],uint256)": {
        "params": {
          "account": ": address used for escrow entry",
          "amount": ": token amount to be escrowed",
          "epoch": ": distribution index number",
          "index": ": used for merkle tree managment and verification",
          "merkleProof": ": off-chain generated proof of merkle tree inclusion"
        }
      },
      "claimMultiple((uint256,address,uint256,bytes32[],uint256)[])": {
        "params": {
          "claims": ": array of valid claims"
        }
      },
      "constructor": {
        "params": {
          "_owner": ": designated owner of this contract",
          "_token": ": address of erc20 token to be distributed"
        }
      },
      "isClaimed(uint256,uint256)": {
        "params": {
          "epoch": ": distribution index number",
          "index": ": used for claim managment"
        },
        "returns": {
          "_0": "true if indexed claim has been claimed"
        }
      },
      "setMerkleRootForEpoch(bytes32,uint256)": {
        "params": {
          "epoch": ": distribution index number",
          "merkleRoot": ": new merkle root"
        }
      }
    },
    "stateVariables": {
      "token": {
        "return": "token to be distributed",
        "returns": {
          "_0": "token to be distributed"
        }
      }
    },
    "title": "DexToro MultipleMerkleDistributor ",
    "version": 1
  },
  "userdoc": {
    "events": {
      "Claimed(uint256,address,uint256,uint256)": {
        "notice": "event is triggered whenever a call to `claim` succeeds"
      },
      "MerkleRootModified(uint256)": {
        "notice": "event is triggered whenever a merkle root is set"
      }
    },
    "kind": "user",
    "methods": {
      "claim(uint256,address,uint256,bytes32[],uint256)": {
        "notice": "attempt to claim as `account` and transfer `amount` to `account`"
      },
      "claimMultiple((uint256,address,uint256,bytes32[],uint256)[])": {
        "notice": "function that aggregates multiple claims"
      },
      "constructor": {
        "notice": "set addresses ERC20 contract Establish merkle root for verification"
      },
      "isClaimed(uint256,uint256)": {
        "notice": "determine if indexed claim has been claimed"
      },
      "setMerkleRootForEpoch(bytes32,uint256)": {
        "notice": "modify merkle root for existing distribution epoch"
      }
    },
    "notice": "Facilitates trading incentives distribution over multiple periods.",
    "version": 1
  },
  "storageLayout": {
    "storage": [
      {
        "astId": 17880,
        "contract": "contracts/MultipleMerkleDistributor.sol:MultipleMerkleDistributor",
        "label": "owner",
        "offset": 0,
        "slot": "0",
        "type": "t_address"
      },
      {
        "astId": 17882,
        "contract": "contracts/MultipleMerkleDistributor.sol:MultipleMerkleDistributor",
        "label": "nominatedOwner",
        "offset": 0,
        "slot": "1",
        "type": "t_address"
      },
      {
        "astId": 8793,
        "contract": "contracts/MultipleMerkleDistributor.sol:MultipleMerkleDistributor",
        "label": "merkleRoots",
        "offset": 0,
        "slot": "2",
        "type": "t_mapping(t_uint256,t_bytes32)"
      },
      {
        "astId": 8800,
        "contract": "contracts/MultipleMerkleDistributor.sol:MultipleMerkleDistributor",
        "label": "claimedBitMaps",
        "offset": 0,
        "slot": "3",
        "type": "t_mapping(t_uint256,t_mapping(t_uint256,t_uint256))"
      }
    ],
    "types": {
      "t_address": {
        "encoding": "inplace",
        "label": "address",
        "numberOfBytes": "20"
      },
      "t_bytes32": {
        "encoding": "inplace",
        "label": "bytes32",
        "numberOfBytes": "32"
      },
      "t_mapping(t_uint256,t_bytes32)": {
        "encoding": "mapping",
        "key": "t_uint256",
        "label": "mapping(uint256 => bytes32)",
        "numberOfBytes": "32",
        "value": "t_bytes32"
      },
      "t_mapping(t_uint256,t_mapping(t_uint256,t_uint256))": {
        "encoding": "mapping",
        "key": "t_uint256",
        "label": "mapping(uint256 => mapping(uint256 => uint256))",
        "numberOfBytes": "32",
        "value": "t_mapping(t_uint256,t_uint256)"
      },
      "t_mapping(t_uint256,t_uint256)": {
        "encoding": "mapping",
        "key": "t_uint256",
        "label": "mapping(uint256 => uint256)",
        "numberOfBytes": "32",
        "value": "t_uint256"
      },
      "t_uint256": {
        "encoding": "inplace",
        "label": "uint256",
        "numberOfBytes": "32"
      }
    }
  }
}