{
  "address": "0xA9a1fAfE248e1f3832C9D171737911C1bf5C0992",
  "abi": [
    {
      "inputs": [],
      "name": "PRECISE_UNIT",
      "outputs": [
        {
          "internalType": "uint256",
          "name": "",
          "type": "uint256"
        }
      ],
      "stateMutability": "view",
      "type": "function"
    },
    {
      "inputs": [],
      "name": "UNIT",
      "outputs": [
        {
          "internalType": "uint256",
          "name": "",
          "type": "uint256"
        }
      ],
      "stateMutability": "view",
      "type": "function"
    },
    {
      "inputs": [],
      "name": "decimals",
      "outputs": [
        {
          "internalType": "uint8",
          "name": "",
          "type": "uint8"
        }
      ],
      "stateMutability": "view",
      "type": "function"
    },
    {
      "inputs": [],
      "name": "highPrecisionDecimals",
      "outputs": [
        {
          "internalType": "uint8",
          "name": "",
          "type": "uint8"
        }
      ],
      "stateMutability": "view",
      "type": "function"
    },
    {
      "inputs": [],
      "name": "preciseUnit",
      "outputs": [
        {
          "internalType": "uint256",
          "name": "",
          "type": "uint256"
        }
      ],
      "stateMutability": "pure",
      "type": "function"
    },
    {
      "inputs": [],
      "name": "unit",
      "outputs": [
        {
          "internalType": "uint256",
          "name": "",
          "type": "uint256"
        }
      ],
      "stateMutability": "pure",
      "type": "function"
    }
  ],
  "numDeployments": 1,
  "solcInputHash": "6f79d3733b7e9dcc5d3a8e37b3ee8002",
  "bytecode": "0x6103d5610053600b82828239805160001a607314610046577f4e487b7100000000000000000000000000000000000000000000000000000000600052600060045260246000fd5b30600052607381538281f3fe730000000000000000000000000000000000000000301460806040526004361061006c5760003560e01c8063313ce56714610071578063864029e71461008f578063907af6c0146100ad5780639d8e2177146100cb578063d5e5e6e6146100e9578063def4419d14610107575b600080fd5b610079610125565b60405161008691906101a3565b60405180910390f35b61009761012a565b6040516100a491906101d7565b60405180910390f35b6100b561013e565b6040516100c291906101d7565b60405180910390f35b6100d3610156565b6040516100e091906101d7565b60405180910390f35b6100f161016a565b6040516100fe91906101d7565b60405180910390f35b61010f610182565b60405161011c91906101a3565b60405180910390f35b601281565b601b60ff16600a61013b9190610354565b81565b6000601260ff16600a6101519190610354565b905090565b601260ff16600a6101679190610354565b81565b6000601b60ff16600a61017d9190610354565b905090565b601b81565b600060ff82169050919050565b61019d81610187565b82525050565b60006020820190506101b86000830184610194565b92915050565b6000819050919050565b6101d1816101be565b82525050565b60006020820190506101ec60008301846101c8565b92915050565b7f4e487b7100000000000000000000000000000000000000000000000000000000600052601160045260246000fd5b60008160011c9050919050565b6000808291508390505b600185111561027857808604811115610254576102536101f2565b5b60018516156102635780820291505b808102905061027185610221565b9450610238565b94509492505050565b600082610291576001905061034d565b8161029f576000905061034d565b81600181146102b557600281146102bf576102ee565b600191505061034d565b60ff8411156102d1576102d06101f2565b5b8360020a9150848211156102e8576102e76101f2565b5b5061034d565b5060208310610133831016604e8410600b84101617156103235782820a90508381111561031e5761031d6101f2565b5b61034d565b610330848484600161022e565b92509050818404811115610347576103466101f2565b5b81810290505b9392505050565b600061035f826101be565b915061036a836101be565b92506103977fffffffffffffffffffffffffffffffffffffffffffffffffffffffffffffffff8484610281565b90509291505056fea264697066735822122076482140d9d3113158df21c76903571a35346a6895e2b23fba2287cc24f2405b64736f6c63430008130033",
  "devdoc": {
    "kind": "dev",
    "methods": {
      "preciseUnit()": {
        "returns": {
          "_0": "Provides an interface to PRECISE_UNIT."
        }
      },
      "unit()": {
        "returns": {
          "_0": "Provides an interface to UNIT."
        }
      }
    },
    "version": 1
  },
  "userdoc": {
    "kind": "user",
    "methods": {},
    "version": 1
  },
  "storageLayout": {
    "storage": [],
    "types": null
  }
}