{
  "address": "0x5b53C6B382D416EA74CD8A19D48719983e3a28B4",
  "abi": [
    {
      "inputs": [
        {
          "internalType": "address",
          "name": "_owner",
          "type": "address"
        },
        {
          "internalType": "address",
          "name": "_treasuryDAO",
          "type": "address"
        }
      ],
      "stateMutability": "nonpayable",
      "type": "constructor"
    },
    {
      "anonymous": false,
      "inputs": [
        {
          "indexed": false,
          "internalType": "address",
          "name": "newAddress",
          "type": "address"
        }
      ],
      "name": "DexToroUpdated",
      "type": "event"
    },
    {
      "anonymous": false,
      "inputs": [
        {
          "indexed": false,
          "internalType": "uint256",
          "name": "newRewardAmount",
          "type": "uint256"
        }
      ],
      "name": "MinterRewardUpdated",
      "type": "event"
    },
    {
      "anonymous": false,
      "inputs": [
        {
          "indexed": false,
          "internalType": "address",
          "name": "oldOwner",
          "type": "address"
        },
        {
          "indexed": false,
          "internalType": "address",
          "name": "newOwner",
          "type": "address"
        }
      ],
      "name": "OwnerChanged",
      "type": "event"
    },
    {
      "anonymous": false,
      "inputs": [
        {
          "indexed": false,
          "internalType": "address",
          "name": "newOwner",
          "type": "address"
        }
      ],
      "name": "OwnerNominated",
      "type": "event"
    },
    {
      "anonymous": false,
      "inputs": [
        {
          "indexed": false,
          "internalType": "address",
          "name": "newAddress",
          "type": "address"
        }
      ],
      "name": "StakingRewardsUpdated",
      "type": "event"
    },
    {
      "anonymous": false,
      "inputs": [
        {
          "indexed": false,
          "internalType": "uint256",
          "name": "supplyMinted",
          "type": "uint256"
        },
        {
          "indexed": false,
          "internalType": "uint256",
          "name": "numberOfWeeksIssued",
          "type": "uint256"
        },
        {
          "indexed": false,
          "internalType": "uint256",
          "name": "lastMintEvent",
          "type": "uint256"
        }
      ],
      "name": "SupplyMinted",
      "type": "event"
    },
    {
      "anonymous": false,
      "inputs": [
        {
          "indexed": false,
          "internalType": "uint256",
          "name": "newPercentage",
          "type": "uint256"
        }
      ],
      "name": "TradingRewardsDiversionUpdated",
      "type": "event"
    },
    {
      "anonymous": false,
      "inputs": [
        {
          "indexed": false,
          "internalType": "address",
          "name": "newAddress",
          "type": "address"
        }
      ],
      "name": "TradingRewardsUpdated",
      "type": "event"
    },
    {
      "anonymous": false,
      "inputs": [
        {
          "indexed": false,
          "internalType": "address",
          "name": "treasuryDAO",
          "type": "address"
        }
      ],
      "name": "TreasuryDAOSet",
      "type": "event"
    },
    {
      "anonymous": false,
      "inputs": [
        {
          "indexed": false,
          "internalType": "uint256",
          "name": "newPercentage",
          "type": "uint256"
        }
      ],
      "name": "TreasuryDiversionUpdated",
      "type": "event"
    },
    {
      "inputs": [],
      "name": "DECAY_RATE",
      "outputs": [
        {
          "internalType": "uint256",
          "name": "",
          "type": "uint256"
        }
      ],
      "stateMutability": "view",
      "type": "function"
    },
    {
      "inputs": [],
      "name": "INITIAL_SUPPLY",
      "outputs": [
        {
          "internalType": "uint256",
          "name": "",
          "type": "uint256"
        }
      ],
      "stateMutability": "view",
      "type": "function"
    },
    {
      "inputs": [],
      "name": "INITIAL_WEEKLY_SUPPLY",
      "outputs": [
        {
          "internalType": "uint256",
          "name": "",
          "type": "uint256"
        }
      ],
      "stateMutability": "view",
      "type": "function"
    },
    {
      "inputs": [],
      "name": "MAX_MINTER_REWARD",
      "outputs": [
        {
          "internalType": "uint256",
          "name": "",
          "type": "uint256"
        }
      ],
      "stateMutability": "view",
      "type": "function"
    },
    {
      "inputs": [],
      "name": "MINT_BUFFER",
      "outputs": [
        {
          "internalType": "uint256",
          "name": "",
          "type": "uint256"
        }
      ],
      "stateMutability": "view",
      "type": "function"
    },
    {
      "inputs": [],
      "name": "MINT_PERIOD_DURATION",
      "outputs": [
        {
          "internalType": "uint256",
          "name": "",
          "type": "uint256"
        }
      ],
      "stateMutability": "view",
      "type": "function"
    },
    {
      "inputs": [],
      "name": "SUPPLY_DECAY_END",
      "outputs": [
        {
          "internalType": "uint8",
          "name": "",
          "type": "uint8"
        }
      ],
      "stateMutability": "view",
      "type": "function"
    },
    {
      "inputs": [],
      "name": "SUPPLY_DECAY_START",
      "outputs": [
        {
          "internalType": "uint8",
          "name": "",
          "type": "uint8"
        }
      ],
      "stateMutability": "view",
      "type": "function"
    },
    {
      "inputs": [],
      "name": "TERMINAL_SUPPLY_RATE_ANNUAL",
      "outputs": [
        {
          "internalType": "uint256",
          "name": "",
          "type": "uint256"
        }
      ],
      "stateMutability": "view",
      "type": "function"
    },
    {
      "inputs": [],
      "name": "acceptOwnership",
      "outputs": [],
      "stateMutability": "nonpayable",
      "type": "function"
    },
    {
      "inputs": [],
      "name": "dextoro",
      "outputs": [
        {
          "internalType": "contract IDexToro",
          "name": "",
          "type": "address"
        }
      ],
      "stateMutability": "view",
      "type": "function"
    },
    {
      "inputs": [],
      "name": "inflationStartDate",
      "outputs": [
        {
          "internalType": "uint256",
          "name": "",
          "type": "uint256"
        }
      ],
      "stateMutability": "view",
      "type": "function"
    },
    {
      "inputs": [],
      "name": "isMintable",
      "outputs": [
        {
          "internalType": "bool",
          "name": "",
          "type": "bool"
        }
      ],
      "stateMutability": "view",
      "type": "function"
    },
    {
      "inputs": [],
      "name": "lastMintEvent",
      "outputs": [
        {
          "internalType": "uint256",
          "name": "",
          "type": "uint256"
        }
      ],
      "stateMutability": "view",
      "type": "function"
    },
    {
      "inputs": [],
      "name": "mint",
      "outputs": [],
      "stateMutability": "nonpayable",
      "type": "function"
    },
    {
      "inputs": [],
      "name": "mintableSupply",
      "outputs": [
        {
          "internalType": "uint256",
          "name": "",
          "type": "uint256"
        }
      ],
      "stateMutability": "view",
      "type": "function"
    },
    {
      "inputs": [],
      "name": "minterReward",
      "outputs": [
        {
          "internalType": "uint256",
          "name": "",
          "type": "uint256"
        }
      ],
      "stateMutability": "view",
      "type": "function"
    },
    {
      "inputs": [
        {
          "internalType": "address",
          "name": "_owner",
          "type": "address"
        }
      ],
      "name": "nominateNewOwner",
      "outputs": [],
      "stateMutability": "nonpayable",
      "type": "function"
    },
    {
      "inputs": [],
      "name": "nominatedOwner",
      "outputs": [
        {
          "internalType": "address",
          "name": "",
          "type": "address"
        }
      ],
      "stateMutability": "view",
      "type": "function"
    },
    {
      "inputs": [],
      "name": "owner",
      "outputs": [
        {
          "internalType": "address",
          "name": "",
          "type": "address"
        }
      ],
      "stateMutability": "view",
      "type": "function"
    },
    {
      "inputs": [
        {
          "internalType": "contract IDexToro",
          "name": "_dextoro",
          "type": "address"
        }
      ],
      "name": "setDexToro",
      "outputs": [],
      "stateMutability": "nonpayable",
      "type": "function"
    },
    {
      "inputs": [
        {
          "internalType": "uint256",
          "name": "amount",
          "type": "uint256"
        }
      ],
      "name": "setMinterReward",
      "outputs": [],
      "stateMutability": "nonpayable",
      "type": "function"
    },
    {
      "inputs": [
        {
          "internalType": "address",
          "name": "_stakingRewards",
          "type": "address"
        }
      ],
      "name": "setStakingRewards",
      "outputs": [],
      "stateMutability": "nonpayable",
      "type": "function"
    },
    {
      "inputs": [
        {
          "internalType": "address",
          "name": "_tradingRewards",
          "type": "address"
        }
      ],
      "name": "setTradingRewards",
      "outputs": [],
      "stateMutability": "nonpayable",
      "type": "function"
    },
    {
      "inputs": [
        {
          "internalType": "uint256",
          "name": "_tradingRewardsDiversion",
          "type": "uint256"
        }
      ],
      "name": "setTradingRewardsDiversion",
      "outputs": [],
      "stateMutability": "nonpayable",
      "type": "function"
    },
    {
      "inputs": [
        {
          "internalType": "address",
          "name": "_treasuryDAO",
          "type": "address"
        }
      ],
      "name": "setTreasuryDAO",
      "outputs": [],
      "stateMutability": "nonpayable",
      "type": "function"
    },
    {
      "inputs": [
        {
          "internalType": "uint256",
          "name": "_treasuryDiversion",
          "type": "uint256"
        }
      ],
      "name": "setTreasuryDiversion",
      "outputs": [],
      "stateMutability": "nonpayable",
      "type": "function"
    },
    {
      "inputs": [],
      "name": "stakingRewards",
      "outputs": [
        {
          "internalType": "contract IStakingRewards",
          "name": "",
          "type": "address"
        }
      ],
      "stateMutability": "view",
      "type": "function"
    },
    {
      "inputs": [
        {
          "internalType": "uint256",
          "name": "totalSupply",
          "type": "uint256"
        },
        {
          "internalType": "uint256",
          "name": "numOfWeeks",
          "type": "uint256"
        }
      ],
      "name": "terminalInflationSupply",
      "outputs": [
        {
          "internalType": "uint256",
          "name": "",
          "type": "uint256"
        }
      ],
      "stateMutability": "pure",
      "type": "function"
    },
    {
      "inputs": [
        {
          "internalType": "uint256",
          "name": "counter",
          "type": "uint256"
        }
      ],
      "name": "tokenDecaySupplyForWeek",
      "outputs": [
        {
          "internalType": "uint256",
          "name": "",
          "type": "uint256"
        }
      ],
      "stateMutability": "pure",
      "type": "function"
    },
    {
      "inputs": [],
      "name": "tradingRewards",
      "outputs": [
        {
          "internalType": "contract IMultipleMerkleDistributor",
          "name": "",
          "type": "address"
        }
      ],
      "stateMutability": "view",
      "type": "function"
    },
    {
      "inputs": [],
      "name": "tradingRewardsDiversion",
      "outputs": [
        {
          "internalType": "uint256",
          "name": "",
          "type": "uint256"
        }
      ],
      "stateMutability": "view",
      "type": "function"
    },
    {
      "inputs": [],
      "name": "treasuryDAO",
      "outputs": [
        {
          "internalType": "address",
          "name": "",
          "type": "address"
        }
      ],
      "stateMutability": "view",
      "type": "function"
    },
    {
      "inputs": [],
      "name": "treasuryDiversion",
      "outputs": [
        {
          "internalType": "uint256",
          "name": "",
          "type": "uint256"
        }
      ],
      "stateMutability": "view",
      "type": "function"
    },
    {
      "inputs": [],
      "name": "weekCounter",
      "outputs": [
        {
          "internalType": "uint256",
          "name": "",
          "type": "uint256"
        }
      ],
      "stateMutability": "view",
      "type": "function"
    },
    {
      "inputs": [],
      "name": "weeksSinceLastIssuance",
      "outputs": [
        {
          "internalType": "uint256",
          "name": "",
          "type": "uint256"
        }
      ],
      "stateMutability": "view",
      "type": "function"
    }
  ],
  "numDeployments": 1,
  "solcInputHash": "6f79d3733b7e9dcc5d3a8e37b3ee8002",
  "bytecode": "0x60a0604052670de0b6b3a76400006007556107d06008556107d06009553480156200002957600080fd5b5060405162002b7a38038062002b7a83398181016040528101906200004f919062000209565b81600073ffffffffffffffffffffffffffffffffffffffff168173ffffffffffffffffffffffffffffffffffffffff1603620000c2576040517f08c379a0000000000000000000000000000000000000000000000000000000008152600401620000b990620002b1565b60405180910390fd5b806000806101000a81548173ffffffffffffffffffffffffffffffffffffffff021916908373ffffffffffffffffffffffffffffffffffffffff1602179055507fb532073b38c83145e3e5135377a08bf9aab55bc0fd7c1179cd4fb995d2a5159c60008260405162000136929190620002e4565b60405180910390a15080600a60006101000a81548173ffffffffffffffffffffffffffffffffffffffff021916908373ffffffffffffffffffffffffffffffffffffffff1602179055504260808181525050426005819055506000600681905550505062000311565b600080fd5b600073ffffffffffffffffffffffffffffffffffffffff82169050919050565b6000620001d182620001a4565b9050919050565b620001e381620001c4565b8114620001ef57600080fd5b50565b6000815190506200020381620001d8565b92915050565b600080604083850312156200022357620002226200019f565b5b60006200023385828601620001f2565b92505060206200024685828601620001f2565b9150509250929050565b600082825260208201905092915050565b7f4f776e657220616464726573732063616e6e6f74206265203000000000000000600082015250565b60006200029960198362000250565b9150620002a68262000261565b602082019050919050565b60006020820190508181036000830152620002cc816200028a565b9050919050565b620002de81620001c4565b82525050565b6000604082019050620002fb6000830185620002d3565b6200030a6020830184620002d3565b9392505050565b6080516128466200033460003960008181610d02015261196b01526128466000f3fe608060405234801561001057600080fd5b506004361061021c5760003560e01c80637c06055711610125578063be1ff71e116100ad578063cdb61fdd1161007c578063cdb61fdd146105af578063d3bd4bde146105cd578063dbd3a6a7146105eb578063df5a9fc114610609578063f9fad053146106275761021c565b8063be1ff71e14610539578063be801f0114610557578063c259c88214610575578063cc5c095c146105915761021c565b8063a46eddcf116100f4578063a46eddcf14610493578063ad18e97e146104af578063b3b2bcc0146104cd578063badef30a146104fd578063bccdd0301461051b5761021c565b80637c0605571461041d5780638da5cb5b1461043b5780639bdd7ac7146104595780639df92eb7146104775761021c565b806346872a23116101a857806353a47bb71161017757806353a47bb71461039f57806364b87a70146103bd578063689fccc6146103db5780636fb83a57146103f757806379ba5097146104135761021c565b806346872a231461031757806346b45af7146103355780634ae26521146103535780634e070f501461036f5761021c565b8063238fb77f116101ef578063238fb77f14610283578063251330f11461029f57806325542064146102bd57806326f75e05146102db5780632ff2e9dc146102f95761021c565b80631249c58b146102215780631627540c1461022b5780631de40e491461024757806322af2bab14610265575b600080fd5b610229610645565b005b61024560048036038101906102409190611be8565b610b63565b005b61024f610be6565b60405161025c9190611c2e565b60405180910390f35b61026d610bf1565b60405161027a9190611c2e565b60405180910390f35b61029d60048036038101906102989190611be8565b610bfe565b005b6102a7610cf0565b6040516102b49190611c65565b60405180910390f35b6102c5610cf5565b6040516102d29190611c2e565b60405180910390f35b6102e3610d00565b6040516102f09190611c2e565b60405180910390f35b610301610d24565b60405161030e9190611c2e565b60405180910390f35b61031f610d33565b60405161032c9190611c2e565b60405180910390f35b61033d610d3a565b60405161034a9190611c9b565b60405180910390f35b61036d60048036038101906103689190611ce2565b610d54565b005b61038960048036038101906103849190611ce2565b610deb565b6040516103969190611c2e565b60405180910390f35b6103a7610ed1565b6040516103b49190611d1e565b60405180910390f35b6103c5610ef7565b6040516103d29190611d98565b60405180910390f35b6103f560048036038101906103f09190611ce2565b610f1d565b005b610411600480360381019061040c9190611be8565b610fb7565b005b61041b6110a9565b005b61042561125a565b6040516104329190611c65565b60405180910390f35b61044361125f565b6040516104509190611d1e565b60405180910390f35b610461611283565b60405161046e9190611c2e565b60405180910390f35b610491600480360381019061048c9190611ce2565b611289565b005b6104ad60048036038101906104a89190611be8565b611323565b005b6104b7611437565b6040516104c49190611d1e565b60405180910390f35b6104e760048036038101906104e29190611db3565b61145d565b6040516104f49190611c2e565b60405180910390f35b610505611592565b6040516105129190611c2e565b60405180910390f35b6105236115c5565b6040516105309190611c2e565b60405180910390f35b6105416115cb565b60405161054e9190611c2e565b60405180910390f35b61055f6115d1565b60405161056c9190611c2e565b60405180910390f35b61058f600480360381019061058a9190611e31565b6115d7565b005b6105996116eb565b6040516105a69190611c2e565b60405180910390f35b6105b76118b2565b6040516105c49190611e7f565b60405180910390f35b6105d56118d8565b6040516105e29190611c2e565b60405180910390f35b6105f36118de565b6040516106009190611c2e565b60405180910390f35b610611611906565b60405161061e9190611c2e565b60405180910390f35b61062f61190d565b60405161063c9190611ebb565b60405180910390f35b600073ffffffffffffffffffffffffffffffffffffffff16600360009054906101000a900473ffffffffffffffffffffffffffffffffffffffff1673ffffffffffffffffffffffffffffffffffffffff16036106d6576040517f08c379a00000000000000000000000000000000000000000000000000000000081526004016106cd90611f33565b60405180910390fd5b600073ffffffffffffffffffffffffffffffffffffffff16600460009054906101000a900473ffffffffffffffffffffffffffffffffffffffff1673ffffffffffffffffffffffffffffffffffffffff1603610767576040517f08c379a000000000000000000000000000000000000000000000000000000000815260040161075e90611f9f565b60405180910390fd5b60006107716116eb565b9050600081116107b6576040517f08c379a00000000000000000000000000000000000000000000000000000000081526004016107ad9061200b565b60405180910390fd5b6107bf81611933565b506000600754826107d0919061205a565b90506000612710600854836107e5919061208e565b6107ef91906120ff565b9050600061271060095484610804919061208e565b61080e91906120ff565b9050600081838561081f919061205a565b610829919061205a565b9050600260009054906101000a900473ffffffffffffffffffffffffffffffffffffffff1673ffffffffffffffffffffffffffffffffffffffff166340c10f19600a60009054906101000a900473ffffffffffffffffffffffffffffffffffffffff16856040518363ffffffff1660e01b81526004016108aa929190612130565b600060405180830381600087803b1580156108c457600080fd5b505af11580156108d8573d6000803e3d6000fd5b50505050600260009054906101000a900473ffffffffffffffffffffffffffffffffffffffff1673ffffffffffffffffffffffffffffffffffffffff166340c10f19600460009054906101000a900473ffffffffffffffffffffffffffffffffffffffff16846040518363ffffffff1660e01b815260040161095b929190612130565b600060405180830381600087803b15801561097557600080fd5b505af1158015610989573d6000803e3d6000fd5b50505050600260009054906101000a900473ffffffffffffffffffffffffffffffffffffffff1673ffffffffffffffffffffffffffffffffffffffff166340c10f19600360009054906101000a900473ffffffffffffffffffffffffffffffffffffffff16836040518363ffffffff1660e01b8152600401610a0c929190612130565b600060405180830381600087803b158015610a2657600080fd5b505af1158015610a3a573d6000803e3d6000fd5b50505050600360009054906101000a900473ffffffffffffffffffffffffffffffffffffffff1673ffffffffffffffffffffffffffffffffffffffff16633c6b16ab826040518263ffffffff1660e01b8152600401610a999190611c2e565b600060405180830381600087803b158015610ab357600080fd5b505af1158015610ac7573d6000803e3d6000fd5b50505050600260009054906101000a900473ffffffffffffffffffffffffffffffffffffffff1673ffffffffffffffffffffffffffffffffffffffff166340c10f19336007546040518363ffffffff1660e01b8152600401610b2a929190612130565b600060405180830381600087803b158015610b4457600080fd5b505af1158015610b58573d6000803e3d6000fd5b505050505050505050565b610b6b6119eb565b80600160006101000a81548173ffffffffffffffffffffffffffffffffffffffff021916908373ffffffffffffffffffffffffffffffffffffffff1602179055507f906a1c6bd7e3091ea86693dd029a831c19049ce77f1dce2ce0bab1cacbabce2281604051610bdb9190611d1e565b60405180910390a150565b6648d4a431e5400081565b6801158e460913d0000081565b610c066119eb565b600073ffffffffffffffffffffffffffffffffffffffff168173ffffffffffffffffffffffffffffffffffffffff1603610c75576040517f08c379a0000000000000000000000000000000000000000000000000000000008152600401610c6c906121a5565b60405180910390fd5b80600460006101000a81548173ffffffffffffffffffffffffffffffffffffffff021916908373ffffffffffffffffffffffffffffffffffffffff1602179055507f2600f737e588eec1a845714266bf64b2f65c9d3f624e452a2b64611c33108ab081604051610ce59190611d1e565b60405180910390a150565b600281565b662386f26fc1000081565b7f000000000000000000000000000000000000000000000000000000000000000081565b6a14adf4b7320334b900000081565b6201518081565b600062093a8060055442610d4e919061205a565b11905090565b610d5c6119eb565b6801158e460913d00000811115610da8576040517f08c379a0000000000000000000000000000000000000000000000000000000008152600401610d9f90612237565b60405180910390fd5b806007819055507f036e0c635f8b7d9314bb6f2a577046108ef0f8b5e3869fbd29fd5a448ed99d30600754604051610de09190611c2e565b60405180910390a150565b600080610e7f836648d4a431e5400073__$eafab6a382253e3d4dc0e94de940bead68$__63907af6c06040518163ffffffff1660e01b8152600401602060405180830381865af4158015610e43573d6000803e3d6000fd5b505050506040513d601f19601f82011682018060405250810190610e67919061226c565b610e71919061205a565b611a7b90919063ffffffff16565b90506000610ec5826034606460f06a14adf4b7320334b9000000610ea3919061208e565b610ead91906120ff565b610eb791906120ff565b611b5490919063ffffffff16565b90508092505050919050565b600160009054906101000a900473ffffffffffffffffffffffffffffffffffffffff1681565b600360009054906101000a900473ffffffffffffffffffffffffffffffffffffffff1681565b610f256119eb565b61271060085482610f369190612299565b10610f76576040517f08c379a0000000000000000000000000000000000000000000000000000000008152600401610f6d9061233f565b60405180910390fd5b806009819055507f3a6b6f816fda56a9f48af157a6f60d156254bc01c34e04fd31583013fb00a67f81604051610fac9190611c2e565b60405180910390a150565b610fbf6119eb565b600073ffffffffffffffffffffffffffffffffffffffff168173ffffffffffffffffffffffffffffffffffffffff160361102e576040517f08c379a0000000000000000000000000000000000000000000000000000000008152600401611025906121a5565b60405180910390fd5b80600360006101000a81548173ffffffffffffffffffffffffffffffffffffffff021916908373ffffffffffffffffffffffffffffffffffffffff1602179055507f551390b523f91b5d9df0281cbb04db779545fbfa265f5fcde47668f4d4e160068160405161109e9190611d1e565b60405180910390a150565b600160009054906101000a900473ffffffffffffffffffffffffffffffffffffffff1673ffffffffffffffffffffffffffffffffffffffff163373ffffffffffffffffffffffffffffffffffffffff1614611139576040517f08c379a0000000000000000000000000000000000000000000000000000000008152600401611130906123d1565b60405180910390fd5b7fb532073b38c83145e3e5135377a08bf9aab55bc0fd7c1179cd4fb995d2a5159c60008054906101000a900473ffffffffffffffffffffffffffffffffffffffff16600160009054906101000a900473ffffffffffffffffffffffffffffffffffffffff166040516111ac9291906123f1565b60405180910390a1600160009054906101000a900473ffffffffffffffffffffffffffffffffffffffff166000806101000a81548173ffffffffffffffffffffffffffffffffffffffff021916908373ffffffffffffffffffffffffffffffffffffffff1602179055506000600160006101000a81548173ffffffffffffffffffffffffffffffffffffffff021916908373ffffffffffffffffffffffffffffffffffffffff160217905550565b60d081565b60008054906101000a900473ffffffffffffffffffffffffffffffffffffffff1681565b60075481565b6112916119eb565b612710600954826112a29190612299565b106112e2576040517f08c379a00000000000000000000000000000000000000000000000000000000081526004016112d99061233f565b60405180910390fd5b806008819055507f57a9cd79e547e62257530ed181309acb795c4e6aab927735a3e2afe2ac4d9309816040516113189190611c2e565b60405180910390a150565b61132b6119eb565b600073ffffffffffffffffffffffffffffffffffffffff168173ffffffffffffffffffffffffffffffffffffffff160361139a576040517f08c379a000000000000000000000000000000000000000000000000000000000815260040161139190612466565b60405180910390fd5b80600a60006101000a81548173ffffffffffffffffffffffffffffffffffffffff021916908373ffffffffffffffffffffffffffffffffffffffff1602179055507fd780e06c55efd6b3157e8c26704d2fd7bd2750bd9d0e71d2e5f675572dfad7a2600a60009054906101000a900473ffffffffffffffffffffffffffffffffffffffff1660405161142c9190611d1e565b60405180910390a150565b600a60009054906101000a900473ffffffffffffffffffffffffffffffffffffffff1681565b6000806114fd836034662386f26fc1000061147891906120ff565b73__$eafab6a382253e3d4dc0e94de940bead68$__63907af6c06040518163ffffffff1660e01b8152600401602060405180830381865af41580156114c1573d6000803e3d6000fd5b505050506040513d601f19601f820116820180604052508101906114e5919061226c565b6114ef9190612299565b611a7b90919063ffffffff16565b905061158973__$eafab6a382253e3d4dc0e94de940bead68$__63907af6c06040518163ffffffff1660e01b8152600401602060405180830381865af415801561154b573d6000803e3d6000fd5b505050506040513d601f19601f8201168201806040525081019061156f919061226c565b8261157a919061205a565b85611b5490919063ffffffff16565b91505092915050565b6034606460f06a14adf4b7320334b90000006115ae919061208e565b6115b891906120ff565b6115c291906120ff565b81565b60085481565b60095481565b60055481565b6115df6119eb565b600073ffffffffffffffffffffffffffffffffffffffff168173ffffffffffffffffffffffffffffffffffffffff160361164e576040517f08c379a0000000000000000000000000000000000000000000000000000000008152600401611645906124d2565b60405180910390fd5b80600260006101000a81548173ffffffffffffffffffffffffffffffffffffffff021916908373ffffffffffffffffffffffffffffffffffffffff1602179055507feb83b1dd8b810073d77f64dffa39b1fea87c13dc8b2138b43d72633d9ef32df0600260009054906101000a900473ffffffffffffffffffffffffffffffffffffffff166040516116e09190611d1e565b60405180910390a150565b6000806116f6610d3a565b61170357809150506118af565b600061170d6118de565b9050600060065490505b60008211156118a857808061172b906124f2565b915050600260ff1681101561178a576034606460f06a14adf4b7320334b9000000611756919061208e565b61176091906120ff565b61176a91906120ff565b836117759190612299565b925081806117829061253a565b9250506118a3565b60d060ff1681116117df576000600160026117a59190612563565b60ff16826117b3919061205a565b90506117be81610deb565b846117c99190612299565b935082806117d69061253a565b935050506118a2565b6000600260009054906101000a900473ffffffffffffffffffffffffffffffffffffffff1673ffffffffffffffffffffffffffffffffffffffff166318160ddd6040518163ffffffff1660e01b8152600401602060405180830381865afa15801561184e573d6000803e3d6000fd5b505050506040513d601f19601f82011682018060405250810190611872919061226c565b9050600084826118829190612299565b905061188e818561145d565b856118999190612299565b94506000935050505b5b611717565b8293505050505b90565b600260009054906101000a900473ffffffffffffffffffffffffffffffffffffffff1681565b60065481565b600080600554426118ef919061205a565b905062093a808161190091906120ff565b91505090565b62093a8081565b600460009054906101000a900473ffffffffffffffffffffffffffffffffffffffff1681565b60008061193e6118de565b90508060065461194e9190612299565b6006819055506201518062093a80600654611969919061208e565b7f00000000000000000000000000000000000000000000000000000000000000006119949190612299565b61199e9190612299565b6005819055507feae287c62f1ff4911334dee03f631d5dded5284b1b03ea7bc1d6282916c7249f83826005546040516119d993929190612598565b60405180910390a16001915050919050565b60008054906101000a900473ffffffffffffffffffffffffffffffffffffffff1673ffffffffffffffffffffffffffffffffffffffff163373ffffffffffffffffffffffffffffffffffffffff1614611a79576040517f08c379a0000000000000000000000000000000000000000000000000000000008152600401611a7090612641565b60405180910390fd5b565b60008073__$eafab6a382253e3d4dc0e94de940bead68$__63907af6c06040518163ffffffff1660e01b8152600401602060405180830381865af4158015611ac7573d6000803e3d6000fd5b505050506040513d601f19601f82011682018060405250810190611aeb919061226c565b90505b6000831115611b4a576000600284611b069190612661565b14611b2157611b1e8482611b5490919063ffffffff16565b90505b611b348485611b5490919063ffffffff16565b9350600283611b4391906120ff565b9250611aee565b8091505092915050565b6000601260ff16600a611b6791906127c5565b8284611b73919061208e565b611b7d91906120ff565b905092915050565b600080fd5b600073ffffffffffffffffffffffffffffffffffffffff82169050919050565b6000611bb582611b8a565b9050919050565b611bc581611baa565b8114611bd057600080fd5b50565b600081359050611be281611bbc565b92915050565b600060208284031215611bfe57611bfd611b85565b5b6000611c0c84828501611bd3565b91505092915050565b6000819050919050565b611c2881611c15565b82525050565b6000602082019050611c436000830184611c1f565b92915050565b600060ff82169050919050565b611c5f81611c49565b82525050565b6000602082019050611c7a6000830184611c56565b92915050565b60008115159050919050565b611c9581611c80565b82525050565b6000602082019050611cb06000830184611c8c565b92915050565b611cbf81611c15565b8114611cca57600080fd5b50565b600081359050611cdc81611cb6565b92915050565b600060208284031215611cf857611cf7611b85565b5b6000611d0684828501611ccd565b91505092915050565b611d1881611baa565b82525050565b6000602082019050611d336000830184611d0f565b92915050565b6000819050919050565b6000611d5e611d59611d5484611b8a565b611d39565b611b8a565b9050919050565b6000611d7082611d43565b9050919050565b6000611d8282611d65565b9050919050565b611d9281611d77565b82525050565b6000602082019050611dad6000830184611d89565b92915050565b60008060408385031215611dca57611dc9611b85565b5b6000611dd885828601611ccd565b9250506020611de985828601611ccd565b9150509250929050565b6000611dfe82611baa565b9050919050565b611e0e81611df3565b8114611e1957600080fd5b50565b600081359050611e2b81611e05565b92915050565b600060208284031215611e4757611e46611b85565b5b6000611e5584828501611e1c565b91505092915050565b6000611e6982611d65565b9050919050565b611e7981611e5e565b82525050565b6000602082019050611e946000830184611e70565b92915050565b6000611ea582611d65565b9050919050565b611eb581611e9a565b82525050565b6000602082019050611ed06000830184611eac565b92915050565b600082825260208201905092915050565b7f5374616b696e672072657761726473206e6f7420736574000000000000000000600082015250565b6000611f1d601783611ed6565b9150611f2882611ee7565b602082019050919050565b60006020820190508181036000830152611f4c81611f10565b9050919050565b7f54726164696e672072657761726473206e6f7420736574000000000000000000600082015250565b6000611f89601783611ed6565b9150611f9482611f53565b602082019050919050565b60006020820190508181036000830152611fb881611f7c565b9050919050565b7f4e6f20737570706c79206973206d696e7461626c650000000000000000000000600082015250565b6000611ff5601583611ed6565b915061200082611fbf565b602082019050919050565b6000602082019050818103600083015261202481611fe8565b9050919050565b7f4e487b7100000000000000000000000000000000000000000000000000000000600052601160045260246000fd5b600061206582611c15565b915061207083611c15565b92508282039050818111156120885761208761202b565b5b92915050565b600061209982611c15565b91506120a483611c15565b92508282026120b281611c15565b915082820484148315176120c9576120c861202b565b5b5092915050565b7f4e487b7100000000000000000000000000000000000000000000000000000000600052601260045260246000fd5b600061210a82611c15565b915061211583611c15565b925082612125576121246120d0565b5b828204905092915050565b60006040820190506121456000830185611d0f565b6121526020830184611c1f565b9392505050565b7f537570706c795363686564756c653a20496e76616c6964204164647265737300600082015250565b600061218f601f83611ed6565b915061219a82612159565b602082019050919050565b600060208201905081810360008301526121be81612182565b9050919050565b7f537570706c795363686564756c653a205265776172642063616e6e6f7420657860008201527f63656564206d6178206d696e7465722072657761726400000000000000000000602082015250565b6000612221603683611ed6565b915061222c826121c5565b604082019050919050565b6000602082019050818103600083015261225081612214565b9050919050565b60008151905061226681611cb6565b92915050565b60006020828403121561228257612281611b85565b5b600061229084828501612257565b91505092915050565b60006122a482611c15565b91506122af83611c15565b92508282019050808211156122c7576122c661202b565b5b92915050565b7f537570706c795363686564756c653a2043616e6e6f74206265206d6f7265207460008201527f68616e2031303025000000000000000000000000000000000000000000000000602082015250565b6000612329602883611ed6565b9150612334826122cd565b604082019050919050565b600060208201905081810360008301526123588161231c565b9050919050565b7f596f75206d757374206265206e6f6d696e61746564206265666f726520796f7560008201527f2063616e20616363657074206f776e6572736869700000000000000000000000602082015250565b60006123bb603583611ed6565b91506123c68261235f565b604082019050919050565b600060208201905081810360008301526123ea816123ae565b9050919050565b60006040820190506124066000830185611d0f565b6124136020830184611d0f565b9392505050565b7f537570706c795363686564756c653a205a65726f204164647265737300000000600082015250565b6000612450601c83611ed6565b915061245b8261241a565b602082019050919050565b6000602082019050818103600083015261247f81612443565b9050919050565b7f416464726573732063616e6e6f74206265203000000000000000000000000000600082015250565b60006124bc601383611ed6565b91506124c782612486565b602082019050919050565b600060208201905081810360008301526124eb816124af565b9050919050565b60006124fd82611c15565b91507fffffffffffffffffffffffffffffffffffffffffffffffffffffffffffffffff820361252f5761252e61202b565b5b600182019050919050565b600061254582611c15565b9150600082036125585761255761202b565b5b600182039050919050565b600061256e82611c49565b915061257983611c49565b9250828203905060ff8111156125925761259161202b565b5b92915050565b60006060820190506125ad6000830186611c1f565b6125ba6020830185611c1f565b6125c76040830184611c1f565b949350505050565b7f4f6e6c792074686520636f6e7472616374206f776e6572206d6179207065726660008201527f6f726d207468697320616374696f6e0000000000000000000000000000000000602082015250565b600061262b602f83611ed6565b9150612636826125cf565b604082019050919050565b6000602082019050818103600083015261265a8161261e565b9050919050565b600061266c82611c15565b915061267783611c15565b925082612687576126866120d0565b5b828206905092915050565b60008160011c9050919050565b6000808291508390505b60018511156126e9578086048111156126c5576126c461202b565b5b60018516156126d45780820291505b80810290506126e285612692565b94506126a9565b94509492505050565b60008261270257600190506127be565b8161271057600090506127be565b816001811461272657600281146127305761275f565b60019150506127be565b60ff8411156127425761274161202b565b5b8360020a9150848211156127595761275861202b565b5b506127be565b5060208310610133831016604e8410600b84101617156127945782820a90508381111561278f5761278e61202b565b5b6127be565b6127a1848484600161269f565b925090508184048111156127b8576127b761202b565b5b81810290505b9392505050565b60006127d082611c15565b91506127db83611c15565b92506128087fffffffffffffffffffffffffffffffffffffffffffffffffffffffffffffffff84846126f2565b90509291505056fea264697066735822122082831eb31f9d0316e1a8d2f34dfe05c0dafe3c9a801c68e0d6dadf1a5f3b2c6064736f6c63430008130033",
  "devdoc": {
    "kind": "dev",
    "methods": {
      "isMintable()": {
        "returns": {
          "_0": "boolean whether the MINT_PERIOD_DURATION (7 days) has passed since the lastMintEvent. "
        }
      },
      "mintableSupply()": {
        "returns": {
          "_0": "The amount of DTORO mintable for the inflationary supply"
        }
      },
      "setMinterReward(uint256)": {
        "params": {
          "amount": "the amount of DTORO to reward the minter. "
        }
      },
      "setTreasuryDAO(address)": {
        "details": "only owner may change address"
      },
      "terminalInflationSupply(uint256,uint256)": {
        "details": "Weekly compound rate based on number of weeks",
        "returns": {
          "_0": "A unit amount of terminal inflation supply"
        }
      },
      "tokenDecaySupplyForWeek(uint256)": {
        "details": "New token supply reduces by the decay rate each week calculated as supply = INITIAL_WEEKLY_SUPPLY * ()",
        "returns": {
          "_0": "A unit amount of decaying inflationary supply from the INITIAL_WEEKLY_SUPPLY"
        }
      },
      "weeksSinceLastIssuance()": {
        "details": "Take timeDiff in seconds (Dividend) and MINT_PERIOD_DURATION as (Divisor)",
        "returns": {
          "_0": "Calculate the numberOfWeeks since last mint rounded down to 1 week"
        }
      }
    },
    "version": 1
  },
  "userdoc": {
    "events": {
      "DexToroUpdated(address)": {
        "notice": "Emitted when setDexToro is called changing the DexToro Proxy address*"
      },
      "MinterRewardUpdated(uint256)": {
        "notice": "Emitted when the DTORO minter reward amount is updated*"
      },
      "StakingRewardsUpdated(address)": {
        "notice": "Emitted when StakingRewards is changed*"
      },
      "SupplyMinted(uint256,uint256,uint256)": {
        "notice": "Emitted when the inflationary supply is minted*"
      },
      "TradingRewardsDiversionUpdated(uint256)": {
        "notice": "Emitted when trading rewards inflation share is changed*"
      },
      "TradingRewardsUpdated(address)": {
        "notice": "Emitted when TradingRewards is changed*"
      },
      "TreasuryDAOSet(address)": {
        "notice": "Emitted when treasuryDAO address is changed*"
      },
      "TreasuryDiversionUpdated(uint256)": {
        "notice": "Emitted when treasury inflation share is changed*"
      }
    },
    "kind": "user",
    "methods": {
      "mint()": {
        "notice": "Mints new inflationary supply weekly New DTORO is distributed between the minter, treasury, and StakingRewards contract "
      },
      "setDexToro(address)": {
        "notice": "Set the DexToro should it ever change. SupplySchedule requires DexToro address as it has the authority to record mint event. "
      },
      "setMinterReward(uint256)": {
        "notice": "Sets the reward amount of DTORO for the caller of the public function DexToro.mint(). This incentivises anyone to mint the inflationary supply and the mintr Reward will be deducted from the inflationary supply and sent to the caller."
      },
      "setTreasuryDAO(address)": {
        "notice": "set treasuryDAO address"
      }
    },
    "version": 1
  },
  "storageLayout": {
    "storage": [
      {
        "astId": 17880,
        "contract": "contracts/SupplySchedule.sol:SupplySchedule",
        "label": "owner",
        "offset": 0,
        "slot": "0",
        "type": "t_address"
      },
      {
        "astId": 17882,
        "contract": "contracts/SupplySchedule.sol:SupplySchedule",
        "label": "nominatedOwner",
        "offset": 0,
        "slot": "1",
        "type": "t_address"
      },
      {
        "astId": 14119,
        "contract": "contracts/SupplySchedule.sol:SupplySchedule",
        "label": "dextoro",
        "offset": 0,
        "slot": "2",
        "type": "t_contract(IDexToro)15445"
      },
      {
        "astId": 14122,
        "contract": "contracts/SupplySchedule.sol:SupplySchedule",
        "label": "stakingRewards",
        "offset": 0,
        "slot": "3",
        "type": "t_contract(IStakingRewards)16536"
      },
      {
        "astId": 14125,
        "contract": "contracts/SupplySchedule.sol:SupplySchedule",
        "label": "tradingRewards",
        "offset": 0,
        "slot": "4",
        "type": "t_contract(IMultipleMerkleDistributor)15999"
      },
      {
        "astId": 14127,
        "contract": "contracts/SupplySchedule.sol:SupplySchedule",
        "label": "lastMintEvent",
        "offset": 0,
        "slot": "5",
        "type": "t_uint256"
      },
      {
        "astId": 14129,
        "contract": "contracts/SupplySchedule.sol:SupplySchedule",
        "label": "weekCounter",
        "offset": 0,
        "slot": "6",
        "type": "t_uint256"
      },
      {
        "astId": 14132,
        "contract": "contracts/SupplySchedule.sol:SupplySchedule",
        "label": "minterReward",
        "offset": 0,
        "slot": "7",
        "type": "t_uint256"
      },
      {
        "astId": 14172,
        "contract": "contracts/SupplySchedule.sol:SupplySchedule",
        "label": "treasuryDiversion",
        "offset": 0,
        "slot": "8",
        "type": "t_uint256"
      },
      {
        "astId": 14175,
        "contract": "contracts/SupplySchedule.sol:SupplySchedule",
        "label": "tradingRewardsDiversion",
        "offset": 0,
        "slot": "9",
        "type": "t_uint256"
      },
      {
        "astId": 14177,
        "contract": "contracts/SupplySchedule.sol:SupplySchedule",
        "label": "treasuryDAO",
        "offset": 0,
        "slot": "10",
        "type": "t_address"
      }
    ],
    "types": {
      "t_address": {
        "encoding": "inplace",
        "label": "address",
        "numberOfBytes": "20"
      },
      "t_contract(IDexToro)15445": {
        "encoding": "inplace",
        "label": "contract IDexToro",
        "numberOfBytes": "20"
      },
      "t_contract(IMultipleMerkleDistributor)15999": {
        "encoding": "inplace",
        "label": "contract IMultipleMerkleDistributor",
        "numberOfBytes": "20"
      },
      "t_contract(IStakingRewards)16536": {
        "encoding": "inplace",
        "label": "contract IStakingRewards",
        "numberOfBytes": "20"
      },
      "t_uint256": {
        "encoding": "inplace",
        "label": "uint256",
        "numberOfBytes": "32"
      }
    }
  }
}