{
  "address": "0x77A5BE78380E0B032ed146785155eFDe1ea393d9",
  "abi": [
    {
      "inputs": [
        {
          "internalType": "address",
          "name": "_owner",
          "type": "address"
        },
        {
          "internalType": "address",
          "name": "_treasuryDAO",
          "type": "address"
        }
      ],
      "stateMutability": "nonpayable",
      "type": "constructor"
    },
    {
      "anonymous": false,
      "inputs": [
        {
          "indexed": false,
          "internalType": "address",
          "name": "newAddress",
          "type": "address"
        }
      ],
      "name": "DexToroUpdated",
      "type": "event"
    },
    {
      "anonymous": false,
      "inputs": [
        {
          "indexed": false,
          "internalType": "uint256",
          "name": "newRewardAmount",
          "type": "uint256"
        }
      ],
      "name": "MinterRewardUpdated",
      "type": "event"
    },
    {
      "anonymous": false,
      "inputs": [
        {
          "indexed": false,
          "internalType": "address",
          "name": "oldOwner",
          "type": "address"
        },
        {
          "indexed": false,
          "internalType": "address",
          "name": "newOwner",
          "type": "address"
        }
      ],
      "name": "OwnerChanged",
      "type": "event"
    },
    {
      "anonymous": false,
      "inputs": [
        {
          "indexed": false,
          "internalType": "address",
          "name": "newOwner",
          "type": "address"
        }
      ],
      "name": "OwnerNominated",
      "type": "event"
    },
    {
      "anonymous": false,
      "inputs": [
        {
          "indexed": false,
          "internalType": "address",
          "name": "newAddress",
          "type": "address"
        }
      ],
      "name": "StakingRewardsUpdated",
      "type": "event"
    },
    {
      "anonymous": false,
      "inputs": [
        {
          "indexed": false,
          "internalType": "uint256",
          "name": "supplyMinted",
          "type": "uint256"
        },
        {
          "indexed": false,
          "internalType": "uint256",
          "name": "numberOfWeeksIssued",
          "type": "uint256"
        },
        {
          "indexed": false,
          "internalType": "uint256",
          "name": "lastMintEvent",
          "type": "uint256"
        }
      ],
      "name": "SupplyMinted",
      "type": "event"
    },
    {
      "anonymous": false,
      "inputs": [
        {
          "indexed": false,
          "internalType": "uint256",
          "name": "newPercentage",
          "type": "uint256"
        }
      ],
      "name": "TradingRewardsDiversionUpdated",
      "type": "event"
    },
    {
      "anonymous": false,
      "inputs": [
        {
          "indexed": false,
          "internalType": "address",
          "name": "newAddress",
          "type": "address"
        }
      ],
      "name": "TradingRewardsUpdated",
      "type": "event"
    },
    {
      "anonymous": false,
      "inputs": [
        {
          "indexed": false,
          "internalType": "address",
          "name": "treasuryDAO",
          "type": "address"
        }
      ],
      "name": "TreasuryDAOSet",
      "type": "event"
    },
    {
      "anonymous": false,
      "inputs": [
        {
          "indexed": false,
          "internalType": "uint256",
          "name": "newPercentage",
          "type": "uint256"
        }
      ],
      "name": "TreasuryDiversionUpdated",
      "type": "event"
    },
    {
      "inputs": [],
      "name": "DECAY_RATE",
      "outputs": [
        {
          "internalType": "uint256",
          "name": "",
          "type": "uint256"
        }
      ],
      "stateMutability": "view",
      "type": "function"
    },
    {
      "inputs": [],
      "name": "INITIAL_SUPPLY",
      "outputs": [
        {
          "internalType": "uint256",
          "name": "",
          "type": "uint256"
        }
      ],
      "stateMutability": "view",
      "type": "function"
    },
    {
      "inputs": [],
      "name": "INITIAL_WEEKLY_SUPPLY",
      "outputs": [
        {
          "internalType": "uint256",
          "name": "",
          "type": "uint256"
        }
      ],
      "stateMutability": "view",
      "type": "function"
    },
    {
      "inputs": [],
      "name": "MAX_MINTER_REWARD",
      "outputs": [
        {
          "internalType": "uint256",
          "name": "",
          "type": "uint256"
        }
      ],
      "stateMutability": "view",
      "type": "function"
    },
    {
      "inputs": [],
      "name": "MINT_BUFFER",
      "outputs": [
        {
          "internalType": "uint256",
          "name": "",
          "type": "uint256"
        }
      ],
      "stateMutability": "view",
      "type": "function"
    },
    {
      "inputs": [],
      "name": "MINT_PERIOD_DURATION",
      "outputs": [
        {
          "internalType": "uint256",
          "name": "",
          "type": "uint256"
        }
      ],
      "stateMutability": "view",
      "type": "function"
    },
    {
      "inputs": [],
      "name": "SUPPLY_DECAY_END",
      "outputs": [
        {
          "internalType": "uint8",
          "name": "",
          "type": "uint8"
        }
      ],
      "stateMutability": "view",
      "type": "function"
    },
    {
      "inputs": [],
      "name": "SUPPLY_DECAY_START",
      "outputs": [
        {
          "internalType": "uint8",
          "name": "",
          "type": "uint8"
        }
      ],
      "stateMutability": "view",
      "type": "function"
    },
    {
      "inputs": [],
      "name": "TERMINAL_SUPPLY_RATE_ANNUAL",
      "outputs": [
        {
          "internalType": "uint256",
          "name": "",
          "type": "uint256"
        }
      ],
      "stateMutability": "view",
      "type": "function"
    },
    {
      "inputs": [],
      "name": "acceptOwnership",
      "outputs": [],
      "stateMutability": "nonpayable",
      "type": "function"
    },
    {
      "inputs": [],
      "name": "dextoro",
      "outputs": [
        {
          "internalType": "contract IDexToro",
          "name": "",
          "type": "address"
        }
      ],
      "stateMutability": "view",
      "type": "function"
    },
    {
      "inputs": [],
      "name": "inflationStartDate",
      "outputs": [
        {
          "internalType": "uint256",
          "name": "",
          "type": "uint256"
        }
      ],
      "stateMutability": "view",
      "type": "function"
    },
    {
      "inputs": [],
      "name": "isMintable",
      "outputs": [
        {
          "internalType": "bool",
          "name": "",
          "type": "bool"
        }
      ],
      "stateMutability": "view",
      "type": "function"
    },
    {
      "inputs": [],
      "name": "lastMintEvent",
      "outputs": [
        {
          "internalType": "uint256",
          "name": "",
          "type": "uint256"
        }
      ],
      "stateMutability": "view",
      "type": "function"
    },
    {
      "inputs": [],
      "name": "mint",
      "outputs": [],
      "stateMutability": "nonpayable",
      "type": "function"
    },
    {
      "inputs": [],
      "name": "mintableSupply",
      "outputs": [
        {
          "internalType": "uint256",
          "name": "",
          "type": "uint256"
        }
      ],
      "stateMutability": "view",
      "type": "function"
    },
    {
      "inputs": [],
      "name": "minterReward",
      "outputs": [
        {
          "internalType": "uint256",
          "name": "",
          "type": "uint256"
        }
      ],
      "stateMutability": "view",
      "type": "function"
    },
    {
      "inputs": [
        {
          "internalType": "address",
          "name": "_owner",
          "type": "address"
        }
      ],
      "name": "nominateNewOwner",
      "outputs": [],
      "stateMutability": "nonpayable",
      "type": "function"
    },
    {
      "inputs": [],
      "name": "nominatedOwner",
      "outputs": [
        {
          "internalType": "address",
          "name": "",
          "type": "address"
        }
      ],
      "stateMutability": "view",
      "type": "function"
    },
    {
      "inputs": [],
      "name": "owner",
      "outputs": [
        {
          "internalType": "address",
          "name": "",
          "type": "address"
        }
      ],
      "stateMutability": "view",
      "type": "function"
    },
    {
      "inputs": [
        {
          "internalType": "contract IDexToro",
          "name": "_dextoro",
          "type": "address"
        }
      ],
      "name": "setDexToro",
      "outputs": [],
      "stateMutability": "nonpayable",
      "type": "function"
    },
    {
      "inputs": [
        {
          "internalType": "uint256",
          "name": "amount",
          "type": "uint256"
        }
      ],
      "name": "setMinterReward",
      "outputs": [],
      "stateMutability": "nonpayable",
      "type": "function"
    },
    {
      "inputs": [
        {
          "internalType": "address",
          "name": "_stakingRewards",
          "type": "address"
        }
      ],
      "name": "setStakingRewards",
      "outputs": [],
      "stateMutability": "nonpayable",
      "type": "function"
    },
    {
      "inputs": [
        {
          "internalType": "address",
          "name": "_tradingRewards",
          "type": "address"
        }
      ],
      "name": "setTradingRewards",
      "outputs": [],
      "stateMutability": "nonpayable",
      "type": "function"
    },
    {
      "inputs": [
        {
          "internalType": "uint256",
          "name": "_tradingRewardsDiversion",
          "type": "uint256"
        }
      ],
      "name": "setTradingRewardsDiversion",
      "outputs": [],
      "stateMutability": "nonpayable",
      "type": "function"
    },
    {
      "inputs": [
        {
          "internalType": "address",
          "name": "_treasuryDAO",
          "type": "address"
        }
      ],
      "name": "setTreasuryDAO",
      "outputs": [],
      "stateMutability": "nonpayable",
      "type": "function"
    },
    {
      "inputs": [
        {
          "internalType": "uint256",
          "name": "_treasuryDiversion",
          "type": "uint256"
        }
      ],
      "name": "setTreasuryDiversion",
      "outputs": [],
      "stateMutability": "nonpayable",
      "type": "function"
    },
    {
      "inputs": [],
      "name": "stakingRewards",
      "outputs": [
        {
          "internalType": "contract IStakingRewards",
          "name": "",
          "type": "address"
        }
      ],
      "stateMutability": "view",
      "type": "function"
    },
    {
      "inputs": [
        {
          "internalType": "uint256",
          "name": "totalSupply",
          "type": "uint256"
        },
        {
          "internalType": "uint256",
          "name": "numOfWeeks",
          "type": "uint256"
        }
      ],
      "name": "terminalInflationSupply",
      "outputs": [
        {
          "internalType": "uint256",
          "name": "",
          "type": "uint256"
        }
      ],
      "stateMutability": "pure",
      "type": "function"
    },
    {
      "inputs": [
        {
          "internalType": "uint256",
          "name": "counter",
          "type": "uint256"
        }
      ],
      "name": "tokenDecaySupplyForWeek",
      "outputs": [
        {
          "internalType": "uint256",
          "name": "",
          "type": "uint256"
        }
      ],
      "stateMutability": "pure",
      "type": "function"
    },
    {
      "inputs": [],
      "name": "tradingRewards",
      "outputs": [
        {
          "internalType": "address",
          "name": "",
          "type": "address"
        }
      ],
      "stateMutability": "view",
      "type": "function"
    },
    {
      "inputs": [],
      "name": "tradingRewardsDiversion",
      "outputs": [
        {
          "internalType": "uint256",
          "name": "",
          "type": "uint256"
        }
      ],
      "stateMutability": "view",
      "type": "function"
    },
    {
      "inputs": [],
      "name": "treasuryDAO",
      "outputs": [
        {
          "internalType": "address",
          "name": "",
          "type": "address"
        }
      ],
      "stateMutability": "view",
      "type": "function"
    },
    {
      "inputs": [],
      "name": "treasuryDiversion",
      "outputs": [
        {
          "internalType": "uint256",
          "name": "",
          "type": "uint256"
        }
      ],
      "stateMutability": "view",
      "type": "function"
    },
    {
      "inputs": [],
      "name": "weekCounter",
      "outputs": [
        {
          "internalType": "uint256",
          "name": "",
          "type": "uint256"
        }
      ],
      "stateMutability": "view",
      "type": "function"
    },
    {
      "inputs": [],
      "name": "weeksSinceLastIssuance",
      "outputs": [
        {
          "internalType": "uint256",
          "name": "",
          "type": "uint256"
        }
      ],
      "stateMutability": "view",
      "type": "function"
    }
  ],
  "numDeployments": 1,
  "solcInputHash": "9cd2b31d0e3cba1e11ec51f6d1e7e30f",
  "bytecode": "0x60a0604052670de0b6b3a76400006007556107d06008556107d06009553480156200002957600080fd5b50604051620018c1380380620018c18339810160408190526200004c9162000152565b816001600160a01b038116620000a85760405162461bcd60e51b815260206004820152601960248201527f4f776e657220616464726573732063616e6e6f74206265203000000000000000604482015260640160405180910390fd5b600080546001600160a01b0319166001600160a01b03831690811782556040805192835260208301919091527fb532073b38c83145e3e5135377a08bf9aab55bc0fd7c1179cd4fb995d2a5159c910160405180910390a150600a80546001600160a01b0319166001600160a01b03929092169190911790555042608081905260055560006006556200018a565b80516001600160a01b03811681146200014d57600080fd5b919050565b600080604083850312156200016657600080fd5b620001718362000135565b9150620001816020840162000135565b90509250929050565b608051611714620001ad600039600081816102ef01526112b001526117146000f3fe608060405234801561001057600080fd5b506004361061025c5760003560e01c80637c06055711610145578063be1ff71e116100bd578063cdb61fdd1161008c578063dbd3a6a711610071578063dbd3a6a7146104a1578063df5a9fc1146104a9578063f9fad053146104b357600080fd5b8063cdb61fdd14610485578063d3bd4bde1461049857600080fd5b8063be1ff71e14610458578063be801f0114610461578063c259c8821461046a578063cc5c095c1461047d57600080fd5b8063a46eddcf11610114578063b3b2bcc0116100f9578063b3b2bcc014610434578063badef30a14610447578063bccdd0301461044f57600080fd5b8063a46eddcf1461040e578063ad18e97e1461042157600080fd5b80637c060557146103d75780638da5cb5b146103df5780639bdd7ac7146103f25780639df92eb7146103fb57600080fd5b806346872a23116101d857806353a47bb7116101a7578063689fccc61161018c578063689fccc6146103a95780636fb83a57146103bc57806379ba5097146103cf57600080fd5b806353a47bb71461036b57806364b87a701461039657600080fd5b806346872a231461032357806346b45af71461032d5780634ae26521146103455780634e070f501461035857600080fd5b8063238fb77f1161022f578063255420641161021457806325542064146102dc57806326f75e05146102ea5780632ff2e9dc1461031157600080fd5b8063238fb77f146102af578063251330f1146102c257600080fd5b80631249c58b146102615780631627540c1461026b5780631de40e491461027e57806322af2bab1461029f575b600080fd5b6102696104c6565b005b6102696102793660046114a3565b61086c565b61028c6648d4a431e5400081565b6040519081526020015b60405180910390f35b61028c6801158e460913d0000081565b6102696102bd3660046114a3565b6108c9565b6102ca600281565b60405160ff9091168152602001610296565b61028c662386f26fc1000081565b61028c7f000000000000000000000000000000000000000000000000000000000000000081565b61028c6a14adf4b7320334b900000081565b61028c6201518081565b610335610975565b6040519015158152602001610296565b6102696103533660046114c0565b61098f565b61028c6103663660046114c0565b610a4b565b60015461037e906001600160a01b031681565b6040516001600160a01b039091168152602001610296565b60035461037e906001600160a01b031681565b6102696103b73660046114c0565b610b1b565b6102696103ca3660046114a3565b610bc7565b610269610c73565b6102ca60d081565b60005461037e906001600160a01b031681565b61028c60075481565b6102696104093660046114c0565b610d65565b61026961041c3660046114a3565b610e11565b600a5461037e906001600160a01b031681565b61028c6104423660046114d9565b610ebd565b61028c610fda565b61028c60085481565b61028c60095481565b61028c60055481565b6102696104783660046114a3565b61100b565b61028c6110b7565b60025461037e906001600160a01b031681565b61028c60065481565b61028c611251565b61028c62093a8081565b60045461037e906001600160a01b031681565b6003546001600160a01b03166105235760405162461bcd60e51b815260206004820152601760248201527f5374616b696e672072657761726473206e6f742073657400000000000000000060448201526064015b60405180910390fd5b6004546001600160a01b031661057b5760405162461bcd60e51b815260206004820152601760248201527f54726164696e672072657761726473206e6f7420736574000000000000000000604482015260640161051a565b60006105856110b7565b9050600081116105d75760405162461bcd60e51b815260206004820152601560248201527f4e6f20737570706c79206973206d696e7461626c650000000000000000000000604482015260640161051a565b6105e081611277565b506000600754826105f19190611511565b90506000612710600854836106069190611524565b6106109190611551565b90506000612710600954846106259190611524565b61062f9190611551565b905060008161063e8486611511565b6106489190611511565b600254600a546040516340c10f1960e01b81526001600160a01b0391821660048201526024810187905292935016906340c10f1990604401600060405180830381600087803b15801561069a57600080fd5b505af11580156106ae573d6000803e3d6000fd5b5050600254600480546040516340c10f1960e01b81526001600160a01b03918216928101929092526024820187905290911692506340c10f199150604401600060405180830381600087803b15801561070657600080fd5b505af115801561071a573d6000803e3d6000fd5b50506002546003546040516340c10f1960e01b81526001600160a01b03918216600482015260248101869052911692506340c10f199150604401600060405180830381600087803b15801561076e57600080fd5b505af1158015610782573d6000803e3d6000fd5b50506003546040517f3c6b16ab000000000000000000000000000000000000000000000000000000008152600481018590526001600160a01b039091169250633c6b16ab9150602401600060405180830381600087803b1580156107e557600080fd5b505af11580156107f9573d6000803e3d6000fd5b50506002546007546040516340c10f1960e01b815233600482015260248101919091526001600160a01b0390911692506340c10f199150604401600060405180830381600087803b15801561084d57600080fd5b505af1158015610861573d6000803e3d6000fd5b505050505050505050565b61087461132c565b600180546001600160a01b0319166001600160a01b0383169081179091556040519081527f906a1c6bd7e3091ea86693dd029a831c19049ce77f1dce2ce0bab1cacbabce22906020015b60405180910390a150565b6108d161132c565b6001600160a01b0381166109275760405162461bcd60e51b815260206004820152601f60248201527f537570706c795363686564756c653a20496e76616c6964204164647265737300604482015260640161051a565b600480546001600160a01b0319166001600160a01b0383169081179091556040519081527f2600f737e588eec1a845714266bf64b2f65c9d3f624e452a2b64611c33108ab0906020016108be565b600062093a80600554426109899190611511565b11905090565b61099761132c565b6801158e460913d00000811115610a165760405162461bcd60e51b815260206004820152603660248201527f537570706c795363686564756c653a205265776172642063616e6e6f7420657860448201527f63656564206d6178206d696e7465722072657761726400000000000000000000606482015260840161051a565b60078190556040518181527f036e0c635f8b7d9314bb6f2a577046108ef0f8b5e3869fbd29fd5a448ed99d30906020016108be565b600080610ad7836648d4a431e5400073__$eafab6a382253e3d4dc0e94de940bead68$__63907af6c06040518163ffffffff1660e01b8152600401602060405180830381865af4158015610aa3573d6000803e3d6000fd5b505050506040513d601f19601f82011682018060405250810190610ac79190611565565b610ad19190611511565b906113ae565b90506000610b138260346064610af96a14adf4b7320334b900000060f0611524565b610b039190611551565b610b0d9190611551565b90611469565b949350505050565b610b2361132c565b61271060085482610b34919061157e565b10610b925760405162461bcd60e51b815260206004820152602860248201527f537570706c795363686564756c653a2043616e6e6f74206265206d6f7265207460448201526768616e203130302560c01b606482015260840161051a565b60098190556040518181527f3a6b6f816fda56a9f48af157a6f60d156254bc01c34e04fd31583013fb00a67f906020016108be565b610bcf61132c565b6001600160a01b038116610c255760405162461bcd60e51b815260206004820152601f60248201527f537570706c795363686564756c653a20496e76616c6964204164647265737300604482015260640161051a565b600380546001600160a01b0319166001600160a01b0383169081179091556040519081527f551390b523f91b5d9df0281cbb04db779545fbfa265f5fcde47668f4d4e16006906020016108be565b6001546001600160a01b03163314610cf35760405162461bcd60e51b815260206004820152603560248201527f596f75206d757374206265206e6f6d696e61746564206265666f726520796f7560448201527f2063616e20616363657074206f776e6572736869700000000000000000000000606482015260840161051a565b600054600154604080516001600160a01b0393841681529290911660208301527fb532073b38c83145e3e5135377a08bf9aab55bc0fd7c1179cd4fb995d2a5159c910160405180910390a160018054600080546001600160a01b03199081166001600160a01b03841617909155169055565b610d6d61132c565b61271060095482610d7e919061157e565b10610ddc5760405162461bcd60e51b815260206004820152602860248201527f537570706c795363686564756c653a2043616e6e6f74206265206d6f7265207460448201526768616e203130302560c01b606482015260840161051a565b60088190556040518181527f57a9cd79e547e62257530ed181309acb795c4e6aab927735a3e2afe2ac4d9309906020016108be565b610e1961132c565b6001600160a01b038116610e6f5760405162461bcd60e51b815260206004820152601c60248201527f537570706c795363686564756c653a205a65726f204164647265737300000000604482015260640161051a565b600a80546001600160a01b0319166001600160a01b0383169081179091556040519081527fd780e06c55efd6b3157e8c26704d2fd7bd2750bd9d0e71d2e5f675572dfad7a2906020016108be565b600080610f4d83610ed66034662386f26fc10000611551565b73__$eafab6a382253e3d4dc0e94de940bead68$__63907af6c06040518163ffffffff1660e01b8152600401602060405180830381865af4158015610f1f573d6000803e3d6000fd5b505050506040513d601f19601f82011682018060405250810190610f439190611565565b610ad1919061157e565b9050610fd073__$eafab6a382253e3d4dc0e94de940bead68$__63907af6c06040518163ffffffff1660e01b8152600401602060405180830381865af4158015610f9b573d6000803e3d6000fd5b505050506040513d601f19601f82011682018060405250810190610fbf9190611565565b610fc99083611511565b8590611469565b9150505b92915050565b60346064610ff46a14adf4b7320334b900000060f0611524565b610ffe9190611551565b6110089190611551565b81565b61101361132c565b6001600160a01b0381166110695760405162461bcd60e51b815260206004820152601360248201527f416464726573732063616e6e6f74206265203000000000000000000000000000604482015260640161051a565b600280546001600160a01b0319166001600160a01b0383169081179091556040519081527feb83b1dd8b810073d77f64dffa39b1fea87c13dc8b2138b43d72633d9ef32df0906020016108be565b6000806110c2610975565b6110cb57919050565b60006110d5611251565b6006549091505b811561124957806110ec81611591565b915050600281101561114457603460646111126a14adf4b7320334b900000060f0611524565b61111c9190611551565b6111269190611551565b611130908461157e565b92508161113c816115aa565b9250506110dc565b60d0811161119157600061115a600160026115c1565b6111679060ff1683611511565b905061117281610a4b565b61117c908561157e565b935082611188816115aa565b935050506110dc565b600254604080517f18160ddd00000000000000000000000000000000000000000000000000000000815290516000926001600160a01b0316916318160ddd9160048083019260209291908290030181865afa1580156111f4573d6000803e3d6000fd5b505050506040513d601f19601f820116820180604052508101906112189190611565565b90506000611226858361157e565b90506112328185610ebd565b61123c908661157e565b94506000935050506110dc565b509092915050565b600080600554426112629190611511565b905061127162093a8082611551565b91505090565b600080611282611251565b905080600654611292919061157e565b600681905562015180906112aa9062093a8090611524565b6112d4907f000000000000000000000000000000000000000000000000000000000000000061157e565b6112de919061157e565b6005819055604080518581526020810184905280820192909252517feae287c62f1ff4911334dee03f631d5dded5284b1b03ea7bc1d6282916c7249f9181900360600190a150600192915050565b6000546001600160a01b031633146113ac5760405162461bcd60e51b815260206004820152602f60248201527f4f6e6c792074686520636f6e7472616374206f776e6572206d6179207065726660448201527f6f726d207468697320616374696f6e0000000000000000000000000000000000606482015260840161051a565b565b60008073__$eafab6a382253e3d4dc0e94de940bead68$__63907af6c06040518163ffffffff1660e01b8152600401602060405180830381865af41580156113fa573d6000803e3d6000fd5b505050506040513d601f19601f8201168201806040525081019061141e9190611565565b90505b8215611462576114326002846115da565b15611444576114418185611469565b90505b61144e8480611469565b935061145b600284611551565b9250611421565b9392505050565b60006114776012600a6116d2565b6114818385611524565b6114629190611551565b6001600160a01b03811681146114a057600080fd5b50565b6000602082840312156114b557600080fd5b81356114628161148b565b6000602082840312156114d257600080fd5b5035919050565b600080604083850312156114ec57600080fd5b50508035926020909101359150565b634e487b7160e01b600052601160045260246000fd5b81810381811115610fd457610fd46114fb565b8082028115828204841417610fd457610fd46114fb565b634e487b7160e01b600052601260045260246000fd5b6000826115605761156061153b565b500490565b60006020828403121561157757600080fd5b5051919050565b80820180821115610fd457610fd46114fb565b6000600182016115a3576115a36114fb565b5060010190565b6000816115b9576115b96114fb565b506000190190565b60ff8281168282160390811115610fd457610fd46114fb565b6000826115e9576115e961153b565b500690565b600181815b8085111561162957816000190482111561160f5761160f6114fb565b8085161561161c57918102915b93841c93908002906115f3565b509250929050565b60008261164057506001610fd4565b8161164d57506000610fd4565b8160018114611663576002811461166d57611689565b6001915050610fd4565b60ff84111561167e5761167e6114fb565b50506001821b610fd4565b5060208310610133831016604e8410600b84101617156116ac575081810a610fd4565b6116b683836115ee565b80600019048211156116ca576116ca6114fb565b029392505050565b6000611462838361163156fea2646970667358221220c2d50644172afc47f254c15b58d1c90b5007d16b317e38ac0d2f210af8aac5a364736f6c63430008130033",
  "devdoc": {
    "kind": "dev",
    "methods": {
      "isMintable()": {
        "returns": {
          "_0": "boolean whether the MINT_PERIOD_DURATION (7 days) has passed since the lastMintEvent. "
        }
      },
      "mintableSupply()": {
        "returns": {
          "_0": "The amount of DTORO mintable for the inflationary supply"
        }
      },
      "setMinterReward(uint256)": {
        "params": {
          "amount": "the amount of DTORO to reward the minter. "
        }
      },
      "setTreasuryDAO(address)": {
        "details": "only owner may change address"
      },
      "terminalInflationSupply(uint256,uint256)": {
        "details": "Weekly compound rate based on number of weeks",
        "returns": {
          "_0": "A unit amount of terminal inflation supply"
        }
      },
      "tokenDecaySupplyForWeek(uint256)": {
        "details": "New token supply reduces by the decay rate each week calculated as supply = INITIAL_WEEKLY_SUPPLY * ()",
        "returns": {
          "_0": "A unit amount of decaying inflationary supply from the INITIAL_WEEKLY_SUPPLY"
        }
      },
      "weeksSinceLastIssuance()": {
        "details": "Take timeDiff in seconds (Dividend) and MINT_PERIOD_DURATION as (Divisor)",
        "returns": {
          "_0": "Calculate the numberOfWeeks since last mint rounded down to 1 week"
        }
      }
    },
    "version": 1
  },
  "userdoc": {
    "events": {
      "DexToroUpdated(address)": {
        "notice": "Emitted when setDexToro is called changing the DexToro Proxy address*"
      },
      "MinterRewardUpdated(uint256)": {
        "notice": "Emitted when the DTORO minter reward amount is updated*"
      },
      "StakingRewardsUpdated(address)": {
        "notice": "Emitted when StakingRewards is changed*"
      },
      "SupplyMinted(uint256,uint256,uint256)": {
        "notice": "Emitted when the inflationary supply is minted*"
      },
      "TradingRewardsDiversionUpdated(uint256)": {
        "notice": "Emitted when trading rewards inflation share is changed*"
      },
      "TradingRewardsUpdated(address)": {
        "notice": "Emitted when TradingRewards is changed*"
      },
      "TreasuryDAOSet(address)": {
        "notice": "Emitted when treasuryDAO address is changed*"
      },
      "TreasuryDiversionUpdated(uint256)": {
        "notice": "Emitted when treasury inflation share is changed*"
      }
    },
    "kind": "user",
    "methods": {
      "mint()": {
        "notice": "Mints new inflationary supply weekly New DTORO is distributed between the minter, treasury, and StakingRewards contract "
      },
      "setDexToro(address)": {
        "notice": "Set the DexToro should it ever change. SupplySchedule requires DexToro address as it has the authority to record mint event. "
      },
      "setMinterReward(uint256)": {
        "notice": "Sets the reward amount of DTORO for the caller of the public function DexToro.mint(). This incentivises anyone to mint the inflationary supply and the mintr Reward will be deducted from the inflationary supply and sent to the caller."
      },
      "setTreasuryDAO(address)": {
        "notice": "set treasuryDAO address"
      }
    },
    "version": 1
  },
  "storageLayout": {
    "storage": [
      {
        "astId": 17258,
        "contract": "contracts/SupplySchedule.sol:SupplySchedule",
        "label": "owner",
        "offset": 0,
        "slot": "0",
        "type": "t_address"
      },
      {
        "astId": 17260,
        "contract": "contracts/SupplySchedule.sol:SupplySchedule",
        "label": "nominatedOwner",
        "offset": 0,
        "slot": "1",
        "type": "t_address"
      },
      {
        "astId": 13506,
        "contract": "contracts/SupplySchedule.sol:SupplySchedule",
        "label": "dextoro",
        "offset": 0,
        "slot": "2",
        "type": "t_contract(IDexToro)14823"
      },
      {
        "astId": 13509,
        "contract": "contracts/SupplySchedule.sol:SupplySchedule",
        "label": "stakingRewards",
        "offset": 0,
        "slot": "3",
        "type": "t_contract(IStakingRewards)15914"
      },
      {
        "astId": 13511,
        "contract": "contracts/SupplySchedule.sol:SupplySchedule",
        "label": "tradingRewards",
        "offset": 0,
        "slot": "4",
        "type": "t_address"
      },
      {
        "astId": 13513,
        "contract": "contracts/SupplySchedule.sol:SupplySchedule",
        "label": "lastMintEvent",
        "offset": 0,
        "slot": "5",
        "type": "t_uint256"
      },
      {
        "astId": 13515,
        "contract": "contracts/SupplySchedule.sol:SupplySchedule",
        "label": "weekCounter",
        "offset": 0,
        "slot": "6",
        "type": "t_uint256"
      },
      {
        "astId": 13518,
        "contract": "contracts/SupplySchedule.sol:SupplySchedule",
        "label": "minterReward",
        "offset": 0,
        "slot": "7",
        "type": "t_uint256"
      },
      {
        "astId": 13558,
        "contract": "contracts/SupplySchedule.sol:SupplySchedule",
        "label": "treasuryDiversion",
        "offset": 0,
        "slot": "8",
        "type": "t_uint256"
      },
      {
        "astId": 13561,
        "contract": "contracts/SupplySchedule.sol:SupplySchedule",
        "label": "tradingRewardsDiversion",
        "offset": 0,
        "slot": "9",
        "type": "t_uint256"
      },
      {
        "astId": 13563,
        "contract": "contracts/SupplySchedule.sol:SupplySchedule",
        "label": "treasuryDAO",
        "offset": 0,
        "slot": "10",
        "type": "t_address"
      }
    ],
    "types": {
      "t_address": {
        "encoding": "inplace",
        "label": "address",
        "numberOfBytes": "20"
      },
      "t_contract(IDexToro)14823": {
        "encoding": "inplace",
        "label": "contract IDexToro",
        "numberOfBytes": "20"
      },
      "t_contract(IStakingRewards)15914": {
        "encoding": "inplace",
        "label": "contract IStakingRewards",
        "numberOfBytes": "20"
      },
      "t_uint256": {
        "encoding": "inplace",
        "label": "uint256",
        "numberOfBytes": "32"
      }
    }
  }
}