{
  "address": "0xCf7Ed3AccA5a467e9e704C703E8D87F634fB0Fc9",
  "abi": [
    {
      "inputs": [
        {
          "internalType": "address",
          "name": "_owner",
          "type": "address"
        },
        {
          "internalType": "address",
          "name": "_dextoro",
          "type": "address"
        }
      ],
      "stateMutability": "nonpayable",
      "type": "constructor"
    },
    {
      "anonymous": false,
      "inputs": [
        {
          "indexed": false,
          "internalType": "address",
          "name": "oldOwner",
          "type": "address"
        },
        {
          "indexed": false,
          "internalType": "address",
          "name": "newOwner",
          "type": "address"
        }
      ],
      "name": "OwnerChanged",
      "type": "event"
    },
    {
      "anonymous": false,
      "inputs": [
        {
          "indexed": false,
          "internalType": "address",
          "name": "newOwner",
          "type": "address"
        }
      ],
      "name": "OwnerNominated",
      "type": "event"
    },
    {
      "anonymous": false,
      "inputs": [
        {
          "indexed": false,
          "internalType": "address",
          "name": "stakingRewards",
          "type": "address"
        }
      ],
      "name": "StakingRewardsSet",
      "type": "event"
    },
    {
      "anonymous": false,
      "inputs": [
        {
          "indexed": false,
          "internalType": "address",
          "name": "treasuryDAO",
          "type": "address"
        }
      ],
      "name": "TreasuryDAOSet",
      "type": "event"
    },
    {
      "anonymous": false,
      "inputs": [
        {
          "indexed": true,
          "internalType": "address",
          "name": "beneficiary",
          "type": "address"
        },
        {
          "indexed": false,
          "internalType": "uint256",
          "name": "value",
          "type": "uint256"
        }
      ],
      "name": "Vested",
      "type": "event"
    },
    {
      "anonymous": false,
      "inputs": [
        {
          "indexed": true,
          "internalType": "address",
          "name": "beneficiary",
          "type": "address"
        },
        {
          "indexed": false,
          "internalType": "uint256",
          "name": "value",
          "type": "uint256"
        },
        {
          "indexed": false,
          "internalType": "uint256",
          "name": "duration",
          "type": "uint256"
        },
        {
          "indexed": false,
          "internalType": "uint256",
          "name": "entryID",
          "type": "uint256"
        }
      ],
      "name": "VestingEntryCreated",
      "type": "event"
    },
    {
      "inputs": [],
      "name": "MAX_DURATION",
      "outputs": [
        {
          "internalType": "uint256",
          "name": "",
          "type": "uint256"
        }
      ],
      "stateMutability": "view",
      "type": "function"
    },
    {
      "inputs": [],
      "name": "acceptOwnership",
      "outputs": [],
      "stateMutability": "nonpayable",
      "type": "function"
    },
    {
      "inputs": [
        {
          "internalType": "address",
          "name": "",
          "type": "address"
        },
        {
          "internalType": "uint256",
          "name": "",
          "type": "uint256"
        }
      ],
      "name": "accountVestingEntryIDs",
      "outputs": [
        {
          "internalType": "uint256",
          "name": "",
          "type": "uint256"
        }
      ],
      "stateMutability": "view",
      "type": "function"
    },
    {
      "inputs": [
        {
          "internalType": "address",
          "name": "account",
          "type": "address"
        },
        {
          "internalType": "uint256",
          "name": "quantity",
          "type": "uint256"
        },
        {
          "internalType": "uint256",
          "name": "duration",
          "type": "uint256"
        }
      ],
      "name": "appendVestingEntry",
      "outputs": [],
      "stateMutability": "nonpayable",
      "type": "function"
    },
    {
      "inputs": [
        {
          "internalType": "address",
          "name": "account",
          "type": "address"
        }
      ],
      "name": "balanceOf",
      "outputs": [
        {
          "internalType": "uint256",
          "name": "",
          "type": "uint256"
        }
      ],
      "stateMutability": "view",
      "type": "function"
    },
    {
      "inputs": [
        {
          "internalType": "address",
          "name": "beneficiary",
          "type": "address"
        },
        {
          "internalType": "uint256",
          "name": "deposit",
          "type": "uint256"
        },
        {
          "internalType": "uint256",
          "name": "duration",
          "type": "uint256"
        }
      ],
      "name": "createEscrowEntry",
      "outputs": [],
      "stateMutability": "nonpayable",
      "type": "function"
    },
    {
      "inputs": [
        {
          "internalType": "address",
          "name": "account",
          "type": "address"
        },
        {
          "internalType": "uint256",
          "name": "index",
          "type": "uint256"
        },
        {
          "internalType": "uint256",
          "name": "pageSize",
          "type": "uint256"
        }
      ],
      "name": "getAccountVestingEntryIDs",
      "outputs": [
        {
          "internalType": "uint256[]",
          "name": "",
          "type": "uint256[]"
        }
      ],
      "stateMutability": "view",
      "type": "function"
    },
    {
      "inputs": [],
      "name": "getDexToroAddress",
      "outputs": [
        {
          "internalType": "address",
          "name": "",
          "type": "address"
        }
      ],
      "stateMutability": "view",
      "type": "function"
    },
    {
      "inputs": [
        {
          "internalType": "address",
          "name": "account",
          "type": "address"
        },
        {
          "internalType": "uint256",
          "name": "entryID",
          "type": "uint256"
        }
      ],
      "name": "getVestingEntry",
      "outputs": [
        {
          "internalType": "uint64",
          "name": "endTime",
          "type": "uint64"
        },
        {
          "internalType": "uint256",
          "name": "escrowAmount",
          "type": "uint256"
        },
        {
          "internalType": "uint256",
          "name": "duration",
          "type": "uint256"
        }
      ],
      "stateMutability": "view",
      "type": "function"
    },
    {
      "inputs": [
        {
          "internalType": "address",
          "name": "account",
          "type": "address"
        },
        {
          "internalType": "uint256",
          "name": "entryID",
          "type": "uint256"
        }
      ],
      "name": "getVestingEntryClaimable",
      "outputs": [
        {
          "internalType": "uint256",
          "name": "quantity",
          "type": "uint256"
        },
        {
          "internalType": "uint256",
          "name": "fee",
          "type": "uint256"
        }
      ],
      "stateMutability": "view",
      "type": "function"
    },
    {
      "inputs": [
        {
          "internalType": "address",
          "name": "account",
          "type": "address"
        },
        {
          "internalType": "uint256[]",
          "name": "entryIDs",
          "type": "uint256[]"
        }
      ],
      "name": "getVestingQuantity",
      "outputs": [
        {
          "internalType": "uint256",
          "name": "total",
          "type": "uint256"
        },
        {
          "internalType": "uint256",
          "name": "totalFee",
          "type": "uint256"
        }
      ],
      "stateMutability": "view",
      "type": "function"
    },
    {
      "inputs": [
        {
          "internalType": "address",
          "name": "account",
          "type": "address"
        },
        {
          "internalType": "uint256",
          "name": "index",
          "type": "uint256"
        },
        {
          "internalType": "uint256",
          "name": "pageSize",
          "type": "uint256"
        }
      ],
      "name": "getVestingSchedules",
      "outputs": [
        {
          "components": [
            {
              "internalType": "uint64",
              "name": "endTime",
              "type": "uint64"
            },
            {
              "internalType": "uint256",
              "name": "escrowAmount",
              "type": "uint256"
            },
            {
              "internalType": "uint256",
              "name": "entryID",
              "type": "uint256"
            }
          ],
          "internalType": "struct VestingEntries.VestingEntryWithID[]",
          "name": "",
          "type": "tuple[]"
        }
      ],
      "stateMutability": "view",
      "type": "function"
    },
    {
      "inputs": [],
      "name": "nextEntryId",
      "outputs": [
        {
          "internalType": "uint256",
          "name": "",
          "type": "uint256"
        }
      ],
      "stateMutability": "view",
      "type": "function"
    },
    {
      "inputs": [
        {
          "internalType": "address",
          "name": "_owner",
          "type": "address"
        }
      ],
      "name": "nominateNewOwner",
      "outputs": [],
      "stateMutability": "nonpayable",
      "type": "function"
    },
    {
      "inputs": [],
      "name": "nominatedOwner",
      "outputs": [
        {
          "internalType": "address",
          "name": "",
          "type": "address"
        }
      ],
      "stateMutability": "view",
      "type": "function"
    },
    {
      "inputs": [
        {
          "internalType": "address",
          "name": "account",
          "type": "address"
        }
      ],
      "name": "numVestingEntries",
      "outputs": [
        {
          "internalType": "uint256",
          "name": "",
          "type": "uint256"
        }
      ],
      "stateMutability": "view",
      "type": "function"
    },
    {
      "inputs": [],
      "name": "owner",
      "outputs": [
        {
          "internalType": "address",
          "name": "",
          "type": "address"
        }
      ],
      "stateMutability": "view",
      "type": "function"
    },
    {
      "inputs": [
        {
          "internalType": "address",
          "name": "_stakingRewards",
          "type": "address"
        }
      ],
      "name": "setStakingRewards",
      "outputs": [],
      "stateMutability": "nonpayable",
      "type": "function"
    },
    {
      "inputs": [
        {
          "internalType": "address",
          "name": "_treasuryDAO",
          "type": "address"
        }
      ],
      "name": "setTreasuryDAO",
      "outputs": [],
      "stateMutability": "nonpayable",
      "type": "function"
    },
    {
      "inputs": [
        {
          "internalType": "uint256",
          "name": "_amount",
          "type": "uint256"
        }
      ],
      "name": "stakeEscrow",
      "outputs": [],
      "stateMutability": "nonpayable",
      "type": "function"
    },
    {
      "inputs": [],
      "name": "stakingRewards",
      "outputs": [
        {
          "internalType": "contract IStakingRewards",
          "name": "",
          "type": "address"
        }
      ],
      "stateMutability": "view",
      "type": "function"
    },
    {
      "inputs": [
        {
          "internalType": "address",
          "name": "",
          "type": "address"
        }
      ],
      "name": "totalEscrowedAccountBalance",
      "outputs": [
        {
          "internalType": "uint256",
          "name": "",
          "type": "uint256"
        }
      ],
      "stateMutability": "view",
      "type": "function"
    },
    {
      "inputs": [],
      "name": "totalEscrowedBalance",
      "outputs": [
        {
          "internalType": "uint256",
          "name": "",
          "type": "uint256"
        }
      ],
      "stateMutability": "view",
      "type": "function"
    },
    {
      "inputs": [
        {
          "internalType": "address",
          "name": "",
          "type": "address"
        }
      ],
      "name": "totalVestedAccountBalance",
      "outputs": [
        {
          "internalType": "uint256",
          "name": "",
          "type": "uint256"
        }
      ],
      "stateMutability": "view",
      "type": "function"
    },
    {
      "inputs": [],
      "name": "treasuryDAO",
      "outputs": [
        {
          "internalType": "address",
          "name": "",
          "type": "address"
        }
      ],
      "stateMutability": "view",
      "type": "function"
    },
    {
      "inputs": [
        {
          "internalType": "uint256",
          "name": "_amount",
          "type": "uint256"
        }
      ],
      "name": "unstakeEscrow",
      "outputs": [],
      "stateMutability": "nonpayable",
      "type": "function"
    },
    {
      "inputs": [
        {
          "internalType": "uint256[]",
          "name": "entryIDs",
          "type": "uint256[]"
        }
      ],
      "name": "vest",
      "outputs": [],
      "stateMutability": "nonpayable",
      "type": "function"
    },
    {
      "inputs": [
        {
          "internalType": "address",
          "name": "",
          "type": "address"
        },
        {
          "internalType": "uint256",
          "name": "",
          "type": "uint256"
        }
      ],
      "name": "vestingSchedules",
      "outputs": [
        {
          "internalType": "uint64",
          "name": "endTime",
          "type": "uint64"
        },
        {
          "internalType": "uint256",
          "name": "escrowAmount",
          "type": "uint256"
        },
        {
          "internalType": "uint256",
          "name": "duration",
          "type": "uint256"
        }
      ],
      "stateMutability": "view",
      "type": "function"
    }
  ],
  "numDeployments": 1,
  "solcInputHash": "988f03804ab92d79625b9d4ae3d2ece2",
  "bytecode": "0x60a06040523480156200001157600080fd5b5060405162001e6738038062001e6783398101604081905262000034916200011d565b816001600160a01b038116620000905760405162461bcd60e51b815260206004820152601960248201527f4f776e657220616464726573732063616e6e6f74206265203000000000000000604482015260640160405180910390fd5b600080546001600160a01b0319166001600160a01b03831690811782556040805192835260208301919091527fb532073b38c83145e3e5135377a08bf9aab55bc0fd7c1179cd4fb995d2a5159c910160405180910390a15060016005556001600160a01b03166080525062000155565b80516001600160a01b03811681146200011857600080fd5b919050565b600080604083850312156200013157600080fd5b6200013c8362000100565b91506200014c6020840162000100565b90509250929050565b608051611cda6200018d600039600081816101e00152818161083201528181610e9c015281816114c2015261186a0152611cda6000f3fe608060405234801561001057600080fd5b50600436106101c45760003560e01c806370a08231116100f9578063a86c3cde11610097578063b1724b4611610071578063b1724b46146104b3578063e6b2cf6c146104be578063eac62489146104c7578063eddaee92146104e757600080fd5b8063a86c3cde1461047a578063ad18e97e1461048d578063ae582549146104a057600080fd5b806379ba5097116100d357806379ba5097146104395780638da5cb5b14610441578063a0416ed314610454578063a46eddcf1461046757600080fd5b806370a08231146103e757806371e780f314610410578063773ab39f1461041957600080fd5b806334c7fec9116101665780636154c343116101405780636154c3431461036057806364b87a70146103ae5780636dc05bd3146103c15780636fb83a57146103d457600080fd5b806334c7fec9146102cf57806345626bd6146102e257806353a47bb71461034d57600080fd5b8063204b676a116101a2578063204b676a14610230578063227d517a1461026757806330104c5f14610287578063326a3cfb146102af57600080fd5b80631627540c146101c957806316c72f0c146101de5780631bb47b441461021d575b600080fd5b6101dc6101d736600461199c565b6104fa565b005b7f00000000000000000000000000000000000000000000000000000000000000005b6040516001600160a01b0390911681526020015b60405180910390f35b6101dc61022b3660046119b7565b610564565b61025961023e36600461199c565b6001600160a01b031660009081526004602052604090205490565b604051908152602001610214565b61025961027536600461199c565b60076020526000908152604090205481565b61029a6102953660046119ea565b6105f9565b60408051928352602083019190915201610214565b6102596102bd36600461199c565b60066020526000908152604090205481565b6101dc6102dd366004611a60565b61065d565b6103276102f03660046119ea565b600360209081526000928352604080842090915290825290208054600182015460029092015467ffffffffffffffff909116919083565b6040805167ffffffffffffffff9094168452602084019290925290820152606001610214565b600154610200906001600160a01b031681565b61032761036e3660046119ea565b6001600160a01b03919091166000908152600360209081526040808320938352929052208054600182015460029092015467ffffffffffffffff90911692565b600254610200906001600160a01b031681565b61029a6103cf366004611a96565b610923565b6101dc6103e236600461199c565b6109f5565b6102596103f536600461199c565b6001600160a01b031660009081526006602052604090205490565b61025960085481565b61042c6104273660046119b7565b610ab1565b6040516102149190611ae9565b6101dc610ce7565b600054610200906001600160a01b031681565b6101dc6104623660046119b7565b610de6565b6101dc61047536600461199c565b610f5d565b6101dc610488366004611b4c565b611016565b600954610200906001600160a01b031681565b6102596104ae3660046119ea565b611097565b6102596303bfc40081565b61025960055481565b6104da6104d53660046119b7565b6110c8565b6040516102149190611b65565b6101dc6104f5366004611b4c565b6111fd565b610502611325565b6001805473ffffffffffffffffffffffffffffffffffffffff19166001600160a01b0383169081179091556040519081527f906a1c6bd7e3091ea86693dd029a831c19049ce77f1dce2ce0bab1cacbabce22906020015b60405180910390a150565b6002546001600160a01b031633146105e95760405162461bcd60e51b815260206004820152602f60248201527f4f6e6c7920746865205374616b696e67526577617264732063616e207065726660448201527f6f726d207468697320616374696f6e000000000000000000000000000000000060648201526084015b60405180910390fd5b6105f48383836113a7565b505050565b6001600160a01b038216600090815260036020908152604080832084845282528083208151606081018352815467ffffffffffffffff1681526001820154938101939093526002015490820152819061065181611704565b90969095509350505050565b60008060005b83811015610726573360009081526003602052604081208187878581811061068d5761068d611ba9565b905060200201358152602001908152602001600020905080600101546000146107135760408051606081018252825467ffffffffffffffff1681526001830154602082015260028301549181019190915260009081906106ec90611704565b6000600186015590925090506107028287611bd5565b955061070e8186611bd5565b945050505b508061071e81611bee565b915050610663565b50811561091d576107363361174c565b156107f95760006107478284611bd5565b60025460405163057a601b60e01b81523360048201529192506000916001600160a01b039091169063057a601b90602401602060405180830381865afa158015610795573d6000803e3d6000fd5b505050506040513d601f19601f820116820180604052508101906107b99190611c07565b336000908152600660205260409020546107d39190611c20565b9050808211156107f65760006107e98284611c20565b90506107f481611016565b505b50505b80156109135761080933826117c5565b60095460405163a9059cbb60e01b81526001600160a01b039182166004820152602481018390527f00000000000000000000000000000000000000000000000000000000000000009091169063a9059cbb906044016020604051808303816000875af115801561087d573d6000803e3d6000fd5b505050506040513d601f19601f820116820180604052508101906108a19190611c33565b6109135760405162461bcd60e51b815260206004820152602360248201527f526577617264457363726f773a20546f6b656e205472616e736665722046616960448201527f6c6564000000000000000000000000000000000000000000000000000000000060648201526084016105e0565b61091d338361180d565b50505050565b60008060005b838110156109ec576001600160a01b03861660009081526003602052604081208187878581811061095c5761095c611ba9565b602090810292909201358352508181019290925260409081016000208151606081018352815467ffffffffffffffff1681526001820154938101849052600290910154918101919091529150156109d9576000806109b983611704565b90925090506109c88287611bd5565b95506109d48186611bd5565b945050505b50806109e481611bee565b915050610929565b50935093915050565b6109fd611325565b6002546001600160a01b031615610a565760405162461bcd60e51b815260206004820152601b60248201527f5374616b696e67205265776172647320616c726561647920736574000000000060448201526064016105e0565b6002805473ffffffffffffffffffffffffffffffffffffffff19166001600160a01b0383169081179091556040519081527fb63c81227c62f4cb3e2b1120e3afbf3a2ed5dd8b9d99b8bef7275b084e6a98cb90602001610559565b60606000610abf8385611bd5565b9050838111610b28576040805160008082526020820190925290610b1f565b610b0c6040518060600160405280600067ffffffffffffffff16815260200160008152602001600081525090565b815260200190600190039081610ade5790505b50915050610ce0565b6001600160a01b038516600090815260046020526040902054811115610b6357506001600160a01b0384166000908152600460205260409020545b6000610b6f8583611c20565b905060008167ffffffffffffffff811115610b8c57610b8c611c55565b604051908082528060200260200182016040528015610beb57816020015b610bd86040518060600160405280600067ffffffffffffffff16815260200160008152602001600081525090565b815260200190600190039081610baa5790505b50905060005b82811015610cda576001600160a01b0388166000908152600460205260408120610c1b8984611bd5565b81548110610c2b57610c2b611ba9565b60009182526020808320909101546001600160a01b038c168352600382526040808420828552835292839020835160608082018652825467ffffffffffffffff90811683526001840154838701908152600290940154838801528651918201875282511681529151938201939093529283018190528551909350909190859085908110610cba57610cba611ba9565b602002602001018190525050508080610cd290611bee565b915050610bf1565b50925050505b9392505050565b6001546001600160a01b03163314610d675760405162461bcd60e51b815260206004820152603560248201527f596f75206d757374206265206e6f6d696e61746564206265666f726520796f7560448201527f2063616e20616363657074206f776e657273686970000000000000000000000060648201526084016105e0565b600054600154604080516001600160a01b0393841681529290911660208301527fb532073b38c83145e3e5135377a08bf9aab55bc0fd7c1179cd4fb995d2a5159c910160405180910390a1600180546000805473ffffffffffffffffffffffffffffffffffffffff199081166001600160a01b03841617909155169055565b6001600160a01b038316610e615760405162461bcd60e51b8152602060048201526024808201527f43616e6e6f742063726561746520657363726f7720776974682061646472657360448201527f732830290000000000000000000000000000000000000000000000000000000060648201526084016105e0565b6040517f23b872dd000000000000000000000000000000000000000000000000000000008152336004820152306024820152604481018390527f00000000000000000000000000000000000000000000000000000000000000006001600160a01b0316906323b872dd906064016020604051808303816000875af1158015610eed573d6000803e3d6000fd5b505050506040513d601f19601f82011682018060405250810190610f119190611c33565b6105e95760405162461bcd60e51b815260206004820152601560248201527f546f6b656e207472616e73666572206661696c6564000000000000000000000060448201526064016105e0565b610f65611325565b6001600160a01b038116610fbb5760405162461bcd60e51b815260206004820152601a60248201527f526577617264457363726f773a205a65726f204164647265737300000000000060448201526064016105e0565b6009805473ffffffffffffffffffffffffffffffffffffffff19166001600160a01b0383169081179091556040519081527fd780e06c55efd6b3157e8c26704d2fd7bd2750bd9d0e71d2e5f675572dfad7a290602001610559565b6002546040517fc9c7da16000000000000000000000000000000000000000000000000000000008152336004820152602481018390526001600160a01b039091169063c9c7da16906044015b600060405180830381600087803b15801561107c57600080fd5b505af1158015611090573d6000803e3d6000fd5b5050505050565b600460205281600052604060002081815481106110b357600080fd5b90600052602060002001600091509150505481565b606060006110d68385611bd5565b6001600160a01b03861660009081526004602052604090205490915081111561111457506001600160a01b0384166000908152600460205260409020545b838111611131576040805160008082526020820190925290610b1f565b600061113d8583611c20565b905060008167ffffffffffffffff81111561115a5761115a611c55565b604051908082528060200260200182016040528015611183578160200160208202803683370190505b50905060005b82811015610cda576001600160a01b03881660009081526004602052604090206111b38883611bd5565b815481106111c3576111c3611ba9565b90600052602060002001548282815181106111e0576111e0611ba9565b6020908102919091010152806111f581611bee565b915050611189565b336000818152600660205260409081902054600254915163057a601b60e01b81526004810193909352916001600160a01b039091169063057a601b90602401602060405180830381865afa158015611259573d6000803e3d6000fd5b505050506040513d601f19601f8201168201806040525081019061127d9190611c07565b6112879083611bd5565b11156112d55760405162461bcd60e51b815260206004820152601c60248201527f496e73756666696369656e7420756e7374616b656420657363726f770000000060448201526064016105e0565b6002546040517f985134fb000000000000000000000000000000000000000000000000000000008152336004820152602481018390526001600160a01b039091169063985134fb90604401611062565b6000546001600160a01b031633146113a55760405162461bcd60e51b815260206004820152602f60248201527f4f6e6c792074686520636f6e7472616374206f776e6572206d6179207065726660448201527f6f726d207468697320616374696f6e000000000000000000000000000000000060648201526084016105e0565b565b816000036113f75760405162461bcd60e51b815260206004820152601760248201527f5175616e746974792063616e6e6f74206265207a65726f00000000000000000060448201526064016105e0565b60008111801561140b57506303bfc4008111155b61147d5760405162461bcd60e51b815260206004820152603360248201527f43616e6e6f7420657363726f7720776974682030206475726174696f6e204f5260448201527f2061626f7665206d61785f6475726174696f6e0000000000000000000000000060648201526084016105e0565b816008600082825461148f9190611bd5565b90915550506040517f70a082310000000000000000000000000000000000000000000000000000000081523060048201527f00000000000000000000000000000000000000000000000000000000000000006001600160a01b0316906370a0823190602401602060405180830381865afa158015611511573d6000803e3d6000fd5b505050506040513d601f19601f820116820180604052508101906115359190611c07565b60085411156115d25760405162461bcd60e51b815260206004820152604760248201527f4d75737420626520656e6f7567682062616c616e636520696e2074686520636f60448201527f6e747261637420746f2070726f7669646520666f72207468652076657374696e60648201527f6720656e74727900000000000000000000000000000000000000000000000000608482015260a4016105e0565b60006115de8242611bd5565b6001600160a01b03851660009081526006602052604081208054929350859290919061160b908490611bd5565b9091555050600580546040805160608101825267ffffffffffffffff858116825260208083018981528385018981526001600160a01b038c1660008181526003855287812089825285528781209651875467ffffffffffffffff19169616959095178655915160018087019190915590516002909501949094558252600481529281208054928301815581529182200182905582549192906116ac83611bee565b909155505060408051858152602081018590529081018290526001600160a01b038616907fc11d912f381a0760d4ed857b120f217d7571b1c550471b92880b0b94b1d42bee9060600160405180910390a25050505050565b60208101516000908190801561174657835167ffffffffffffffff16421061172e57809250611746565b6117378461191e565b91506117438282611c20565b92505b50915091565b60025460405163057a601b60e01b81526001600160a01b038381166004830152600092839291169063057a601b90602401602060405180830381865afa15801561179a573d6000803e3d6000fd5b505050506040513d601f19601f820116820180604052508101906117be9190611c07565b1192915050565b80600860008282546117d79190611c20565b90915550506001600160a01b03821660009081526006602052604081208054839290611804908490611c20565b90915550505050565b61181782826117c5565b6001600160a01b0382166000908152600760205260408120805483929061183f908490611bd5565b909155505060405163a9059cbb60e01b81526001600160a01b038381166004830152602482018390527f0000000000000000000000000000000000000000000000000000000000000000169063a9059cbb906044016020604051808303816000875af11580156118b3573d6000803e3d6000fd5b505050506040513d601f19601f820116820180604052508101906118d79190611c33565b50816001600160a01b03167ed5958799b183a7b738d3ad5e711305293dd5076a37a4e3b7e6611dea6114f38260405161191291815260200190565b60405180910390a25050565b60008042836000015167ffffffffffffffff1661193b9190611c20565b90506000600a846020015160096119529190611c6b565b61195c9190611c82565b604085015190915061196e8383611c6b565b6119789190611c82565b949350505050565b80356001600160a01b038116811461199757600080fd5b919050565b6000602082840312156119ae57600080fd5b610ce082611980565b6000806000606084860312156119cc57600080fd5b6119d584611980565b95602085013595506040909401359392505050565b600080604083850312156119fd57600080fd5b611a0683611980565b946020939093013593505050565b60008083601f840112611a2657600080fd5b50813567ffffffffffffffff811115611a3e57600080fd5b6020830191508360208260051b8501011115611a5957600080fd5b9250929050565b60008060208385031215611a7357600080fd5b823567ffffffffffffffff811115611a8a57600080fd5b61065185828601611a14565b600080600060408486031215611aab57600080fd5b611ab484611980565b9250602084013567ffffffffffffffff811115611ad057600080fd5b611adc86828701611a14565b9497909650939450505050565b602080825282518282018190526000919060409081850190868401855b82811015611b3f578151805167ffffffffffffffff16855286810151878601528501518585015260609093019290850190600101611b06565b5091979650505050505050565b600060208284031215611b5e57600080fd5b5035919050565b6020808252825182820181905260009190848201906040850190845b81811015611b9d57835183529284019291840191600101611b81565b50909695505050505050565b634e487b7160e01b600052603260045260246000fd5b634e487b7160e01b600052601160045260246000fd5b80820180821115611be857611be8611bbf565b92915050565b600060018201611c0057611c00611bbf565b5060010190565b600060208284031215611c1957600080fd5b5051919050565b81810381811115611be857611be8611bbf565b600060208284031215611c4557600080fd5b81518015158114610ce057600080fd5b634e487b7160e01b600052604160045260246000fd5b8082028115828204841417611be857611be8611bbf565b600082611c9f57634e487b7160e01b600052601260045260246000fd5b50049056fea2646970667358221220782fae8baf73dc4f0ac9141577b4165854d4642c0b2ae6984552da4297d648c964736f6c63430008130033",
  "devdoc": {
    "kind": "dev",
    "methods": {
      "appendVestingEntry(address,uint256,uint256)": {
        "details": "A call to this should accompany a previous successful call to dextoro.transfer(rewardEscrow, amount), to ensure that when the funds are withdrawn, there is enough balance.",
        "params": {
          "account": "The account to append a new vesting entry to.",
          "duration": "The duration that DTORO will be emitted.",
          "quantity": "The quantity of DTORO that will be escrowed."
        }
      },
      "createEscrowEntry(address,uint256,uint256)": {
        "details": "This call expects that the depositor (msg.sender) has already approved the Reward escrow contract to spend the the amount being escrowed."
      },
      "getVestingEntry(address,uint256)": {
        "returns": {
          "endTime": "the vesting entry object ",
          "escrowAmount": "rate per second emission."
        }
      },
      "setTreasuryDAO(address)": {
        "details": "only owner may change address"
      },
      "stakeEscrow(uint256)": {
        "details": "No tokens are transfered during this process, but the StakingRewards escrowed balance is updated.",
        "params": {
          "_amount": "The amount of escrowed DTORO to be staked."
        }
      },
      "unstakeEscrow(uint256)": {
        "details": "No tokens are transfered during this process, but the StakingRewards escrowed balance is updated.",
        "params": {
          "_amount": "The amount of escrowed DTORO to be unstaked."
        }
      }
    },
    "version": 1
  },
  "userdoc": {
    "kind": "user",
    "methods": {
      "appendVestingEntry(address,uint256,uint256)": {
        "notice": "Add a new vesting entry at a given time and quantity to an account's schedule."
      },
      "balanceOf(address)": {
        "notice": "A simple alias to totalEscrowedAccountBalance: provides ERC20 balance integration."
      },
      "createEscrowEntry(address,uint256,uint256)": {
        "notice": "Create an escrow entry to lock DTORO for a given duration in seconds"
      },
      "getDexToroAddress()": {
        "notice": "helper function to return dextoro address"
      },
      "getVestingEntry(address,uint256)": {
        "notice": "Get a particular schedule entry for an account."
      },
      "numVestingEntries(address)": {
        "notice": "The number of vesting dates in an account's schedule."
      },
      "setTreasuryDAO(address)": {
        "notice": "set treasuryDAO address"
      },
      "stakeEscrow(uint256)": {
        "notice": "Stakes escrowed DTORO."
      },
      "unstakeEscrow(uint256)": {
        "notice": "Unstakes escrowed DTORO."
      },
      "vest(uint256[])": {
        "notice": "Vest escrowed amounts that are claimable Allows users to vest their vesting entries based on msg.sender"
      }
    },
    "version": 1
  },
  "storageLayout": {
    "storage": [
      {
        "astId": 20822,
        "contract": "contracts/RewardEscrow.sol:RewardEscrow",
        "label": "owner",
        "offset": 0,
        "slot": "0",
        "type": "t_address"
      },
      {
        "astId": 20824,
        "contract": "contracts/RewardEscrow.sol:RewardEscrow",
        "label": "nominatedOwner",
        "offset": 0,
        "slot": "1",
        "type": "t_address"
      },
      {
        "astId": 12010,
        "contract": "contracts/RewardEscrow.sol:RewardEscrow",
        "label": "stakingRewards",
        "offset": 0,
        "slot": "2",
        "type": "t_contract(IStakingRewards)19478"
      },
      {
        "astId": 12017,
        "contract": "contracts/RewardEscrow.sol:RewardEscrow",
        "label": "vestingSchedules",
        "offset": 0,
        "slot": "3",
        "type": "t_mapping(t_address,t_mapping(t_uint256,t_struct(VestingEntry)18950_storage))"
      },
      {
        "astId": 12022,
        "contract": "contracts/RewardEscrow.sol:RewardEscrow",
        "label": "accountVestingEntryIDs",
        "offset": 0,
        "slot": "4",
        "type": "t_mapping(t_address,t_array(t_uint256)dyn_storage)"
      },
      {
        "astId": 12024,
        "contract": "contracts/RewardEscrow.sol:RewardEscrow",
        "label": "nextEntryId",
        "offset": 0,
        "slot": "5",
        "type": "t_uint256"
      },
      {
        "astId": 12029,
        "contract": "contracts/RewardEscrow.sol:RewardEscrow",
        "label": "totalEscrowedAccountBalance",
        "offset": 0,
        "slot": "6",
        "type": "t_mapping(t_address,t_uint256)"
      },
      {
        "astId": 12034,
        "contract": "contracts/RewardEscrow.sol:RewardEscrow",
        "label": "totalVestedAccountBalance",
        "offset": 0,
        "slot": "7",
        "type": "t_mapping(t_address,t_uint256)"
      },
      {
        "astId": 12036,
        "contract": "contracts/RewardEscrow.sol:RewardEscrow",
        "label": "totalEscrowedBalance",
        "offset": 0,
        "slot": "8",
        "type": "t_uint256"
      },
      {
        "astId": 12038,
        "contract": "contracts/RewardEscrow.sol:RewardEscrow",
        "label": "treasuryDAO",
        "offset": 0,
        "slot": "9",
        "type": "t_address"
      }
    ],
    "types": {
      "t_address": {
        "encoding": "inplace",
        "label": "address",
        "numberOfBytes": "20"
      },
      "t_array(t_uint256)dyn_storage": {
        "base": "t_uint256",
        "encoding": "dynamic_array",
        "label": "uint256[]",
        "numberOfBytes": "32"
      },
      "t_contract(IStakingRewards)19478": {
        "encoding": "inplace",
        "label": "contract IStakingRewards",
        "numberOfBytes": "20"
      },
      "t_mapping(t_address,t_array(t_uint256)dyn_storage)": {
        "encoding": "mapping",
        "key": "t_address",
        "label": "mapping(address => uint256[])",
        "numberOfBytes": "32",
        "value": "t_array(t_uint256)dyn_storage"
      },
      "t_mapping(t_address,t_mapping(t_uint256,t_struct(VestingEntry)18950_storage))": {
        "encoding": "mapping",
        "key": "t_address",
        "label": "mapping(address => mapping(uint256 => struct VestingEntries.VestingEntry))",
        "numberOfBytes": "32",
        "value": "t_mapping(t_uint256,t_struct(VestingEntry)18950_storage)"
      },
      "t_mapping(t_address,t_uint256)": {
        "encoding": "mapping",
        "key": "t_address",
        "label": "mapping(address => uint256)",
        "numberOfBytes": "32",
        "value": "t_uint256"
      },
      "t_mapping(t_uint256,t_struct(VestingEntry)18950_storage)": {
        "encoding": "mapping",
        "key": "t_uint256",
        "label": "mapping(uint256 => struct VestingEntries.VestingEntry)",
        "numberOfBytes": "32",
        "value": "t_struct(VestingEntry)18950_storage"
      },
      "t_struct(VestingEntry)18950_storage": {
        "encoding": "inplace",
        "label": "struct VestingEntries.VestingEntry",
        "members": [
          {
            "astId": 18945,
            "contract": "contracts/RewardEscrow.sol:RewardEscrow",
            "label": "endTime",
            "offset": 0,
            "slot": "0",
            "type": "t_uint64"
          },
          {
            "astId": 18947,
            "contract": "contracts/RewardEscrow.sol:RewardEscrow",
            "label": "escrowAmount",
            "offset": 0,
            "slot": "1",
            "type": "t_uint256"
          },
          {
            "astId": 18949,
            "contract": "contracts/RewardEscrow.sol:RewardEscrow",
            "label": "duration",
            "offset": 0,
            "slot": "2",
            "type": "t_uint256"
          }
        ],
        "numberOfBytes": "96"
      },
      "t_uint256": {
        "encoding": "inplace",
        "label": "uint256",
        "numberOfBytes": "32"
      },
      "t_uint64": {
        "encoding": "inplace",
        "label": "uint64",
        "numberOfBytes": "8"
      }
    }
  }
}