{
  "address": "0xDc64a140Aa3E981100a9becA4E685f962f0cF6C9",
  "abi": [
    {
      "inputs": [
        {
          "internalType": "address",
          "name": "_token",
          "type": "address"
        },
        {
          "internalType": "address",
          "name": "_rewardEscrow",
          "type": "address"
        },
        {
          "internalType": "address",
          "name": "_supplySchedule",
          "type": "address"
        }
      ],
      "stateMutability": "nonpayable",
      "type": "constructor"
    },
    {
      "anonymous": false,
      "inputs": [
        {
          "indexed": true,
          "internalType": "address",
          "name": "user",
          "type": "address"
        },
        {
          "indexed": false,
          "internalType": "uint256",
          "name": "amount",
          "type": "uint256"
        }
      ],
      "name": "EscrowStaked",
      "type": "event"
    },
    {
      "anonymous": false,
      "inputs": [
        {
          "indexed": false,
          "internalType": "address",
          "name": "user",
          "type": "address"
        },
        {
          "indexed": false,
          "internalType": "uint256",
          "name": "amount",
          "type": "uint256"
        }
      ],
      "name": "EscrowUnstaked",
      "type": "event"
    },
    {
      "anonymous": false,
      "inputs": [
        {
          "indexed": false,
          "internalType": "address",
          "name": "oldOwner",
          "type": "address"
        },
        {
          "indexed": false,
          "internalType": "address",
          "name": "newOwner",
          "type": "address"
        }
      ],
      "name": "OwnerChanged",
      "type": "event"
    },
    {
      "anonymous": false,
      "inputs": [
        {
          "indexed": false,
          "internalType": "address",
          "name": "newOwner",
          "type": "address"
        }
      ],
      "name": "OwnerNominated",
      "type": "event"
    },
    {
      "anonymous": false,
      "inputs": [
        {
          "indexed": false,
          "internalType": "address",
          "name": "account",
          "type": "address"
        }
      ],
      "name": "Paused",
      "type": "event"
    },
    {
      "anonymous": false,
      "inputs": [
        {
          "indexed": false,
          "internalType": "address",
          "name": "token",
          "type": "address"
        },
        {
          "indexed": false,
          "internalType": "uint256",
          "name": "amount",
          "type": "uint256"
        }
      ],
      "name": "Recovered",
      "type": "event"
    },
    {
      "anonymous": false,
      "inputs": [
        {
          "indexed": false,
          "internalType": "uint256",
          "name": "reward",
          "type": "uint256"
        }
      ],
      "name": "RewardAdded",
      "type": "event"
    },
    {
      "anonymous": false,
      "inputs": [
        {
          "indexed": true,
          "internalType": "address",
          "name": "user",
          "type": "address"
        },
        {
          "indexed": false,
          "internalType": "uint256",
          "name": "reward",
          "type": "uint256"
        }
      ],
      "name": "RewardPaid",
      "type": "event"
    },
    {
      "anonymous": false,
      "inputs": [
        {
          "indexed": false,
          "internalType": "uint256",
          "name": "newDuration",
          "type": "uint256"
        }
      ],
      "name": "RewardsDurationUpdated",
      "type": "event"
    },
    {
      "anonymous": false,
      "inputs": [
        {
          "indexed": true,
          "internalType": "address",
          "name": "user",
          "type": "address"
        },
        {
          "indexed": false,
          "internalType": "uint256",
          "name": "amount",
          "type": "uint256"
        }
      ],
      "name": "Staked",
      "type": "event"
    },
    {
      "anonymous": false,
      "inputs": [
        {
          "indexed": false,
          "internalType": "address",
          "name": "account",
          "type": "address"
        }
      ],
      "name": "Unpaused",
      "type": "event"
    },
    {
      "anonymous": false,
      "inputs": [
        {
          "indexed": true,
          "internalType": "address",
          "name": "user",
          "type": "address"
        },
        {
          "indexed": false,
          "internalType": "uint256",
          "name": "amount",
          "type": "uint256"
        }
      ],
      "name": "Unstaked",
      "type": "event"
    },
    {
      "inputs": [],
      "name": "acceptOwnership",
      "outputs": [],
      "stateMutability": "nonpayable",
      "type": "function"
    },
    {
      "inputs": [
        {
          "internalType": "address",
          "name": "account",
          "type": "address"
        }
      ],
      "name": "balanceOf",
      "outputs": [
        {
          "internalType": "uint256",
          "name": "",
          "type": "uint256"
        }
      ],
      "stateMutability": "view",
      "type": "function"
    },
    {
      "inputs": [
        {
          "internalType": "address",
          "name": "account",
          "type": "address"
        }
      ],
      "name": "earned",
      "outputs": [
        {
          "internalType": "uint256",
          "name": "",
          "type": "uint256"
        }
      ],
      "stateMutability": "view",
      "type": "function"
    },
    {
      "inputs": [
        {
          "internalType": "address",
          "name": "account",
          "type": "address"
        }
      ],
      "name": "escrowedBalanceOf",
      "outputs": [
        {
          "internalType": "uint256",
          "name": "",
          "type": "uint256"
        }
      ],
      "stateMutability": "view",
      "type": "function"
    },
    {
      "inputs": [],
      "name": "exit",
      "outputs": [],
      "stateMutability": "nonpayable",
      "type": "function"
    },
    {
      "inputs": [],
      "name": "getReward",
      "outputs": [],
      "stateMutability": "nonpayable",
      "type": "function"
    },
    {
      "inputs": [],
      "name": "getRewardForDuration",
      "outputs": [
        {
          "internalType": "uint256",
          "name": "",
          "type": "uint256"
        }
      ],
      "stateMutability": "view",
      "type": "function"
    },
    {
      "inputs": [],
      "name": "lastTimeRewardApplicable",
      "outputs": [
        {
          "internalType": "uint256",
          "name": "",
          "type": "uint256"
        }
      ],
      "stateMutability": "view",
      "type": "function"
    },
    {
      "inputs": [],
      "name": "lastUpdateTime",
      "outputs": [
        {
          "internalType": "uint256",
          "name": "",
          "type": "uint256"
        }
      ],
      "stateMutability": "view",
      "type": "function"
    },
    {
      "inputs": [
        {
          "internalType": "address",
          "name": "_owner",
          "type": "address"
        }
      ],
      "name": "nominateNewOwner",
      "outputs": [],
      "stateMutability": "nonpayable",
      "type": "function"
    },
    {
      "inputs": [],
      "name": "nominatedOwner",
      "outputs": [
        {
          "internalType": "address",
          "name": "",
          "type": "address"
        }
      ],
      "stateMutability": "view",
      "type": "function"
    },
    {
      "inputs": [
        {
          "internalType": "address",
          "name": "account",
          "type": "address"
        }
      ],
      "name": "nonEscrowedBalanceOf",
      "outputs": [
        {
          "internalType": "uint256",
          "name": "",
          "type": "uint256"
        }
      ],
      "stateMutability": "view",
      "type": "function"
    },
    {
      "inputs": [
        {
          "internalType": "uint256",
          "name": "reward",
          "type": "uint256"
        }
      ],
      "name": "notifyRewardAmount",
      "outputs": [],
      "stateMutability": "nonpayable",
      "type": "function"
    },
    {
      "inputs": [],
      "name": "owner",
      "outputs": [
        {
          "internalType": "address",
          "name": "",
          "type": "address"
        }
      ],
      "stateMutability": "view",
      "type": "function"
    },
    {
      "inputs": [],
      "name": "pauseStakingRewards",
      "outputs": [],
      "stateMutability": "nonpayable",
      "type": "function"
    },
    {
      "inputs": [],
      "name": "paused",
      "outputs": [
        {
          "internalType": "bool",
          "name": "",
          "type": "bool"
        }
      ],
      "stateMutability": "view",
      "type": "function"
    },
    {
      "inputs": [],
      "name": "periodFinish",
      "outputs": [
        {
          "internalType": "uint256",
          "name": "",
          "type": "uint256"
        }
      ],
      "stateMutability": "view",
      "type": "function"
    },
    {
      "inputs": [
        {
          "internalType": "address",
          "name": "tokenAddress",
          "type": "address"
        },
        {
          "internalType": "uint256",
          "name": "tokenAmount",
          "type": "uint256"
        }
      ],
      "name": "recoverERC20",
      "outputs": [],
      "stateMutability": "nonpayable",
      "type": "function"
    },
    {
      "inputs": [],
      "name": "rewardEscrow",
      "outputs": [
        {
          "internalType": "contract IRewardEscrow",
          "name": "",
          "type": "address"
        }
      ],
      "stateMutability": "view",
      "type": "function"
    },
    {
      "inputs": [],
      "name": "rewardPerToken",
      "outputs": [
        {
          "internalType": "uint256",
          "name": "",
          "type": "uint256"
        }
      ],
      "stateMutability": "view",
      "type": "function"
    },
    {
      "inputs": [],
      "name": "rewardPerTokenStored",
      "outputs": [
        {
          "internalType": "uint256",
          "name": "",
          "type": "uint256"
        }
      ],
      "stateMutability": "view",
      "type": "function"
    },
    {
      "inputs": [],
      "name": "rewardRate",
      "outputs": [
        {
          "internalType": "uint256",
          "name": "",
          "type": "uint256"
        }
      ],
      "stateMutability": "view",
      "type": "function"
    },
    {
      "inputs": [
        {
          "internalType": "address",
          "name": "",
          "type": "address"
        }
      ],
      "name": "rewards",
      "outputs": [
        {
          "internalType": "uint256",
          "name": "",
          "type": "uint256"
        }
      ],
      "stateMutability": "view",
      "type": "function"
    },
    {
      "inputs": [],
      "name": "rewardsDuration",
      "outputs": [
        {
          "internalType": "uint256",
          "name": "",
          "type": "uint256"
        }
      ],
      "stateMutability": "view",
      "type": "function"
    },
    {
      "inputs": [
        {
          "internalType": "uint256",
          "name": "_rewardsDuration",
          "type": "uint256"
        }
      ],
      "name": "setRewardsDuration",
      "outputs": [],
      "stateMutability": "nonpayable",
      "type": "function"
    },
    {
      "inputs": [
        {
          "internalType": "uint256",
          "name": "amount",
          "type": "uint256"
        }
      ],
      "name": "stake",
      "outputs": [],
      "stateMutability": "nonpayable",
      "type": "function"
    },
    {
      "inputs": [
        {
          "internalType": "address",
          "name": "account",
          "type": "address"
        },
        {
          "internalType": "uint256",
          "name": "amount",
          "type": "uint256"
        }
      ],
      "name": "stakeEscrow",
      "outputs": [],
      "stateMutability": "nonpayable",
      "type": "function"
    },
    {
      "inputs": [],
      "name": "supplySchedule",
      "outputs": [
        {
          "internalType": "contract ISupplySchedule",
          "name": "",
          "type": "address"
        }
      ],
      "stateMutability": "view",
      "type": "function"
    },
    {
      "inputs": [],
      "name": "token",
      "outputs": [
        {
          "internalType": "contract IERC20",
          "name": "",
          "type": "address"
        }
      ],
      "stateMutability": "view",
      "type": "function"
    },
    {
      "inputs": [],
      "name": "totalSupply",
      "outputs": [
        {
          "internalType": "uint256",
          "name": "",
          "type": "uint256"
        }
      ],
      "stateMutability": "view",
      "type": "function"
    },
    {
      "inputs": [],
      "name": "unpauseStakingRewards",
      "outputs": [],
      "stateMutability": "nonpayable",
      "type": "function"
    },
    {
      "inputs": [
        {
          "internalType": "uint256",
          "name": "amount",
          "type": "uint256"
        }
      ],
      "name": "unstake",
      "outputs": [],
      "stateMutability": "nonpayable",
      "type": "function"
    },
    {
      "inputs": [
        {
          "internalType": "address",
          "name": "account",
          "type": "address"
        },
        {
          "internalType": "uint256",
          "name": "amount",
          "type": "uint256"
        }
      ],
      "name": "unstakeEscrow",
      "outputs": [],
      "stateMutability": "nonpayable",
      "type": "function"
    },
    {
      "inputs": [
        {
          "internalType": "address",
          "name": "",
          "type": "address"
        }
      ],
      "name": "userRewardPerTokenPaid",
      "outputs": [
        {
          "internalType": "uint256",
          "name": "",
          "type": "uint256"
        }
      ],
      "stateMutability": "view",
      "type": "function"
    }
  ],
  "numDeployments": 1,
  "solcInputHash": "988f03804ab92d79625b9d4ae3d2ece2",
  "bytecode": "0x60e06040526000600755600060085562093a806009553480156200002257600080fd5b5060405162001dda38038062001dda83398101604081905262000045916200013a565b3380620000985760405162461bcd60e51b815260206004820152601960248201527f4f776e657220616464726573732063616e6e6f74206265203000000000000000604482015260640160405180910390fd5b600080546001600160a01b0319166001600160a01b03831690811782556040805192835260208301919091527fb532073b38c83145e3e5135377a08bf9aab55bc0fd7c1179cd4fb995d2a5159c910160405180910390a15060016002556003805460ff191690556001600160a01b0392831660805290821660a0521660c05262000184565b80516001600160a01b03811681146200013557600080fd5b919050565b6000806000606084860312156200015057600080fd5b6200015b846200011d565b92506200016b602085016200011d565b91506200017b604085016200011d565b90509250925092565b60805160a05160c051611be7620001f360003960008181610433015261079a0152600081816103f9015281816109ed01528181610a5101528181610d7801526110c20152600081816104ab01528181610724015281816109c301528181610c5701526110550152611be76000f3fe608060405234801561001057600080fd5b50600436106102255760003560e01c806380faa57d1161012a578063c40dd66f116100bd578063cd3daf9d1161008c578063e9fad8ee11610071578063e9fad8ee14610495578063ebe2b12b1461049d578063fc0c546a146104a657600080fd5b8063cd3daf9d14610484578063df136d651461048c57600080fd5b8063c40dd66f1461042e578063c8f33c9114610455578063c9c7da161461045e578063cc1a378f1461047157600080fd5b80638da5cb5b116100f95780638da5cb5b146103ce578063985134fb146103e1578063a430be6c146103f4578063a694fc3a1461041b57600080fd5b806380faa57d1461038b5780638980f11f1461039357806389997f9a146103a65780638b876347146103ae57600080fd5b80633c6b16ab116101bd5780635c975abb1161018c57806370a082311161017157806370a082311461035157806379ba50971461037a5780637b0a47ee1461038257600080fd5b80635c975abb146103335780636079916f1461034957600080fd5b80633c6b16ab146102da5780633d18b912146102ed578063514a16c9146102f557806353a47bb71461030857600080fd5b806318160ddd116101f957806318160ddd146102ae5780631c1f78eb146102b65780632e17de78146102be578063386a9525146102d157600080fd5b80628cc2621461022a578063057a601b146102505780630700037d146102795780631627540c14610299575b600080fd5b61023d610238366004611a42565b6104cd565b6040519081526020015b60405180910390f35b61023d61025e366004611a42565b6001600160a01b031660009081526005602052604090205490565b61023d610287366004611a42565b600d6020526000908152604090205481565b6102ac6102a7366004611a42565b61054a565b005b60065461023d565b61023d6105b4565b6102ac6102cc366004611a64565b6105cb565b61023d60095481565b6102ac6102e8366004611a64565b61078f565b6102ac610935565b61023d610303366004611a42565b610af9565b60015461031b906001600160a01b031681565b6040516001600160a01b039091168152602001610247565b60035460ff166040519015158152602001610247565b6102ac610b27565b61023d61035f366004611a42565b6001600160a01b031660009081526004602052604090205490565b6102ac610b37565b61023d60085481565b61023d610c36565b6102ac6103a1366004611a7d565b610c4d565b6102ac610d55565b61023d6103bc366004611a42565b600c6020526000908152604090205481565b60005461031b906001600160a01b031681565b6102ac6103ef366004611a7d565b610d65565b61031b7f000000000000000000000000000000000000000000000000000000000000000081565b6102ac610429366004611a64565b610f51565b61031b7f000000000000000000000000000000000000000000000000000000000000000081565b61023d600a5481565b6102ac61046c366004611a7d565b6110af565b6102ac61047f366004611a64565b611311565b61023d611411565b61023d600b5481565b6102ac611472565b61023d60075481565b61031b7f000000000000000000000000000000000000000000000000000000000000000081565b6001600160a01b0381166000908152600d6020908152604080832054600c909252822054670de0b6b3a764000090610503611411565b61050d9190611abd565b6001600160a01b0385166000908152600460205260409020546105309190611ad0565b61053a9190611ae7565b6105449190611b09565b92915050565b610552611486565b6001805473ffffffffffffffffffffffffffffffffffffffff19166001600160a01b0383169081179091556040519081527f906a1c6bd7e3091ea86693dd029a831c19049ce77f1dce2ce0bab1cacbabce22906020015b60405180910390a150565b60006009546008546105c69190611ad0565b905090565b6105d3611506565b336105dc611411565b600b556105e7610c36565b600a556001600160a01b0381161561062e57610602816104cd565b6001600160a01b0382166000908152600d6020908152604080832093909355600b54600c909152919020555b600082116106835760405162461bcd60e51b815260206004820181905260248201527f5374616b696e67526577617264733a2043616e6e6f7420556e7374616b65203060448201526064015b60405180910390fd5b61068c33610af9565b8211156106db5760405162461bcd60e51b815260206004820152601e60248201527f5374616b696e67526577617264733a20496e76616c696420416d6f756e740000604482015260640161067a565b81600660008282546106ed9190611abd565b90915550503360009081526004602052604081208054849290610711908490611abd565b9091555061074b90506001600160a01b037f000000000000000000000000000000000000000000000000000000000000000016338461155d565b60405182815233907f0f5bb82176feb1b5e747e28471aa92156a04d9f3ab9f45f28e2d704232b93f75906020015b60405180910390a25061078c6001600255565b50565b336001600160a01b037f0000000000000000000000000000000000000000000000000000000000000000161461082c5760405162461bcd60e51b8152602060048201526024808201527f5374616b696e67526577617264733a204f6e6c7920537570706c79205363686560448201527f64756c6500000000000000000000000000000000000000000000000000000000606482015260840161067a565b6000610836611411565b600b55610841610c36565b600a556001600160a01b038116156108885761085c816104cd565b6001600160a01b0382166000908152600d6020908152604080832093909355600b54600c909152919020555b60075442106108a65760095461089e9083611ae7565b6008556108e8565b6000426007546108b69190611abd565b90506000600854826108c89190611ad0565b6009549091506108d88286611b09565b6108e29190611ae7565b60085550505b42600a8190556009546108fa91611b09565b6007556040518281527fde88a922e0d3b88b24e9623efeb464919c6bf9f66857a65e2bfcf2ce87a9433d906020015b60405180910390a15050565b61093d611506565b33610946611411565b600b55610951610c36565b600a556001600160a01b038116156109985761096c816104cd565b6001600160a01b0382166000908152600d6020908152604080832093909355600b54600c909152919020555b336000908152600d60205260409020548015610aeb57336000908152600d6020526040812055610a127f00000000000000000000000000000000000000000000000000000000000000006001600160a01b03167f00000000000000000000000000000000000000000000000000000000000000008361155d565b6040517f1bb47b44000000000000000000000000000000000000000000000000000000008152336004820152602481018290526301dfe20060448201527f00000000000000000000000000000000000000000000000000000000000000006001600160a01b031690631bb47b4490606401600060405180830381600087803b158015610a9d57600080fd5b505af1158015610ab1573d6000803e3d6000fd5b50506040518381523392507fe2403640ba68fed3a2f88b7557551d1993f84b99bb10ff833f0cf8db0c5e0486915060200160405180910390a25b5050610af76001600255565b565b6001600160a01b03811660009081526005602090815260408083205460049092528220546105449190611abd565b610b2f611486565b610af761160b565b6001546001600160a01b03163314610bb75760405162461bcd60e51b815260206004820152603560248201527f596f75206d757374206265206e6f6d696e61746564206265666f726520796f7560448201527f2063616e20616363657074206f776e6572736869700000000000000000000000606482015260840161067a565b600054600154604080516001600160a01b0393841681529290911660208301527fb532073b38c83145e3e5135377a08bf9aab55bc0fd7c1179cd4fb995d2a5159c910160405180910390a1600180546000805473ffffffffffffffffffffffffffffffffffffffff199081166001600160a01b03841617909155169055565b60006007544210610c48575060075490565b504290565b610c55611486565b7f00000000000000000000000000000000000000000000000000000000000000006001600160a01b0316826001600160a01b031603610cfc5760405162461bcd60e51b815260206004820152603060248201527f5374616b696e67526577617264733a2043616e6e6f7420756e7374616b65207460448201527f6865207374616b696e6720746f6b656e00000000000000000000000000000000606482015260840161067a565b600054610d16906001600160a01b0384811691168361155d565b604080516001600160a01b0384168152602081018390527f8c1256b8896378cd5044f80c202f9772b9d77dc85c8a6eb51967210b09bfaa289101610929565b610d5d611486565b610af7611665565b610d6d61169e565b336001600160a01b037f00000000000000000000000000000000000000000000000000000000000000001614610df05760405162461bcd60e51b815260206004820152602260248201527f5374616b696e67526577617264733a204f6e6c792052657761726420457363726044820152616f7760f01b606482015260840161067a565b81610df9611411565b600b55610e04610c36565b600a556001600160a01b03811615610e4b57610e1f816104cd565b6001600160a01b0382166000908152600d6020908152604080832093909355600b54600c909152919020555b60008211610e9b5760405162461bcd60e51b815260206004820152601e60248201527f5374616b696e67526577617264733a2043616e6e6f74207374616b6520300000604482015260640161067a565b6001600160a01b03831660009081526004602052604081208054849290610ec3908490611b09565b90915550506001600160a01b03831660009081526005602052604081208054849290610ef0908490611b09565b925050819055508160066000828254610f099190611b09565b90915550506040518281526001600160a01b038416907f945856e466506640ce955f1ec0de49513761175bad680d8503f7c8d45beabb209060200160405180910390a2505050565b610f59611506565b610f6161169e565b33610f6a611411565b600b55610f75610c36565b600a556001600160a01b03811615610fbc57610f90816104cd565b6001600160a01b0382166000908152600d6020908152604080832093909355600b54600c909152919020555b6000821161100c5760405162461bcd60e51b815260206004820152601e60248201527f5374616b696e67526577617264733a2043616e6e6f74207374616b6520300000604482015260640161067a565b816006600082825461101e9190611b09565b90915550503360009081526004602052604081208054849290611042908490611b09565b9091555061107d90506001600160a01b037f0000000000000000000000000000000000000000000000000000000000000000163330856116f1565b60405182815233907f9e71bc8eea02a63969f509818f2dafb9254532904319f9dbda79b67bd34a5f3d90602001610779565b6110b7611506565b336001600160a01b037f0000000000000000000000000000000000000000000000000000000000000000161461113a5760405162461bcd60e51b815260206004820152602260248201527f5374616b696e67526577617264733a204f6e6c792052657761726420457363726044820152616f7760f01b606482015260840161067a565b81611143611411565b600b5561114e610c36565b600a556001600160a01b0381161561119557611169816104cd565b6001600160a01b0382166000908152600d6020908152604080832093909355600b54600c909152919020555b600082116111e55760405162461bcd60e51b815260206004820181905260248201527f5374616b696e67526577617264733a2043616e6e6f7420556e7374616b652030604482015260640161067a565b6001600160a01b03831660009081526005602052604090205482111561124d5760405162461bcd60e51b815260206004820152601e60248201527f5374616b696e67526577617264733a20496e76616c696420416d6f756e740000604482015260640161067a565b6001600160a01b03831660009081526004602052604081208054849290611275908490611abd565b90915550506001600160a01b038316600090815260056020526040812080548492906112a2908490611abd565b9250508190555081600660008282546112bb9190611abd565b9091555050604080516001600160a01b0385168152602081018490527fbd0d30ac1729a6f57b09c27c8f39102f2704fbbf708747dcd198e45cf27f5282910160405180910390a15061130d6001600255565b5050565b611319611486565b60075442116113dc5760405162461bcd60e51b815260206004820152606860248201527f5374616b696e67526577617264733a2050726576696f7573207265776172647360448201527f20706572696f64206d75737420626520636f6d706c657465206265666f72652060648201527f6368616e67696e6720746865206475726174696f6e20666f7220746865206e6560848201527f7720706572696f6400000000000000000000000000000000000000000000000060a482015260c40161067a565b60098190556040518181527ffb46ca5a5e06d4540d6387b930a7c978bce0db5f449ec6b3f5d07c6e1d44f2d3906020016105a9565b60006006546000036114245750600b5490565b600654600854600a54611435610c36565b61143f9190611abd565b6114499190611ad0565b61145b90670de0b6b3a7640000611ad0565b6114659190611ae7565b600b546105c69190611b09565b61147e6102cc33610af9565b610af7610935565b6000546001600160a01b03163314610af75760405162461bcd60e51b815260206004820152602f60248201527f4f6e6c792074686520636f6e7472616374206f776e6572206d6179207065726660448201527f6f726d207468697320616374696f6e0000000000000000000000000000000000606482015260840161067a565b60028054036115575760405162461bcd60e51b815260206004820152601f60248201527f5265656e7472616e637947756172643a207265656e7472616e742063616c6c00604482015260640161067a565b60028055565b6040516001600160a01b0383166024820152604481018290526116069084907fa9059cbb00000000000000000000000000000000000000000000000000000000906064015b60408051601f198184030181529190526020810180517bffffffffffffffffffffffffffffffffffffffffffffffffffffffff167fffffffff0000000000000000000000000000000000000000000000000000000090931692909217909152611748565b505050565b61161361169e565b6003805460ff191660011790557f62e78cea01bee320cd4e420270b5ea74000d11b0c9f74754ebdbfc544b05a2586116483390565b6040516001600160a01b03909116815260200160405180910390a1565b61166d61182d565b6003805460ff191690557f5db9ee0a495bf2e6ff9c91a7834c1ba4fdd244a5e8aa4e537bd38aeae4b073aa33611648565b60035460ff1615610af75760405162461bcd60e51b815260206004820152601060248201527f5061757361626c653a2070617573656400000000000000000000000000000000604482015260640161067a565b6040516001600160a01b03808516602483015283166044820152606481018290526117429085907f23b872dd00000000000000000000000000000000000000000000000000000000906084016115a2565b50505050565b600061179d826040518060400160405280602081526020017f5361666545524332303a206c6f772d6c6576656c2063616c6c206661696c6564815250856001600160a01b031661187f9092919063ffffffff16565b80519091501561160657808060200190518101906117bb9190611b1c565b6116065760405162461bcd60e51b815260206004820152602a60248201527f5361666545524332303a204552433230206f7065726174696f6e20646964206e60448201527f6f74207375636365656400000000000000000000000000000000000000000000606482015260840161067a565b60035460ff16610af75760405162461bcd60e51b815260206004820152601460248201527f5061757361626c653a206e6f7420706175736564000000000000000000000000604482015260640161067a565b606061188e8484600085611896565b949350505050565b60608247101561190e5760405162461bcd60e51b815260206004820152602660248201527f416464726573733a20696e73756666696369656e742062616c616e636520666f60448201527f722063616c6c0000000000000000000000000000000000000000000000000000606482015260840161067a565b600080866001600160a01b0316858760405161192a9190611b62565b60006040518083038185875af1925050503d8060008114611967576040519150601f19603f3d011682016040523d82523d6000602084013e61196c565b606091505b509150915061197d87838387611988565b979650505050505050565b606083156119f75782516000036119f0576001600160a01b0385163b6119f05760405162461bcd60e51b815260206004820152601d60248201527f416464726573733a2063616c6c20746f206e6f6e2d636f6e7472616374000000604482015260640161067a565b508161188e565b61188e8383815115611a0c5781518083602001fd5b8060405162461bcd60e51b815260040161067a9190611b7e565b80356001600160a01b0381168114611a3d57600080fd5b919050565b600060208284031215611a5457600080fd5b611a5d82611a26565b9392505050565b600060208284031215611a7657600080fd5b5035919050565b60008060408385031215611a9057600080fd5b611a9983611a26565b946020939093013593505050565b634e487b7160e01b600052601160045260246000fd5b8181038181111561054457610544611aa7565b808202811582820484141761054457610544611aa7565b600082611b0457634e487b7160e01b600052601260045260246000fd5b500490565b8082018082111561054457610544611aa7565b600060208284031215611b2e57600080fd5b81518015158114611a5d57600080fd5b60005b83811015611b59578181015183820152602001611b41565b50506000910152565b60008251611b74818460208701611b3e565b9190910192915050565b6020815260008251806020840152611b9d816040850160208701611b3e565b601f01601f1916919091016040019291505056fea26469706673582212201fd7ab2e7343f5d077525a4b63e0c18d287574e0c5735e369c63786205fcc0fb64736f6c63430008130033",
  "devdoc": {
    "author": "SYNTHETIX, JaredBorders (jaredborders@proton.me), JChiaramonte7 (jeremy@bytecode.llc)",
    "events": {
      "EscrowStaked(address,uint256)": {
        "params": {
          "amount": ": amount staked",
          "user": ": owner of escrowed tokens address"
        }
      },
      "EscrowUnstaked(address,uint256)": {
        "params": {
          "amount": ": amount unstaked",
          "user": ": owner of escrowed tokens address"
        }
      },
      "Paused(address)": {
        "details": "Emitted when the pause is triggered by `account`."
      },
      "Recovered(address,uint256)": {
        "params": {
          "amount": ": amount of token recovered",
          "token": ": address of token recovered"
        }
      },
      "RewardAdded(uint256)": {
        "params": {
          "reward": ": amount to be distributed over applicable rewards duration"
        }
      },
      "RewardPaid(address,uint256)": {
        "params": {
          "reward": ": amount of reward token claimed",
          "user": ": address of user claiming rewards"
        }
      },
      "RewardsDurationUpdated(uint256)": {
        "params": {
          "newDuration": ": denoted in seconds"
        }
      },
      "Staked(address,uint256)": {
        "params": {
          "amount": ": amount staked",
          "user": ": staker address"
        }
      },
      "Unpaused(address)": {
        "details": "Emitted when the pause is lifted by `account`."
      },
      "Unstaked(address,uint256)": {
        "params": {
          "amount": ": amount unstaked",
          "user": ": address of user unstaking"
        }
      }
    },
    "kind": "dev",
    "methods": {
      "balanceOf(address)": {
        "params": {
          "account": ": address of potential staker"
        },
        "returns": {
          "_0": "amount of tokens staked by account"
        }
      },
      "constructor": {
        "details": "owner set to address that deployed StakingRewards",
        "params": {
          "_rewardEscrow": ": escrow contract which holds (and may stake) reward tokens",
          "_supplySchedule": ": handles reward token minting logic",
          "_token": ": token used for staking and for rewards"
        }
      },
      "earned(address)": {
        "params": {
          "account": ": address of account earned amount is being calculated for"
        }
      },
      "escrowedBalanceOf(address)": {
        "params": {
          "account": "address to check the escrowed tokens staked"
        },
        "returns": {
          "_0": "amount of escrowed tokens staked"
        }
      },
      "getReward()": {
        "details": "rewards are escrowed in RewardEscrowupdateReward() called prior to function logic"
      },
      "getRewardForDuration()": {
        "returns": {
          "_0": "rewards for the duration specified by rewardsDuration"
        }
      },
      "lastTimeRewardApplicable()": {
        "returns": {
          "_0": "timestamp of the last time rewards are applicable"
        }
      },
      "nonEscrowedBalanceOf(address)": {
        "params": {
          "account": "address to check the non-escrowed tokens staked"
        },
        "returns": {
          "_0": "amount of non-escrowed tokens staked"
        }
      },
      "notifyRewardAmount(uint256)": {
        "details": "updateReward() called prior to function logic (with zero address)",
        "params": {
          "reward": ": amount of token to be distributed over a period"
        }
      },
      "pauseStakingRewards()": {
        "details": "Triggers stopped state"
      },
      "paused()": {
        "details": "Returns true if the contract is paused, and false otherwise."
      },
      "recoverERC20(address,uint256)": {
        "params": {
          "tokenAddress": ": address of token to be recovered",
          "tokenAmount": ": amount of token to be recovered"
        }
      },
      "rewardPerToken()": {
        "returns": {
          "_0": "running sum of reward per total tokens staked"
        }
      },
      "setRewardsDuration(uint256)": {
        "params": {
          "_rewardsDuration": ": denoted in seconds"
        }
      },
      "stake(uint256)": {
        "details": "updateReward() called prior to function logic",
        "params": {
          "amount": ": amount to stake"
        }
      },
      "stakeEscrow(address,uint256)": {
        "details": "updateReward() called prior to function logicmsg.sender NOT used (account is used)",
        "params": {
          "account": ": address which owns token",
          "amount": ": amount to stake"
        }
      },
      "totalSupply()": {
        "details": "returns staked tokens which will likely not be equal to total tokens in the contract since reward and staking tokens are the same",
        "returns": {
          "_0": "total amount of tokens that are being staked"
        }
      },
      "unpauseStakingRewards()": {
        "details": "Returns to normal state."
      },
      "unstake(uint256)": {
        "details": "updateReward() called prior to function logic",
        "params": {
          "amount": ": amount to unstake"
        }
      },
      "unstakeEscrow(address,uint256)": {
        "details": "updateReward() called prior to function logicmsg.sender NOT used (account is used)",
        "params": {
          "account": ": address which owns token",
          "amount": ": amount to unstake"
        }
      }
    },
    "stateVariables": {
      "balances": {
        "details": "this includes escrowed tokens stake"
      }
    },
    "title": "DTORO Staking Rewards",
    "version": 1
  },
  "userdoc": {
    "events": {
      "EscrowStaked(address,uint256)": {
        "notice": "emitted when escrow staked"
      },
      "EscrowUnstaked(address,uint256)": {
        "notice": "emitted when staked escrow tokens are unstaked"
      },
      "Recovered(address,uint256)": {
        "notice": "emitted when tokens are recovered from this contract"
      },
      "RewardAdded(uint256)": {
        "notice": "update reward rate"
      },
      "RewardPaid(address,uint256)": {
        "notice": "emitted when user claims rewards"
      },
      "RewardsDurationUpdated(uint256)": {
        "notice": "emitted when rewards duration changes"
      },
      "Staked(address,uint256)": {
        "notice": "emitted when user stakes tokens"
      },
      "Unstaked(address,uint256)": {
        "notice": "emitted when user unstakes tokens"
      }
    },
    "kind": "user",
    "methods": {
      "constructor": {
        "notice": "configure StakingRewards state"
      },
      "earned(address)": {
        "notice": "determine how much reward token an account has earned thus far"
      },
      "escrowedBalanceOf(address)": {
        "notice": "Getter function for number of staked escrow tokens"
      },
      "exit()": {
        "notice": "unstake all available staked non-escrowed tokens and claim any rewards"
      },
      "getReward()": {
        "notice": "caller claims any rewards generated from staking"
      },
      "lastUpdateTime()": {
        "notice": "track last time the rewards were updated"
      },
      "nonEscrowedBalanceOf(address)": {
        "notice": "Getter function for number of staked non-escrow tokens"
      },
      "notifyRewardAmount(uint256)": {
        "notice": "configure reward rate"
      },
      "periodFinish()": {
        "notice": "marks applicable reward period finish time"
      },
      "recoverERC20(address,uint256)": {
        "notice": "added to support recovering LP Rewards from other systems such as BAL to be distributed to holders"
      },
      "rewardEscrow()": {
        "notice": "escrow contract which holds (and may stake) reward tokens"
      },
      "rewardPerToken()": {
        "notice": "calculate running sum of reward per total tokens staked at this specific time"
      },
      "rewardPerTokenStored()": {
        "notice": "summation of rewardRate divided by total staked tokens"
      },
      "rewardRate()": {
        "notice": "amount of tokens minted per second"
      },
      "rewards(address)": {
        "notice": "track rewards for a given user which changes when a user stakes, unstakes, or claims rewards"
      },
      "rewardsDuration()": {
        "notice": "period for rewards"
      },
      "setRewardsDuration(uint256)": {
        "notice": "set rewards duration"
      },
      "stake(uint256)": {
        "notice": "stake token"
      },
      "stakeEscrow(address,uint256)": {
        "notice": "stake escrowed token"
      },
      "supplySchedule()": {
        "notice": "handles reward token minting logic"
      },
      "token()": {
        "notice": "token used for BOTH staking and rewards"
      },
      "unstake(uint256)": {
        "notice": "unstake token"
      },
      "unstakeEscrow(address,uint256)": {
        "notice": "unstake escrowed token"
      },
      "userRewardPerTokenPaid(address)": {
        "notice": "represents the rewardPerToken value the last time the stake calculated earned() rewards"
      }
    },
    "notice": "Updated version of Synthetix's StakingRewards with new features specific to DexToro",
    "version": 1
  },
  "storageLayout": {
    "storage": [
      {
        "astId": 20822,
        "contract": "contracts/StakingRewards.sol:StakingRewards",
        "label": "owner",
        "offset": 0,
        "slot": "0",
        "type": "t_address"
      },
      {
        "astId": 20824,
        "contract": "contracts/StakingRewards.sol:StakingRewards",
        "label": "nominatedOwner",
        "offset": 0,
        "slot": "1",
        "type": "t_address"
      },
      {
        "astId": 4814,
        "contract": "contracts/StakingRewards.sol:StakingRewards",
        "label": "_status",
        "offset": 0,
        "slot": "2",
        "type": "t_uint256"
      },
      {
        "astId": 4713,
        "contract": "contracts/StakingRewards.sol:StakingRewards",
        "label": "_paused",
        "offset": 0,
        "slot": "3",
        "type": "t_bool"
      },
      {
        "astId": 14480,
        "contract": "contracts/StakingRewards.sol:StakingRewards",
        "label": "balances",
        "offset": 0,
        "slot": "4",
        "type": "t_mapping(t_address,t_uint256)"
      },
      {
        "astId": 14485,
        "contract": "contracts/StakingRewards.sol:StakingRewards",
        "label": "escrowedBalances",
        "offset": 0,
        "slot": "5",
        "type": "t_mapping(t_address,t_uint256)"
      },
      {
        "astId": 14488,
        "contract": "contracts/StakingRewards.sol:StakingRewards",
        "label": "_totalSupply",
        "offset": 0,
        "slot": "6",
        "type": "t_uint256"
      },
      {
        "astId": 14492,
        "contract": "contracts/StakingRewards.sol:StakingRewards",
        "label": "periodFinish",
        "offset": 0,
        "slot": "7",
        "type": "t_uint256"
      },
      {
        "astId": 14496,
        "contract": "contracts/StakingRewards.sol:StakingRewards",
        "label": "rewardRate",
        "offset": 0,
        "slot": "8",
        "type": "t_uint256"
      },
      {
        "astId": 14500,
        "contract": "contracts/StakingRewards.sol:StakingRewards",
        "label": "rewardsDuration",
        "offset": 0,
        "slot": "9",
        "type": "t_uint256"
      },
      {
        "astId": 14503,
        "contract": "contracts/StakingRewards.sol:StakingRewards",
        "label": "lastUpdateTime",
        "offset": 0,
        "slot": "10",
        "type": "t_uint256"
      },
      {
        "astId": 14506,
        "contract": "contracts/StakingRewards.sol:StakingRewards",
        "label": "rewardPerTokenStored",
        "offset": 0,
        "slot": "11",
        "type": "t_uint256"
      },
      {
        "astId": 14511,
        "contract": "contracts/StakingRewards.sol:StakingRewards",
        "label": "userRewardPerTokenPaid",
        "offset": 0,
        "slot": "12",
        "type": "t_mapping(t_address,t_uint256)"
      },
      {
        "astId": 14516,
        "contract": "contracts/StakingRewards.sol:StakingRewards",
        "label": "rewards",
        "offset": 0,
        "slot": "13",
        "type": "t_mapping(t_address,t_uint256)"
      }
    ],
    "types": {
      "t_address": {
        "encoding": "inplace",
        "label": "address",
        "numberOfBytes": "20"
      },
      "t_bool": {
        "encoding": "inplace",
        "label": "bool",
        "numberOfBytes": "1"
      },
      "t_mapping(t_address,t_uint256)": {
        "encoding": "mapping",
        "key": "t_address",
        "label": "mapping(address => uint256)",
        "numberOfBytes": "32",
        "value": "t_uint256"
      },
      "t_uint256": {
        "encoding": "inplace",
        "label": "uint256",
        "numberOfBytes": "32"
      }
    }
  }
}